{
  "address": "0x24ddEFA19Afa1B5DEDB22Ae15D93eC54b563E166",
  "abi": [
    {
      "inputs": [
        {
          "internalType": "address",
          "name": "_managerContract",
          "type": "address"
        },
        {
          "internalType": "uint256",
          "name": "_moduloDays",
          "type": "uint256"
        },
        {
          "internalType": "uint256",
          "name": "_targetPayoutRatio",
          "type": "uint256"
        }
      ],
      "stateMutability": "nonpayable",
      "type": "constructor"
    },
    {
      "inputs": [],
      "name": "DefiBetsPayoutRatio__AccessForbidden",
      "type": "error"
    },
    {
      "anonymous": false,
      "inputs": [
        {
          "indexed": true,
          "internalType": "address",
          "name": "previousOwner",
          "type": "address"
        },
        {
          "indexed": true,
          "internalType": "address",
          "name": "newOwner",
          "type": "address"
        }
      ],
      "name": "OwnershipTransferred",
      "type": "event"
    },
    {
      "inputs": [],
      "name": "owner",
      "outputs": [
        {
          "internalType": "address",
          "name": "",
          "type": "address"
        }
      ],
      "stateMutability": "view",
      "type": "function"
    },
    {
      "inputs": [],
      "name": "renounceOwnership",
      "outputs": [],
      "stateMutability": "nonpayable",
      "type": "function"
    },
    {
      "inputs": [
        {
          "internalType": "uint256",
          "name": "_targetPayoutRatio",
          "type": "uint256"
        }
      ],
      "name": "setTargetPayoutRatio",
      "outputs": [],
      "stateMutability": "nonpayable",
      "type": "function"
    },
    {
      "inputs": [
        {
          "internalType": "uint256",
          "name": "",
          "type": "uint256"
        }
      ],
      "name": "totalWinLpDays",
      "outputs": [
        {
          "internalType": "uint256",
          "name": "",
          "type": "uint256"
        }
      ],
      "stateMutability": "view",
      "type": "function"
    },
    {
      "inputs": [
        {
          "internalType": "uint256",
          "name": "",
          "type": "uint256"
        }
      ],
      "name": "totalWinPlayerDays",
      "outputs": [
        {
          "internalType": "uint256",
          "name": "",
          "type": "uint256"
        }
      ],
      "stateMutability": "view",
      "type": "function"
    },
    {
      "inputs": [
        {
          "internalType": "address",
          "name": "newOwner",
          "type": "address"
        }
      ],
      "name": "transferOwnership",
      "outputs": [],
      "stateMutability": "nonpayable",
      "type": "function"
    },
    {
      "inputs": [
        {
          "internalType": "uint256",
          "name": "amount",
          "type": "uint256"
        }
      ],
      "name": "updateLpWins",
      "outputs": [],
      "stateMutability": "nonpayable",
      "type": "function"
    },
    {
      "inputs": [
        {
          "internalType": "uint256",
          "name": "_currentPayoutFactor",
          "type": "uint256"
        },
        {
          "internalType": "uint256",
          "name": "amount",
          "type": "uint256"
        }
      ],
      "name": "updatePlayerWins",
      "outputs": [],
      "stateMutability": "nonpayable",
      "type": "function"
    }
  ],
  "transactionHash": "0x4518f42c3bde905c027d4714ceb0adaab84809899a596c340e7344fe18eada73",
  "args": [
    "0x1E3E5EE0a300143e7B8be3dd293E34518938d44C",
    7,
    90
  ],
  "numDeployments": 1,
  "solcInputHash": "83625d2dc91b0dda7c7452e5b3cee9d6",
  "bytecode": "0x608060405234801561001057600080fd5b5060405161094338038061094383398101604081905261002f916100b4565b61003833610064565b600180546001600160a01b0319166001600160a01b0394909416939093179092556006556008556100f7565b600080546001600160a01b038381166001600160a01b0319831681178455604051919092169283917f8be0079c531659141344cd1fd0a4f28419497f9722a3daafe3b4186f6b6457e09190a35050565b6000806000606084860312156100c957600080fd5b83516001600160a01b03811681146100e057600080fd5b602085015160409095015190969495509392505050565b61083d806101066000396000f3fe608060405234801561001057600080fd5b50600436106100885760003560e01c80638da5cb5b1161005b5780638da5cb5b146100fd57806394252bf814610118578063be123f3d1461012b578063f2fde38b1461013e57600080fd5b8063373a5a701461008d5780634397791e146100c05780635c20acb9146100d5578063715018a6146100f5575b600080fd5b6100ad61009b36600461069e565b60036020526000908152604090205481565b6040519081526020015b60405180910390f35b6100d36100ce36600461069e565b610151565b005b6100ad6100e336600461069e565b60026020526000908152604090205481565b6100d36101a0565b6000546040516001600160a01b0390911681526020016100b7565b6100d361012636600461069e565b6101b4565b6100d36101393660046106b7565b6101c1565b6100d361014c3660046106d9565b6103f6565b61015961048b565b60005b60065481101561019c5760008181526002602052604081208054849290610184908490610718565b9091555081905061019481610731565b91505061015c565b5050565b6101a86104b6565b6101b26000610510565b565b6101bc6104b6565b600855565b6101c961048b565b60005b60065481101561020c57600081815260036020526040812080548492906101f4908490610718565b9091555081905061020481610731565b9150506101cc565b600360006006546007546102209190610760565b815260200190815260200160002054600581905550600260006006546007546102499190610760565b8152602001908152602001600020546004819055506000600360006006546007546102749190610760565b81526020019081526020016000208190555060006002600060065460075461029c9190610760565b81526020019081526020016000208190555060006102b984610578565b90506102fc6040518060400160405280601181526020017f6375727257696e506c617965723a202569000000000000000000000000000000815250600554610628565b61033d6040518060400160405280600d81526020017f6375727257696e4c703a20256900000000000000000000000000000000000000815250600454610628565b61037c6040518060400160405280601381526020017f6e65775061796f7574466163746f723a2025690000000000000000000000000081525082610628565b60015460405163374e775960e21b8152600481018390526001600160a01b039091169063dd39dd6490602401600060405180830381600087803b1580156103c257600080fd5b505af11580156103d6573d6000803e3d6000fd5b5050600780549250905060006103eb83610731565b919050555050505050565b6103fe6104b6565b6001600160a01b03811661047f5760405162461bcd60e51b815260206004820152602660248201527f4f776e61626c653a206e6577206f776e657220697320746865207a65726f206160448201527f646472657373000000000000000000000000000000000000000000000000000060648201526084015b60405180910390fd5b61048881610510565b50565b6001546001600160a01b031633146101b257604051631f20b94f60e31b815260040160405180910390fd5b6000546001600160a01b031633146101b25760405162461bcd60e51b815260206004820181905260248201527f4f776e61626c653a2063616c6c6572206973206e6f7420746865206f776e65726044820152606401610476565b600080546001600160a01b038381167fffffffffffffffffffffffff0000000000000000000000000000000000000000831681178455604051919092169283917f8be0079c531659141344cd1fd0a4f28419497f9722a3daafe3b4186f6b6457e09190a35050565b60065460075460009182911015610590575090919050565b6004546000036105a1575090919050565b6004546005546105b2906064610774565b6105bc919061078b565b90506008548111156105f3576005600854826105d8919061079f565b6105e2919061078b565b6105ec908461079f565b9392505050565b6008548110156106215760058160085461060d919061079f565b610617919061078b565b6105ec9084610718565b5090919050565b61019c828260405160240161063e9291906107b2565b60408051601f198184030181529190526020810180517bffffffffffffffffffffffffffffffffffffffffffffffffffffffff16632d839cb360e21b17905280516a636f6e736f6c652e6c6f67602083016000808483855afa5050505050565b6000602082840312156106b057600080fd5b5035919050565b600080604083850312156106ca57600080fd5b50508035926020909101359150565b6000602082840312156106eb57600080fd5b81356001600160a01b03811681146105ec57600080fd5b634e487b7160e01b600052601160045260246000fd5b8082018082111561072b5761072b610702565b92915050565b60006001820161074357610743610702565b5060010190565b634e487b7160e01b600052601260045260246000fd5b60008261076f5761076f61074a565b500690565b808202811582820484141761072b5761072b610702565b60008261079a5761079a61074a565b500490565b8181038181111561072b5761072b610702565b604081526000835180604084015260005b818110156107e057602081870181015160608684010152016107c3565b506000606082850101526060601f19601f830116840101915050826020830152939250505056fea26469706673582212205ff2c7b263f9c4d55a0bf4fab4c9829e252829728f7a20f74ecb135dc25882e964736f6c63430008110033",
  "devdoc": {
    "kind": "dev",
    "methods": {
      "owner()": {
        "details": "Returns the address of the current owner."
      },
      "renounceOwnership()": {
        "details": "Leaves the contract without owner. It will not be possible to call `onlyOwner` functions anymore. Can only be called by the current owner. NOTE: Renouncing ownership will leave the contract without an owner, thereby removing any functionality that is only available to the owner."
      },
      "transferOwnership(address)": {
        "details": "Transfers ownership of the contract to a new account (`newOwner`). Can only be called by the current owner."
      }
    },
    "version": 1
  },
  "userdoc": {
    "kind": "user",
    "methods": {},
    "version": 1
  },
  "storageLayout": {
    "storage": [
      {
        "astId": 53,
        "contract": "contracts/core/DefiBetsPayoutRatio.sol:DefiBetsPayoutRatio",
        "label": "_owner",
        "offset": 0,
        "slot": "0",
        "type": "t_address"
      },
      {
        "astId": 6453,
        "contract": "contracts/core/DefiBetsPayoutRatio.sol:DefiBetsPayoutRatio",
        "label": "managerContract",
        "offset": 0,
        "slot": "1",
        "type": "t_address"
      },
      {
        "astId": 6457,
        "contract": "contracts/core/DefiBetsPayoutRatio.sol:DefiBetsPayoutRatio",
        "label": "totalWinLpDays",
        "offset": 0,
        "slot": "2",
        "type": "t_mapping(t_uint256,t_uint256)"
      },
      {
        "astId": 6461,
        "contract": "contracts/core/DefiBetsPayoutRatio.sol:DefiBetsPayoutRatio",
        "label": "totalWinPlayerDays",
        "offset": 0,
        "slot": "3",
        "type": "t_mapping(t_uint256,t_uint256)"
      },
      {
        "astId": 6463,
        "contract": "contracts/core/DefiBetsPayoutRatio.sol:DefiBetsPayoutRatio",
        "label": "currWinLp",
        "offset": 0,
        "slot": "4",
        "type": "t_uint256"
      },
      {
        "astId": 6465,
        "contract": "contracts/core/DefiBetsPayoutRatio.sol:DefiBetsPayoutRatio",
        "label": "currWinPlayer",
        "offset": 0,
        "slot": "5",
        "type": "t_uint256"
      },
      {
        "astId": 6467,
        "contract": "contracts/core/DefiBetsPayoutRatio.sol:DefiBetsPayoutRatio",
        "label": "moduloDays",
        "offset": 0,
        "slot": "6",
        "type": "t_uint256"
      },
      {
        "astId": 6469,
        "contract": "contracts/core/DefiBetsPayoutRatio.sol:DefiBetsPayoutRatio",
        "label": "currDay",
        "offset": 0,
        "slot": "7",
        "type": "t_uint256"
      },
      {
        "astId": 6471,
        "contract": "contracts/core/DefiBetsPayoutRatio.sol:DefiBetsPayoutRatio",
        "label": "targetPayoutRatio",
        "offset": 0,
        "slot": "8",
        "type": "t_uint256"
      }
    ],
    "types": {
      "t_address": {
        "encoding": "inplace",
        "label": "address",
        "numberOfBytes": "20"
      },
      "t_mapping(t_uint256,t_uint256)": {
        "encoding": "mapping",
        "key": "t_uint256",
        "label": "mapping(uint256 => uint256)",
        "numberOfBytes": "32",
        "value": "t_uint256"
      },
      "t_uint256": {
        "encoding": "inplace",
        "label": "uint256",
        "numberOfBytes": "32"
      }
    }
  }
}