{
  "address": "0x89CD9aec31F1C06773cFCb91f58cC7DA9b976352",
  "abi": [
    {
      "inputs": [
        {
          "internalType": "address",
          "name": "_managerContract",
          "type": "address"
        },
        {
          "internalType": "uint256",
          "name": "_period",
          "type": "uint256"
        },
        {
          "internalType": "uint256",
          "name": "_targetPayoutRatio",
          "type": "uint256"
        },
        {
          "internalType": "uint256",
          "name": "_startTimeStamp",
          "type": "uint256"
        }
      ],
      "stateMutability": "nonpayable",
      "type": "constructor"
    },
    {
      "inputs": [],
      "name": "DefiBetsPayoutRatio__AccessForbidden",
      "type": "error"
    },
    {
      "inputs": [],
      "name": "DefiBetsPayoutRatio__NoValidExpTime",
      "type": "error"
    },
    {
      "anonymous": false,
      "inputs": [
        {
          "indexed": true,
          "internalType": "address",
          "name": "previousOwner",
          "type": "address"
        },
        {
          "indexed": true,
          "internalType": "address",
          "name": "newOwner",
          "type": "address"
        }
      ],
      "name": "OwnershipTransferred",
      "type": "event"
    },
    {
      "anonymous": false,
      "inputs": [
        {
          "indexed": false,
          "internalType": "uint256",
          "name": "currProfit",
          "type": "uint256"
        }
      ],
      "name": "UpdateProfitLP",
      "type": "event"
    },
    {
      "anonymous": false,
      "inputs": [
        {
          "indexed": false,
          "internalType": "uint256",
          "name": "currProfit",
          "type": "uint256"
        }
      ],
      "name": "UpdateProfitPlayer",
      "type": "event"
    },
    {
      "anonymous": false,
      "inputs": [
        {
          "indexed": false,
          "internalType": "uint256",
          "name": "startIndex",
          "type": "uint256"
        },
        {
          "indexed": false,
          "internalType": "uint256",
          "name": "endIndex",
          "type": "uint256"
        },
        {
          "indexed": false,
          "internalType": "uint256",
          "name": "currProfitsPeriodLP",
          "type": "uint256"
        },
        {
          "indexed": false,
          "internalType": "uint256",
          "name": "currProfitsPeriodPlayer",
          "type": "uint256"
        }
      ],
      "name": "UpdateProfitsPeriod",
      "type": "event"
    },
    {
      "inputs": [],
      "name": "adjustmentFactor",
      "outputs": [
        {
          "internalType": "uint256",
          "name": "",
          "type": "uint256"
        }
      ],
      "stateMutability": "view",
      "type": "function"
    },
    {
      "inputs": [
        {
          "internalType": "uint256",
          "name": "_timestamp",
          "type": "uint256"
        }
      ],
      "name": "calulateAdjustedTimestamp",
      "outputs": [
        {
          "internalType": "uint256",
          "name": "",
          "type": "uint256"
        }
      ],
      "stateMutability": "view",
      "type": "function"
    },
    {
      "inputs": [],
      "name": "currProfitsPeriodLP",
      "outputs": [
        {
          "internalType": "uint256",
          "name": "",
          "type": "uint256"
        }
      ],
      "stateMutability": "view",
      "type": "function"
    },
    {
      "inputs": [],
      "name": "currProfitsPeriodPlayer",
      "outputs": [
        {
          "internalType": "uint256",
          "name": "",
          "type": "uint256"
        }
      ],
      "stateMutability": "view",
      "type": "function"
    },
    {
      "inputs": [],
      "name": "delta",
      "outputs": [
        {
          "internalType": "uint256",
          "name": "",
          "type": "uint256"
        }
      ],
      "stateMutability": "view",
      "type": "function"
    },
    {
      "inputs": [],
      "name": "owner",
      "outputs": [
        {
          "internalType": "address",
          "name": "",
          "type": "address"
        }
      ],
      "stateMutability": "view",
      "type": "function"
    },
    {
      "inputs": [],
      "name": "period",
      "outputs": [
        {
          "internalType": "uint256",
          "name": "",
          "type": "uint256"
        }
      ],
      "stateMutability": "view",
      "type": "function"
    },
    {
      "inputs": [],
      "name": "renounceOwnership",
      "outputs": [],
      "stateMutability": "nonpayable",
      "type": "function"
    },
    {
      "inputs": [
        {
          "internalType": "uint256",
          "name": "_factor",
          "type": "uint256"
        }
      ],
      "name": "setAdjustmentFactor",
      "outputs": [],
      "stateMutability": "nonpayable",
      "type": "function"
    },
    {
      "inputs": [
        {
          "internalType": "uint256",
          "name": "_delta",
          "type": "uint256"
        }
      ],
      "name": "setDelta",
      "outputs": [],
      "stateMutability": "nonpayable",
      "type": "function"
    },
    {
      "inputs": [
        {
          "internalType": "uint256",
          "name": "_targetPayoutRatio",
          "type": "uint256"
        }
      ],
      "name": "setTargetPayoutRatio",
      "outputs": [],
      "stateMutability": "nonpayable",
      "type": "function"
    },
    {
      "inputs": [],
      "name": "startTimestamp",
      "outputs": [
        {
          "internalType": "uint256",
          "name": "",
          "type": "uint256"
        }
      ],
      "stateMutability": "view",
      "type": "function"
    },
    {
      "inputs": [],
      "name": "targetPayoutRatio",
      "outputs": [
        {
          "internalType": "uint256",
          "name": "",
          "type": "uint256"
        }
      ],
      "stateMutability": "view",
      "type": "function"
    },
    {
      "inputs": [
        {
          "internalType": "uint256",
          "name": "",
          "type": "uint256"
        }
      ],
      "name": "totalProfitLP",
      "outputs": [
        {
          "internalType": "uint256",
          "name": "",
          "type": "uint256"
        }
      ],
      "stateMutability": "view",
      "type": "function"
    },
    {
      "inputs": [
        {
          "internalType": "uint256",
          "name": "",
          "type": "uint256"
        }
      ],
      "name": "totalProfitPlayer",
      "outputs": [
        {
          "internalType": "uint256",
          "name": "",
          "type": "uint256"
        }
      ],
      "stateMutability": "view",
      "type": "function"
    },
    {
      "inputs": [
        {
          "internalType": "address",
          "name": "newOwner",
          "type": "address"
        }
      ],
      "name": "transferOwnership",
      "outputs": [],
      "stateMutability": "nonpayable",
      "type": "function"
    },
    {
      "inputs": [
        {
          "internalType": "uint256",
          "name": "_amount",
          "type": "uint256"
        },
        {
          "internalType": "uint256",
          "name": "_expTime",
          "type": "uint256"
        }
      ],
      "name": "updateLPProfit",
      "outputs": [],
      "stateMutability": "nonpayable",
      "type": "function"
    },
    {
      "inputs": [
        {
          "internalType": "uint256",
          "name": "_currentPayoutFactor",
          "type": "uint256"
        },
        {
          "internalType": "uint256",
          "name": "_amount",
          "type": "uint256"
        }
      ],
      "name": "updatePlayerProfit",
      "outputs": [],
      "stateMutability": "nonpayable",
      "type": "function"
    }
  ],
  "transactionHash": "0x1e4f5fcd3273ed30ef55a68c09200ba9b6a7e8f487143cb7650f3c9328a0239b",
  "args": [
    "0x235234291698c6971e29a5D866dC95F7a66e5f8c",
    30,
    90,
    1691013600
  ],
  "numDeployments": 1,
  "solcInputHash": "15ef30c145d63ccfa88025740e8b741e",
  "bytecode": "0x6080604052620151806002556005600c5534801561001c57600080fd5b50604051610b2d380380610b2d83398101604081905261003b916100d0565b61004433610080565b600580546001600160a01b0319166001600160a01b039590951694909417909355600a91909155600b556001819055600881905560095561011b565b600080546001600160a01b038381166001600160a01b0319831681178455604051919092169283917f8be0079c531659141344cd1fd0a4f28419497f9722a3daafe3b4186f6b6457e09190a35050565b600080600080608085870312156100e657600080fd5b84516001600160a01b03811681146100fd57600080fd5b60208601516040870151606090970151919890975090945092505050565b610a038061012a6000396000f3fe608060405234801561001057600080fd5b50600436106101365760003560e01c80637aae71e4116100b2578063dc2db84d11610081578063ef78d4fd11610066578063ef78d4fd14610248578063f2fde38b14610251578063f502d8c01461026457600080fd5b8063dc2db84d1461022c578063e6fd48bc1461023f57600080fd5b80637aae71e4146101ec5780638da5cb5b146101f557806394252bf814610210578063cb6741ed1461022357600080fd5b8063234f5be51161010957806369e90359116100ee57806369e90359146101bb578063715018a6146101db5780637509e58c146101e357600080fd5b8063234f5be51461018857806367e79c441461019b57600080fd5b8063025ff0a51461013b57806312b495a8146101505780631bb8c4441461016c5780631d18c7ba14610175575b600080fd5b61014e6101493660046108db565b610277565b005b61015960025481565b6040519081526020015b60405180910390f35b61015960075481565b61014e6101833660046108f4565b610284565b61014e6101963660046108f4565b610351565b6101596101a93660046108db565b60046020526000908152604090205481565b6101596101c93660046108db565b60036020526000908152604090205481565b61014e6103da565b610159600b5481565b61015960065481565b6000546040516001600160a01b039091168152602001610163565b61014e61021e3660046108db565b6103ee565b610159600c5481565b61014e61023a3660046108db565b6103fb565b61015960015481565b610159600a5481565b61014e61025f366004610916565b610408565b6101596102723660046108db565b61049d565b61027f6104e0565b600255565b61028c61053a565b60006102974261049d565b9050816004600083815260200190815260200160002060008282546102bc9190610955565b909155506102cb905081610565565b60006102d684610759565b6005549091506001600160a01b031663dd39dd64606483116102f857826102fb565b60645b6040518263ffffffff1660e01b815260040161031991815260200190565b600060405180830381600087803b15801561033357600080fd5b505af1158015610347573d6000803e3d6000fd5b5050505050505050565b61035961053a565b610362816107ef565b600061036d8261049d565b6000818152600360205260409020549091506103898185610810565b60008381526003602052604090819020829055517f2474663d6ed22eb32ac7ea5317229568788bca22fe6d2d8d676cf0c6edf98f6c916103cc9190815260200190565b60405180910390a150505050565b6103e26104e0565b6103ec6000610825565b565b6103f66104e0565b600b55565b6104036104e0565b600c55565b6104106104e0565b6001600160a01b0381166104915760405162461bcd60e51b815260206004820152602660248201527f4f776e61626c653a206e6577206f776e657220697320746865207a65726f206160448201527f646472657373000000000000000000000000000000000000000000000000000060648201526084015b60405180910390fd5b61049a81610825565b50565b6000806104d96001546104d36002546104cd6002546104c76001548a61088d90919063ffffffff16565b90610899565b906108a5565b90610810565b9392505050565b6000546001600160a01b031633146103ec5760405162461bcd60e51b815260206004820181905260248201527f4f776e61626c653a2063616c6c6572206973206e6f7420746865206f776e65726044820152606401610488565b6005546001600160a01b031633146103ec57604051631f20b94f60e31b815260040160405180910390fd5b6000610588610581600254600a546108a590919063ffffffff16565b839061088d565b90506000610598600954846108b1565b905060015b81811161062f5760006105c76105be600254846108a590919063ffffffff16565b60095490610810565b90506003600082815260200190815260200160002054600660008282546105ee9190610955565b90915550506000818152600460205260408120546007805491929091610615908490610955565b90915550829150610627905081610968565b91505061059d565b5061063c600854836108b1565b905060005b818110156106d457600061066c610663600254846108a590919063ffffffff16565b60085490610810565b90506003600082815260200190815260200160002054600660008282546106939190610981565b909155505060008181526004602052604081205460078054919290916106ba908490610981565b909155508291506106cc905081610968565b915050610641565b5060085482116106e6576008546106e8565b815b60085560095483116106fc576009546106fe565b825b60098190556008546006546007546040805193845260208401949094529282015260608101919091527f30a6bf43bdcb402bcd3d83aa60ae4b6aaff2299cb00a779824cdcf50d543d08e9060800160405180910390a1505050565b60008060065460001461078657600654600754610777906064610994565b61078191906109ab565b610789565b60005b9050600b548111156107b957600c54600b546107a59083610981565b6107af91906109ab565b6104d99084610981565b600b548110156107e857600c5481600b546107d49190610981565b6107de91906109ab565b6104d99084610955565b5090919050565b4281101561049a57604051633e985f4760e01b815260040160405180910390fd5b600061081c8284610955565b90505b92915050565b600080546001600160a01b038381167fffffffffffffffffffffffff0000000000000000000000000000000000000000831681178455604051919092169283917f8be0079c531659141344cd1fd0a4f28419497f9722a3daafe3b4186f6b6457e09190a35050565b600061081c8284610981565b600061081c82846109ab565b600061081c8284610994565b6000808383116108c25760006108d3565b6002546108d3906104c7858761088d565b949350505050565b6000602082840312156108ed57600080fd5b5035919050565b6000806040838503121561090757600080fd5b50508035926020909101359150565b60006020828403121561092857600080fd5b81356001600160a01b03811681146104d957600080fd5b634e487b7160e01b600052601160045260246000fd5b8082018082111561081f5761081f61093f565b60006001820161097a5761097a61093f565b5060010190565b8181038181111561081f5761081f61093f565b808202811582820484141761081f5761081f61093f565b6000826109c857634e487b7160e01b600052601260045260246000fd5b50049056fea2646970667358221220a1bbfc13f2c70b6ab9d05c0bc38505d00e7e49b10a7df380b4d2d4d3ad7ea79664736f6c63430008110033",
  "devdoc": {
    "kind": "dev",
    "methods": {
      "owner()": {
        "details": "Returns the address of the current owner."
      },
      "renounceOwnership()": {
        "details": "Leaves the contract without owner. It will not be possible to call `onlyOwner` functions anymore. Can only be called by the current owner. NOTE: Renouncing ownership will leave the contract without an owner, thereby removing any functionality that is only available to the owner."
      },
      "transferOwnership(address)": {
        "details": "Transfers ownership of the contract to a new account (`newOwner`). Can only be called by the current owner."
      }
    },
    "version": 1
  },
  "userdoc": {
    "kind": "user",
    "methods": {},
    "version": 1
  },
  "storageLayout": {
    "storage": [
      {
        "astId": 7,
        "contract": "contracts/core/DefiBetsPayoutRatio.sol:DefiBetsPayoutRatio",
        "label": "_owner",
        "offset": 0,
        "slot": "0",
        "type": "t_address"
      },
      {
        "astId": 465,
        "contract": "contracts/core/DefiBetsPayoutRatio.sol:DefiBetsPayoutRatio",
        "label": "startTimestamp",
        "offset": 0,
        "slot": "1",
        "type": "t_uint256"
      },
      {
        "astId": 468,
        "contract": "contracts/core/DefiBetsPayoutRatio.sol:DefiBetsPayoutRatio",
        "label": "delta",
        "offset": 0,
        "slot": "2",
        "type": "t_uint256"
      },
      {
        "astId": 472,
        "contract": "contracts/core/DefiBetsPayoutRatio.sol:DefiBetsPayoutRatio",
        "label": "totalProfitLP",
        "offset": 0,
        "slot": "3",
        "type": "t_mapping(t_uint256,t_uint256)"
      },
      {
        "astId": 476,
        "contract": "contracts/core/DefiBetsPayoutRatio.sol:DefiBetsPayoutRatio",
        "label": "totalProfitPlayer",
        "offset": 0,
        "slot": "4",
        "type": "t_mapping(t_uint256,t_uint256)"
      },
      {
        "astId": 478,
        "contract": "contracts/core/DefiBetsPayoutRatio.sol:DefiBetsPayoutRatio",
        "label": "managerContract",
        "offset": 0,
        "slot": "5",
        "type": "t_address"
      },
      {
        "astId": 480,
        "contract": "contracts/core/DefiBetsPayoutRatio.sol:DefiBetsPayoutRatio",
        "label": "currProfitsPeriodLP",
        "offset": 0,
        "slot": "6",
        "type": "t_uint256"
      },
      {
        "astId": 482,
        "contract": "contracts/core/DefiBetsPayoutRatio.sol:DefiBetsPayoutRatio",
        "label": "currProfitsPeriodPlayer",
        "offset": 0,
        "slot": "7",
        "type": "t_uint256"
      },
      {
        "astId": 484,
        "contract": "contracts/core/DefiBetsPayoutRatio.sol:DefiBetsPayoutRatio",
        "label": "startIndex",
        "offset": 0,
        "slot": "8",
        "type": "t_uint256"
      },
      {
        "astId": 486,
        "contract": "contracts/core/DefiBetsPayoutRatio.sol:DefiBetsPayoutRatio",
        "label": "endIndex",
        "offset": 0,
        "slot": "9",
        "type": "t_uint256"
      },
      {
        "astId": 488,
        "contract": "contracts/core/DefiBetsPayoutRatio.sol:DefiBetsPayoutRatio",
        "label": "period",
        "offset": 0,
        "slot": "10",
        "type": "t_uint256"
      },
      {
        "astId": 490,
        "contract": "contracts/core/DefiBetsPayoutRatio.sol:DefiBetsPayoutRatio",
        "label": "targetPayoutRatio",
        "offset": 0,
        "slot": "11",
        "type": "t_uint256"
      },
      {
        "astId": 493,
        "contract": "contracts/core/DefiBetsPayoutRatio.sol:DefiBetsPayoutRatio",
        "label": "adjustmentFactor",
        "offset": 0,
        "slot": "12",
        "type": "t_uint256"
      }
    ],
    "types": {
      "t_address": {
        "encoding": "inplace",
        "label": "address",
        "numberOfBytes": "20"
      },
      "t_mapping(t_uint256,t_uint256)": {
        "encoding": "mapping",
        "key": "t_uint256",
        "label": "mapping(uint256 => uint256)",
        "numberOfBytes": "32",
        "value": "t_uint256"
      },
      "t_uint256": {
        "encoding": "inplace",
        "label": "uint256",
        "numberOfBytes": "32"
      }
    }
  }
}