{
  "address": "0x9Bcb695Ea0BBeC9f35417A6B36Bd8C936dafdD20",
  "abi": [
    {
      "inputs": [
        {
          "internalType": "string",
          "name": "_underlying",
          "type": "string"
        },
        {
          "internalType": "address",
          "name": "_defiBetsManager",
          "type": "address"
        }
      ],
      "stateMutability": "nonpayable",
      "type": "constructor"
    },
    {
      "inputs": [],
      "name": "DefiBets_NoValidParamters",
      "type": "error"
    },
    {
      "inputs": [],
      "name": "DefiBets__AlreadyInitialized",
      "type": "error"
    },
    {
      "inputs": [],
      "name": "DefiBets__Forbidden",
      "type": "error"
    },
    {
      "inputs": [],
      "name": "DefiBets__NoValidExpTime",
      "type": "error"
    },
    {
      "inputs": [],
      "name": "DefiBets__NoValidPrice",
      "type": "error"
    },
    {
      "inputs": [],
      "name": "DefiBets__NoValidWinningPrice",
      "type": "error"
    },
    {
      "inputs": [],
      "name": "DefiBets__NotActive",
      "type": "error"
    },
    {
      "inputs": [],
      "name": "DefiBets__NotEpxired",
      "type": "error"
    },
    {
      "inputs": [],
      "name": "DefiBets__NotExecutableTime",
      "type": "error"
    },
    {
      "inputs": [],
      "name": "DefiBets__NotTheTokenOwner",
      "type": "error"
    },
    {
      "inputs": [],
      "name": "DefiBets__OutOfActiveExpTimeRange",
      "type": "error"
    },
    {
      "inputs": [],
      "name": "DefiBets__ParameterNotInitialized",
      "type": "error"
    },
    {
      "inputs": [],
      "name": "DefiBets__TokenDontExists",
      "type": "error"
    },
    {
      "anonymous": false,
      "inputs": [
        {
          "indexed": true,
          "internalType": "address",
          "name": "owner",
          "type": "address"
        },
        {
          "indexed": true,
          "internalType": "address",
          "name": "approved",
          "type": "address"
        },
        {
          "indexed": true,
          "internalType": "uint256",
          "name": "tokenId",
          "type": "uint256"
        }
      ],
      "name": "Approval",
      "type": "event"
    },
    {
      "anonymous": false,
      "inputs": [
        {
          "indexed": true,
          "internalType": "address",
          "name": "owner",
          "type": "address"
        },
        {
          "indexed": true,
          "internalType": "address",
          "name": "operator",
          "type": "address"
        },
        {
          "indexed": false,
          "internalType": "bool",
          "name": "approved",
          "type": "bool"
        }
      ],
      "name": "ApprovalForAll",
      "type": "event"
    },
    {
      "anonymous": false,
      "inputs": [
        {
          "indexed": false,
          "internalType": "uint256",
          "name": "minBetDuration",
          "type": "uint256"
        },
        {
          "indexed": false,
          "internalType": "uint256",
          "name": "maxBetDuration",
          "type": "uint256"
        },
        {
          "indexed": false,
          "internalType": "uint256",
          "name": "slot",
          "type": "uint256"
        }
      ],
      "name": "BetParameterUpdated",
      "type": "event"
    },
    {
      "anonymous": false,
      "inputs": [
        {
          "indexed": true,
          "internalType": "address",
          "name": "account",
          "type": "address"
        },
        {
          "indexed": false,
          "internalType": "uint256",
          "name": "betSize",
          "type": "uint256"
        },
        {
          "indexed": false,
          "internalType": "uint256",
          "name": "profit",
          "type": "uint256"
        },
        {
          "indexed": false,
          "internalType": "uint256",
          "name": "expDate",
          "type": "uint256"
        },
        {
          "indexed": false,
          "internalType": "uint256",
          "name": "minPrice",
          "type": "uint256"
        },
        {
          "indexed": false,
          "internalType": "uint256",
          "name": "maxPrice",
          "type": "uint256"
        }
      ],
      "name": "BetPlaced",
      "type": "event"
    },
    {
      "anonymous": false,
      "inputs": [
        {
          "indexed": false,
          "internalType": "uint256",
          "name": "expTime",
          "type": "uint256"
        },
        {
          "indexed": false,
          "internalType": "uint256",
          "name": "maxLpLoss",
          "type": "uint256"
        }
      ],
      "name": "EpxirationTimeCreated",
      "type": "event"
    },
    {
      "anonymous": false,
      "inputs": [
        {
          "indexed": false,
          "internalType": "uint256",
          "name": "expTime",
          "type": "uint256"
        },
        {
          "indexed": false,
          "internalType": "bool",
          "name": "profit",
          "type": "bool"
        },
        {
          "indexed": false,
          "internalType": "uint256",
          "name": "delta",
          "type": "uint256"
        }
      ],
      "name": "Expiration",
      "type": "event"
    },
    {
      "anonymous": false,
      "inputs": [
        {
          "indexed": false,
          "internalType": "uint256",
          "name": "expirationDate",
          "type": "uint256"
        },
        {
          "indexed": false,
          "internalType": "uint256",
          "name": "totalBets",
          "type": "uint256"
        },
        {
          "indexed": false,
          "internalType": "uint256",
          "name": "maxUserWinnings",
          "type": "uint256"
        }
      ],
      "name": "ExpiryTimeBetInfoUpdated",
      "type": "event"
    },
    {
      "anonymous": false,
      "inputs": [
        {
          "indexed": true,
          "internalType": "address",
          "name": "previousOwner",
          "type": "address"
        },
        {
          "indexed": true,
          "internalType": "address",
          "name": "newOwner",
          "type": "address"
        }
      ],
      "name": "OwnershipTransferred",
      "type": "event"
    },
    {
      "anonymous": false,
      "inputs": [
        {
          "indexed": true,
          "internalType": "address",
          "name": "from",
          "type": "address"
        },
        {
          "indexed": true,
          "internalType": "address",
          "name": "to",
          "type": "address"
        },
        {
          "indexed": true,
          "internalType": "uint256",
          "name": "tokenId",
          "type": "uint256"
        }
      ],
      "name": "Transfer",
      "type": "event"
    },
    {
      "inputs": [
        {
          "internalType": "address",
          "name": "to",
          "type": "address"
        },
        {
          "internalType": "uint256",
          "name": "tokenId",
          "type": "uint256"
        }
      ],
      "name": "approve",
      "outputs": [],
      "stateMutability": "nonpayable",
      "type": "function"
    },
    {
      "inputs": [
        {
          "internalType": "address",
          "name": "owner",
          "type": "address"
        }
      ],
      "name": "balanceOf",
      "outputs": [
        {
          "internalType": "uint256",
          "name": "",
          "type": "uint256"
        }
      ],
      "stateMutability": "view",
      "type": "function"
    },
    {
      "inputs": [
        {
          "internalType": "uint256",
          "name": "",
          "type": "uint256"
        },
        {
          "internalType": "uint256",
          "name": "",
          "type": "uint256"
        }
      ],
      "name": "betsWinningSlots",
      "outputs": [
        {
          "internalType": "uint256",
          "name": "",
          "type": "uint256"
        }
      ],
      "stateMutability": "view",
      "type": "function"
    },
    {
      "inputs": [
        {
          "internalType": "uint256",
          "name": "_maxUserWinnings",
          "type": "uint256"
        },
        {
          "internalType": "uint256",
          "name": "_totalBets",
          "type": "uint256"
        }
      ],
      "name": "calculateMaxLPLoss",
      "outputs": [
        {
          "internalType": "uint256",
          "name": "",
          "type": "uint256"
        }
      ],
      "stateMutability": "pure",
      "type": "function"
    },
    {
      "inputs": [
        {
          "internalType": "uint256",
          "name": "_expTime",
          "type": "uint256"
        },
        {
          "internalType": "uint256",
          "name": "_minPrice",
          "type": "uint256"
        },
        {
          "internalType": "uint256",
          "name": "_maxPrice",
          "type": "uint256"
        },
        {
          "internalType": "uint256",
          "name": "_winning",
          "type": "uint256"
        }
      ],
      "name": "calculateMaxUserWinnings",
      "outputs": [
        {
          "internalType": "uint256",
          "name": "",
          "type": "uint256"
        }
      ],
      "stateMutability": "view",
      "type": "function"
    },
    {
      "inputs": [
        {
          "internalType": "address",
          "name": "_account",
          "type": "address"
        },
        {
          "internalType": "uint256",
          "name": "_tokenId",
          "type": "uint256"
        }
      ],
      "name": "claimForAccount",
      "outputs": [
        {
          "internalType": "uint256",
          "name": "",
          "type": "uint256"
        },
        {
          "internalType": "uint256",
          "name": "",
          "type": "uint256"
        },
        {
          "internalType": "bool",
          "name": "",
          "type": "bool"
        }
      ],
      "stateMutability": "nonpayable",
      "type": "function"
    },
    {
      "inputs": [],
      "name": "defiBetsManager",
      "outputs": [
        {
          "internalType": "address",
          "name": "",
          "type": "address"
        }
      ],
      "stateMutability": "view",
      "type": "function"
    },
    {
      "inputs": [
        {
          "internalType": "uint256",
          "name": "",
          "type": "uint256"
        }
      ],
      "name": "expTimeInfos",
      "outputs": [
        {
          "internalType": "uint256",
          "name": "maxUserWinning",
          "type": "uint256"
        },
        {
          "internalType": "uint256",
          "name": "totalBets",
          "type": "uint256"
        },
        {
          "internalType": "uint256",
          "name": "maxLossLimit",
          "type": "uint256"
        },
        {
          "internalType": "uint256",
          "name": "expPrice",
          "type": "uint256"
        },
        {
          "internalType": "uint256",
          "name": "deltaValue",
          "type": "uint256"
        },
        {
          "internalType": "uint256",
          "name": "slotSize",
          "type": "uint256"
        },
        {
          "internalType": "bool",
          "name": "finished",
          "type": "bool"
        },
        {
          "internalType": "bool",
          "name": "profit",
          "type": "bool"
        },
        {
          "internalType": "bool",
          "name": "init",
          "type": "bool"
        }
      ],
      "stateMutability": "view",
      "type": "function"
    },
    {
      "inputs": [
        {
          "internalType": "uint256",
          "name": "tokenId",
          "type": "uint256"
        }
      ],
      "name": "getApproved",
      "outputs": [
        {
          "internalType": "address",
          "name": "",
          "type": "address"
        }
      ],
      "stateMutability": "view",
      "type": "function"
    },
    {
      "inputs": [
        {
          "internalType": "uint256",
          "name": "_tokenId",
          "type": "uint256"
        }
      ],
      "name": "getBetTokenData",
      "outputs": [
        {
          "components": [
            {
              "internalType": "uint256",
              "name": "expTime",
              "type": "uint256"
            },
            {
              "internalType": "uint256",
              "name": "betSize",
              "type": "uint256"
            },
            {
              "internalType": "uint256",
              "name": "profit",
              "type": "uint256"
            },
            {
              "internalType": "uint256",
              "name": "minPrice",
              "type": "uint256"
            },
            {
              "internalType": "uint256",
              "name": "maxPrice",
              "type": "uint256"
            }
          ],
          "internalType": "struct DefiBets.Bet",
          "name": "",
          "type": "tuple"
        }
      ],
      "stateMutability": "view",
      "type": "function"
    },
    {
      "inputs": [],
      "name": "getDependentExpTime",
      "outputs": [
        {
          "internalType": "uint256",
          "name": "",
          "type": "uint256"
        }
      ],
      "stateMutability": "view",
      "type": "function"
    },
    {
      "inputs": [
        {
          "internalType": "uint256",
          "name": "_dependentTimeStamp",
          "type": "uint256"
        },
        {
          "internalType": "uint256",
          "name": "_maxLossPerExpTime",
          "type": "uint256"
        },
        {
          "internalType": "uint256",
          "name": "_minBetDuration",
          "type": "uint256"
        },
        {
          "internalType": "uint256",
          "name": "_maxBetDuration",
          "type": "uint256"
        },
        {
          "internalType": "uint256",
          "name": "_slot",
          "type": "uint256"
        },
        {
          "internalType": "uint256",
          "name": "_maxWinMultiplier",
          "type": "uint256"
        }
      ],
      "name": "initializeData",
      "outputs": [],
      "stateMutability": "nonpayable",
      "type": "function"
    },
    {
      "inputs": [
        {
          "internalType": "uint256",
          "name": "_maxLpLoss",
          "type": "uint256"
        }
      ],
      "name": "initializeNewExpTime",
      "outputs": [],
      "stateMutability": "nonpayable",
      "type": "function"
    },
    {
      "inputs": [],
      "name": "isActive",
      "outputs": [
        {
          "internalType": "bool",
          "name": "",
          "type": "bool"
        }
      ],
      "stateMutability": "view",
      "type": "function"
    },
    {
      "inputs": [
        {
          "internalType": "address",
          "name": "owner",
          "type": "address"
        },
        {
          "internalType": "address",
          "name": "operator",
          "type": "address"
        }
      ],
      "name": "isApprovedForAll",
      "outputs": [
        {
          "internalType": "bool",
          "name": "",
          "type": "bool"
        }
      ],
      "stateMutability": "view",
      "type": "function"
    },
    {
      "inputs": [],
      "name": "lastActiveExpTime",
      "outputs": [
        {
          "internalType": "uint256",
          "name": "",
          "type": "uint256"
        }
      ],
      "stateMutability": "view",
      "type": "function"
    },
    {
      "inputs": [],
      "name": "maxBetDuration",
      "outputs": [
        {
          "internalType": "uint256",
          "name": "",
          "type": "uint256"
        }
      ],
      "stateMutability": "view",
      "type": "function"
    },
    {
      "inputs": [],
      "name": "maxWinMultiplier",
      "outputs": [
        {
          "internalType": "uint256",
          "name": "",
          "type": "uint256"
        }
      ],
      "stateMutability": "view",
      "type": "function"
    },
    {
      "inputs": [],
      "name": "minBetDuration",
      "outputs": [
        {
          "internalType": "uint256",
          "name": "",
          "type": "uint256"
        }
      ],
      "stateMutability": "view",
      "type": "function"
    },
    {
      "inputs": [],
      "name": "name",
      "outputs": [
        {
          "internalType": "string",
          "name": "",
          "type": "string"
        }
      ],
      "stateMutability": "view",
      "type": "function"
    },
    {
      "inputs": [],
      "name": "owner",
      "outputs": [
        {
          "internalType": "address",
          "name": "",
          "type": "address"
        }
      ],
      "stateMutability": "view",
      "type": "function"
    },
    {
      "inputs": [
        {
          "internalType": "uint256",
          "name": "tokenId",
          "type": "uint256"
        }
      ],
      "name": "ownerOf",
      "outputs": [
        {
          "internalType": "address",
          "name": "",
          "type": "address"
        }
      ],
      "stateMutability": "view",
      "type": "function"
    },
    {
      "inputs": [
        {
          "internalType": "uint256",
          "name": "_expTime",
          "type": "uint256"
        },
        {
          "internalType": "uint256",
          "name": "_expPrice",
          "type": "uint256"
        }
      ],
      "name": "performExpiration",
      "outputs": [
        {
          "internalType": "uint256",
          "name": "",
          "type": "uint256"
        },
        {
          "internalType": "bool",
          "name": "",
          "type": "bool"
        },
        {
          "internalType": "uint256",
          "name": "",
          "type": "uint256"
        }
      ],
      "stateMutability": "nonpayable",
      "type": "function"
    },
    {
      "inputs": [],
      "name": "renounceOwnership",
      "outputs": [],
      "stateMutability": "nonpayable",
      "type": "function"
    },
    {
      "inputs": [
        {
          "internalType": "address",
          "name": "from",
          "type": "address"
        },
        {
          "internalType": "address",
          "name": "to",
          "type": "address"
        },
        {
          "internalType": "uint256",
          "name": "tokenId",
          "type": "uint256"
        }
      ],
      "name": "safeTransferFrom",
      "outputs": [],
      "stateMutability": "nonpayable",
      "type": "function"
    },
    {
      "inputs": [
        {
          "internalType": "address",
          "name": "from",
          "type": "address"
        },
        {
          "internalType": "address",
          "name": "to",
          "type": "address"
        },
        {
          "internalType": "uint256",
          "name": "tokenId",
          "type": "uint256"
        },
        {
          "internalType": "bytes",
          "name": "data",
          "type": "bytes"
        }
      ],
      "name": "safeTransferFrom",
      "outputs": [],
      "stateMutability": "nonpayable",
      "type": "function"
    },
    {
      "inputs": [
        {
          "internalType": "address",
          "name": "operator",
          "type": "address"
        },
        {
          "internalType": "bool",
          "name": "approved",
          "type": "bool"
        }
      ],
      "name": "setApprovalForAll",
      "outputs": [],
      "stateMutability": "nonpayable",
      "type": "function"
    },
    {
      "inputs": [
        {
          "internalType": "address",
          "name": "_account",
          "type": "address"
        },
        {
          "internalType": "uint256",
          "name": "_betSize",
          "type": "uint256"
        },
        {
          "internalType": "uint256",
          "name": "_minPrice",
          "type": "uint256"
        },
        {
          "internalType": "uint256",
          "name": "_maxPrice",
          "type": "uint256"
        },
        {
          "internalType": "uint256",
          "name": "_expTime",
          "type": "uint256"
        },
        {
          "internalType": "uint256",
          "name": "_winning",
          "type": "uint256"
        }
      ],
      "name": "setBetForAccount",
      "outputs": [
        {
          "internalType": "uint256",
          "name": "",
          "type": "uint256"
        },
        {
          "internalType": "bool",
          "name": "",
          "type": "bool"
        }
      ],
      "stateMutability": "nonpayable",
      "type": "function"
    },
    {
      "inputs": [
        {
          "internalType": "uint256",
          "name": "_maxLossPerExpTime",
          "type": "uint256"
        },
        {
          "internalType": "uint256",
          "name": "_minBetDuration",
          "type": "uint256"
        },
        {
          "internalType": "uint256",
          "name": "_maxBetDuration",
          "type": "uint256"
        },
        {
          "internalType": "uint256",
          "name": "_slot",
          "type": "uint256"
        },
        {
          "internalType": "uint256",
          "name": "_maxWinMultiplier",
          "type": "uint256"
        },
        {
          "internalType": "uint256",
          "name": "_timeDelta",
          "type": "uint256"
        },
        {
          "internalType": "uint256",
          "name": "_dependentTimeStamp",
          "type": "uint256"
        }
      ],
      "name": "setBetParamater",
      "outputs": [],
      "stateMutability": "nonpayable",
      "type": "function"
    },
    {
      "inputs": [],
      "name": "slot",
      "outputs": [
        {
          "internalType": "uint256",
          "name": "",
          "type": "uint256"
        }
      ],
      "stateMutability": "view",
      "type": "function"
    },
    {
      "inputs": [],
      "name": "stop",
      "outputs": [],
      "stateMutability": "nonpayable",
      "type": "function"
    },
    {
      "inputs": [
        {
          "internalType": "bytes4",
          "name": "interfaceId",
          "type": "bytes4"
        }
      ],
      "name": "supportsInterface",
      "outputs": [
        {
          "internalType": "bool",
          "name": "",
          "type": "bool"
        }
      ],
      "stateMutability": "view",
      "type": "function"
    },
    {
      "inputs": [],
      "name": "symbol",
      "outputs": [
        {
          "internalType": "string",
          "name": "",
          "type": "string"
        }
      ],
      "stateMutability": "view",
      "type": "function"
    },
    {
      "inputs": [],
      "name": "timeDelta",
      "outputs": [
        {
          "internalType": "uint256",
          "name": "",
          "type": "uint256"
        }
      ],
      "stateMutability": "view",
      "type": "function"
    },
    {
      "inputs": [
        {
          "internalType": "uint256",
          "name": "tokenId",
          "type": "uint256"
        }
      ],
      "name": "tokenURI",
      "outputs": [
        {
          "internalType": "string",
          "name": "",
          "type": "string"
        }
      ],
      "stateMutability": "view",
      "type": "function"
    },
    {
      "inputs": [
        {
          "internalType": "address",
          "name": "from",
          "type": "address"
        },
        {
          "internalType": "address",
          "name": "to",
          "type": "address"
        },
        {
          "internalType": "uint256",
          "name": "tokenId",
          "type": "uint256"
        }
      ],
      "name": "transferFrom",
      "outputs": [],
      "stateMutability": "nonpayable",
      "type": "function"
    },
    {
      "inputs": [
        {
          "internalType": "address",
          "name": "newOwner",
          "type": "address"
        }
      ],
      "name": "transferOwnership",
      "outputs": [],
      "stateMutability": "nonpayable",
      "type": "function"
    },
    {
      "inputs": [],
      "name": "underlying",
      "outputs": [
        {
          "internalType": "string",
          "name": "",
          "type": "string"
        }
      ],
      "stateMutability": "view",
      "type": "function"
    }
  ],
  "transactionHash": "0xde5323966c3d1369ab0ed1e3f05dc108e5b79079ac8b88e231a522ecde52dfcb",
  "args": [
    "BTC",
    "0xCED0d1b34D61c03C0eF62C4b6056F77564620Fae"
  ],
  "numDeployments": 1,
  "solcInputHash": "e5ae93e129a91e5c29f8066dfe1f0c71",
  "bytecode": "0x60806040523480156200001157600080fd5b5060405162002de338038062002de3833981016040819052620000349162000185565b6040518060400160405280600d81526020016c2232b334a132ba39aa37b5b2b760991b81525060405180604001604052806002815260200161222160f11b8152508160009081620000869190620002fc565b506001620000958282620002fc565b505050620000b2620000ac620000fc60201b60201c565b62000100565b6008620000c08382620002fc565b50601680546001600160a01b0319166001600160a01b039290921691909117905550600f805460ff1916600117905562015180600e55620003c8565b3390565b600680546001600160a01b038381166001600160a01b0319831681179093556040519116919082907f8be0079c531659141344cd1fd0a4f28419497f9722a3daafe3b4186f6b6457e090600090a35050565b634e487b7160e01b600052604160045260246000fd5b80516001600160a01b03811681146200018057600080fd5b919050565b600080604083850312156200019957600080fd5b82516001600160401b0380821115620001b157600080fd5b818501915085601f830112620001c657600080fd5b815181811115620001db57620001db62000152565b604051601f8201601f19908116603f0116810190838211818310171562000206576200020662000152565b816040528281526020935088848487010111156200022357600080fd5b600091505b8282101562000247578482018401518183018501529083019062000228565b60008484830101528096505050506200026281860162000168565b925050509250929050565b600181811c908216806200028257607f821691505b602082108103620002a357634e487b7160e01b600052602260045260246000fd5b50919050565b601f821115620002f757600081815260208120601f850160051c81016020861015620002d25750805b601f850160051c820191505b81811015620002f357828155600101620002de565b5050505b505050565b81516001600160401b0381111562000318576200031862000152565b62000330816200032984546200026d565b84620002a9565b602080601f8311600181146200036857600084156200034f5750858301515b600019600386901b1c1916600185901b178555620002f3565b600085815260208120601f198616915b82811015620003995788860151825594840194600190910190840162000378565b5085821015620003b85787850151600019600388901b60f8161c191681555b5050505050600190811b01905550565b612a0b80620003d86000396000f3fe608060405234801561001057600080fd5b50600436106102925760003560e01c8063715018a611610160578063b77ff87b116100d8578063cf252f3b1161008c578063deab98fe11610071578063deab98fe1461063d578063e985e9c514610646578063f2fde38b1461068257600080fd5b8063cf252f3b14610622578063d57c6e6a1461063557600080fd5b8063c4f63578116100bd578063c4f6357814610551578063c87b56dd146105fc578063c99b407a1461060f57600080fd5b8063b77ff87b1461052b578063b88d4fde1461053e57600080fd5b80638da5cb5b1161012f57806395e8bb231161011457806395e8bb23146104df578063a22cb465146104e8578063b5a57ec0146104fb57600080fd5b80638da5cb5b146104c657806395d89b41146104d757600080fd5b8063715018a614610455578063730cb6511461045d5780637b5d7eb714610485578063847e44a8146104b357600080fd5b806323b872dd1161020e57806342a481d8116101c25780636352211e116101a75780636352211e146104275780636f307dc31461043a57806370a082311461044257600080fd5b806342a481d814610401578063544f4ac81461041457600080fd5b80632dc3ceeb116101f35780632dc3ceeb146103ba578063383121fc146103e557806342842e0e146103ee57600080fd5b806323b872dd1461039e57806329f0725e146103b157600080fd5b8063095ea7b3116102655780631a88bc661161024a5780631a88bc66146103335780631bc28aa71461033c57806322f3e2d41461039157600080fd5b8063095ea7b3146103095780630a1d46ac1461031c57600080fd5b806301ffc9a71461029757806306fdde03146102bf57806307da68f5146102d4578063081812fc146102de575b600080fd5b6102aa6102a5366004612481565b610695565b60405190151581526020015b60405180910390f35b6102c76106e7565b6040516102b691906124ee565b6102dc610779565b005b6102f16102ec366004612501565b61078d565b6040516001600160a01b0390911681526020016102b6565b6102dc610317366004612536565b6107b4565b610325600a5481565b6040519081526020016102b6565b610325600c5481565b61034f61034a366004612501565b6108ce565b6040516102b69190600060a082019050825182526020830151602083015260408301516040830152606083015160608301526080830151608083015292915050565b600f546102aa9060ff1681565b6102dc6103ac366004612560565b61098b565b61032560115481565b6103256103c836600461259c565b601560209081526000928352604080842090915290825290205481565b610325600d5481565b6102dc6103fc366004612560565b610a02565b6102dc61040f3660046125be565b610a1d565b6102dc61042236600461260a565b610abc565b6102f1610435366004612501565b610b0f565b6102c7610b74565b61032561045036600461264d565b610c02565b6102dc610c9c565b61047061046b366004612668565b610cb0565b604080519283529015156020830152016102b6565b61049861049336600461259c565b610e36565b604080519384529115156020840152908201526060016102b6565b6016546102f1906001600160a01b031681565b6006546001600160a01b03166102f1565b6102c7610f20565b610325600e5481565b6102dc6104f63660046126b2565b610f2f565b61050e610509366004612536565b610f3e565b6040805193845260208401929092521515908201526060016102b6565b6103256105393660046126ee565b61108b565b6102dc61054c366004612736565b611139565b6105b261055f366004612501565b6013602052600090815260409020805460018201546002830154600384015460048501546005860154600690960154949593949293919290919060ff808216916101008104821691620100009091041689565b60408051998a5260208a0198909852968801959095526060870193909352608086019190915260a0850152151560c0840152151560e08301521515610100820152610120016102b6565b6102c761060a366004612501565b6111b7565b6102dc61061d366004612501565b61122b565b61032561063036600461259c565b6112aa565b601054610325565b610325600b5481565b6102aa610654366004612812565b6001600160a01b03918216600090815260056020908152604080832093909416825291909152205460ff1690565b6102dc61069036600461264d565b6112ce565b60006001600160e01b031982166380ac58cd60e01b14806106c657506001600160e01b03198216635b5e139f60e01b145b806106e157506301ffc9a760e01b6001600160e01b03198316145b92915050565b6060600080546106f690612845565b80601f016020809104026020016040519081016040528092919081815260200182805461072290612845565b801561076f5780601f106107445761010080835404028352916020019161076f565b820191906000526020600020905b81548152906001019060200180831161075257829003601f168201915b5050505050905090565b61078161135e565b600f805460ff19169055565b6000610798826113b8565b506000908152600460205260409020546001600160a01b031690565b60006107bf82610b0f565b9050806001600160a01b0316836001600160a01b0316036108315760405162461bcd60e51b815260206004820152602160248201527f4552433732313a20617070726f76616c20746f2063757272656e74206f776e656044820152603960f91b60648201526084015b60405180910390fd5b336001600160a01b038216148061084d575061084d8133610654565b6108bf5760405162461bcd60e51b815260206004820152603d60248201527f4552433732313a20617070726f76652063616c6c6572206973206e6f7420746f60448201527f6b656e206f776e6572206f7220617070726f76656420666f7220616c6c0000006064820152608401610828565b6108c9838361141c565b505050565b6109006040518060a0016040528060008152602001600081526020016000815260200160008152602001600081525090565b6000828152600260205260409020546001600160a01b03161515151560011461093c57604051633f191cd360e11b815260040160405180910390fd5b50600090815260146020908152604091829020825160a0810184528154815260018201549281019290925260028101549282019290925260038201546060820152600490910154608082015290565b610995338261148a565b6109f75760405162461bcd60e51b815260206004820152602d60248201527f4552433732313a2063616c6c6572206973206e6f7420746f6b656e206f776e6560448201526c1c881bdc88185c1c1c9bdd9959609a1b6064820152608401610828565b6108c9838383611508565b6108c983838360405180602001604052806000815250611139565b610a256116f5565b848610610a455760405163035eccb560e21b815260040160405180910390fd5b600a869055600b859055600c849055600d839055600e8290556010819055610a6c87611720565b600a54600b54600c5460408051938452602084019290925282820152517f0c382aed33dbcfae94a979417bb06063b09ecb1827dae9a55a252066bd91f7709181900360600190a150505050505050565b610ac46116f5565b60095460ff1615610ae85760405163c8c4f53960e01b815260040160405180910390fd5b610afa8585858585620151808c610a1d565b50506009805460ff1916600117905550505050565b6000818152600260205260408120546001600160a01b0316806106e15760405162461bcd60e51b815260206004820152601860248201527f4552433732313a20696e76616c696420746f6b656e20494400000000000000006044820152606401610828565b60088054610b8190612845565b80601f0160208091040260200160405190810160405280929190818152602001828054610bad90612845565b8015610bfa5780601f10610bcf57610100808354040283529160200191610bfa565b820191906000526020600020905b815481529060010190602001808311610bdd57829003601f168201915b505050505081565b60006001600160a01b038216610c805760405162461bcd60e51b815260206004820152602960248201527f4552433732313a2061646472657373207a65726f206973206e6f74206120766160448201527f6c6964206f776e657200000000000000000000000000000000000000000000006064820152608401610828565b506001600160a01b031660009081526003602052604090205490565b610ca461135e565b610cae60006117b0565b565b600080610cbb6116f5565b610cc3611802565b610ccc8461182a565b610cd584611867565b610cdf86866118ac565b60008481526013602052604081208054600190910154610cff91906112aa565b90506000610d0f8689898861108b565b60008781526013602052604081206001015491925090610d35908390610630908d6118fa565b90506000610d5a8483601360008c815260200190815260200160002060020154611906565b9050801515600003610d7f57604051633d327ce960e01b815260040160405180910390fd5b610d8a88848d6119f7565b610d988c898d8a8e8e611a74565b610da48a8a898b611b1a565b604080518c815260208101899052908101899052606081018b9052608081018a90526001600160a01b038d16907fce4169502e4ec788f06e096a7c876ac9e3c1102bdc6cb2089a3b41e0a7f594509060a00160405180910390a2818411610e1657610e0f8285611bbd565b6001610e23565b610e208285611bbd565b60005b9550955050505050965096945050505050565b6000806000610e436116f5565b610e4b611802565b610e548561182a565b42851115610e75576040516350348d9960e11b815260040160405180910390fd5b6000806000610e848888611bc9565b60008b815260136020526040908190206004810185905560068101805460ff19861515610100021661ffff199091161760011790556003018b90555192955090935091507f244fde768f62374a3fc7dd5fe2ec92d74f3ed5062a5effd497671b17609f4a8990610f0a908a90859087909283529015156020830152604082015260600190565b60405180910390a1919450925090509250925092565b6060600180546106f690612845565b610f3a338383611c87565b5050565b6000806000610f4b6116f5565b6000610f56856108ce565b805160009081526013602090815260409182902082516101208101845281548152600180830154938201939093526002820154938101939093526003810154606084015260048101546080840152600581015460a08401526006015460ff808216151560c085018190526101008084048316151560e08701526201000090930490911615159184019190915292935090911461100557604051634fb5b58360e01b815260040160405180910390fd5b866001600160a01b031661101887610b0f565b6001600160a01b03161461103f57604051636b46b10d60e11b815260040160405180910390fd5b6000808360600151836060015110158015611061575083608001518360600151105b15611070575050604082015160015b61107988611d55565b92519095509350909150509250925092565b600084815260136020526040812054600c5482906110b3906110ad8789611bbd565b90611df8565b905060005b81811161112b5760006110e06110d9600c5484611e0490919063ffffffff16565b89906118fa565b60008a81526015602090815260408083208484529091528120549192509061110890886118fa565b905080851015611116578094505b5050808061112390612895565b9150506110b8565b50909150505b949350505050565b611143338361148a565b6111a55760405162461bcd60e51b815260206004820152602d60248201527f4552433732313a2063616c6c6572206973206e6f7420746f6b656e206f776e6560448201526c1c881bdc88185c1c1c9bdd9959609a1b6064820152608401610828565b6111b184848484611e10565b50505050565b60606111c2826113b8565b60006111d960408051602081019091526000815290565b905060008151116111f95760405180602001604052806000815250611224565b8061120384611e99565b6040516020016112149291906128ae565b6040516020818303038152906040525b9392505050565b6112336116f5565b61123b611f39565b611243611f60565b60006011546010541161126457600e5460115461125f916118fa565b611273565b600e54601054611273916118fa565b6000818152601360205260408120600601549192506201000090910460ff1615159003610f3a576112a48183611f90565b60115550565b6000818311156112c5576112be8383611bbd565b90506106e1565b50600092915050565b6112d661135e565b6001600160a01b0381166113525760405162461bcd60e51b815260206004820152602660248201527f4f776e61626c653a206e6577206f776e657220697320746865207a65726f206160448201527f64647265737300000000000000000000000000000000000000000000000000006064820152608401610828565b61135b816117b0565b50565b6006546001600160a01b03163314610cae5760405162461bcd60e51b815260206004820181905260248201527f4f776e61626c653a2063616c6c6572206973206e6f7420746865206f776e65726044820152606401610828565b6000818152600260205260409020546001600160a01b031661135b5760405162461bcd60e51b815260206004820152601860248201527f4552433732313a20696e76616c696420746f6b656e20494400000000000000006044820152606401610828565b600081815260046020526040902080546001600160a01b0319166001600160a01b038416908117909155819061145182610b0f565b6001600160a01b03167f8c5be1e5ebec7d5bd14f71427d1e84f3dd0314c0f7b2291e5b200ac8c7c3b92560405160405180910390a45050565b60008061149683610b0f565b9050806001600160a01b0316846001600160a01b031614806114dd57506001600160a01b0380821660009081526005602090815260408083209388168352929052205460ff165b806111315750836001600160a01b03166114f68461078d565b6001600160a01b031614949350505050565b826001600160a01b031661151b82610b0f565b6001600160a01b03161461157f5760405162461bcd60e51b815260206004820152602560248201527f4552433732313a207472616e736665722066726f6d20696e636f72726563742060448201526437bbb732b960d91b6064820152608401610828565b6001600160a01b0382166115e15760405162461bcd60e51b8152602060048201526024808201527f4552433732313a207472616e7366657220746f20746865207a65726f206164646044820152637265737360e01b6064820152608401610828565b6115ee8383836001612008565b826001600160a01b031661160182610b0f565b6001600160a01b0316146116655760405162461bcd60e51b815260206004820152602560248201527f4552433732313a207472616e736665722066726f6d20696e636f72726563742060448201526437bbb732b960d91b6064820152608401610828565b600081815260046020908152604080832080546001600160a01b03199081169091556001600160a01b0387811680865260038552838620805460001901905590871680865283862080546001019055868652600290945282852080549092168417909155905184937fddf252ad1be2c89b69c2b068fc378daa952ba7f163c4a11628f55a4df523b3ef91a4505050565b6016546001600160a01b03163314610cae576040516337637c4b60e11b815260040160405180910390fd5b600061173f600e546110ad600a54600b54611bbd90919063ffffffff16565b905060005b8181101561178e57600061176f61176683600e54611e0490919063ffffffff16565b601054906118fa565b905061177b8185611f90565b508061178681612895565b915050611744565b506117a96117666117a0836001611bbd565b600e5490611e04565b6011555050565b600680546001600160a01b038381166001600160a01b0319831681179093556040519116919082907f8be0079c531659141344cd1fd0a4f28419497f9722a3daafe3b4186f6b6457e090600090a35050565b60095460ff161515600114610cae5760405163a4ca20e760e01b815260040160405180910390fd5b60008181526013602052604090206006015462010000900460ff16151560011461135b5760405163069b0e6f60e11b815260040160405180910390fd5b600a546118759042906118fa565b81108061188e5750600b5461188b9042906118fa565b81115b1561135b57604051637440fc5760e11b815260040160405180910390fd5b600c546118b990836128f3565b1515806118d15750600c546118ce90826128f3565b15155b806118dc5750808210155b15610f3a576040516393dff19360e01b815260040160405180910390fd5b60006112248284612907565b6000806000601660009054906101000a90046001600160a01b03166001600160a01b0316639e1055696040518163ffffffff1660e01b81526004016040805180830381865afa15801561195d573d6000803e3d6000fd5b505050506040513d601f19601f82011682018060405250810190611981919061291a565b90925090506000611999620f42406110ad8588611e04565b9050808611156119af5760009350505050611224565b60008787116119bf5760006119c9565b6119c98789611bbd565b90506119d58484611bbd565b8111156119e9576000945050505050611224565b506001979650505050505050565b6000838152601360205260409020600181015490839055611a1881836118fa565b60008581526013602090815260409182902060010183905581518781529081019290925281018490527f682f3f48ff66f01db3029ced37bc0d4b5c656a4aadd4f610e3ac4e456ce707369060600160405180910390a150505050565b611a82600780546001019055565b6000611a8d60075490565b9050611a998782612090565b611acb6040518060a0016040528060008152602001600081526020016000815260200160008152602001600081525090565b6020808201968752606082019485526080820193845260408083019687529782526000928352601490529590209451855592516001850155905160028401555160038301555160049091015550565b600c54600090611b2e906110ad8688611bbd565b905060005b81811015611bb5576000611b5c611b55600c5484611e0490919063ffffffff16565b88906118fa565b6000858152601560209081526040808320848452909152902054909150611b8381876118fa565b600086815260156020908152604080832095835294905292909220919091555080611bad81612895565b915050611b33565b505050505050565b6000611224828461293e565b600082815260136020526040812060010154600c5482918291829182918290611bf290896128f3565b600003611c19575060008881526015602090815260408083208a8452909152902054611c55565b6000898152601560205260408120600c54909190611c4390611c3c908c90612229565b8b90611bbd565b81526020019081526020016000205490505b808211925082611c6e57611c698183611bbd565b611c78565b611c788282611bbd565b99929850965090945050505050565b816001600160a01b0316836001600160a01b031603611ce85760405162461bcd60e51b815260206004820152601960248201527f4552433732313a20617070726f766520746f2063616c6c6572000000000000006044820152606401610828565b6001600160a01b03838116600081815260056020908152604080832094871680845294825291829020805460ff191686151590811790915591519182527f17307eab39ab6107e8899845ad3d59bd9653f200f220920489ca2b5937696c31910160405180910390a3505050565b6000611d6082610b0f565b9050611d70816000846001612008565b611d7982610b0f565b600083815260046020908152604080832080546001600160a01b03199081169091556001600160a01b0385168085526003845282852080546000190190558785526002909352818420805490911690555192935084927fddf252ad1be2c89b69c2b068fc378daa952ba7f163c4a11628f55a4df523b3ef908390a45050565b60006112248284612951565b60006112248284612965565b611e1b848484611508565b611e2784848484612235565b6111b15760405162461bcd60e51b815260206004820152603260248201527f4552433732313a207472616e7366657220746f206e6f6e20455243373231526560448201527f63656976657220696d706c656d656e74657200000000000000000000000000006064820152608401610828565b60606000611ea683612389565b600101905060008167ffffffffffffffff811115611ec657611ec6612720565b6040519080825280601f01601f191660200182016040528015611ef0576020820181803683370190505b5090508181016020015b600019017f3031323334353637383961626364656600000000000000000000000000000000600a86061a8153600a8504945084611efa57509392505050565b600f5460ff161515600003610cae576040516296355960e01b815260040160405180910390fd5b6000611f79600e546011546118fa90919063ffffffff16565b905061188b600b54426118fa90919063ffffffff16565b600082815260136020526040908190206002810183905560068101805462ff0000191662010000179055600c54600590910155517fc0cfe220d3ed4f05a97ca643568708f06b250ad2244ef8bfc62d3ad8131ac73990611ffc9084908490918252602082015260400190565b60405180910390a15050565b60018111156111b1576001600160a01b0384161561204e576001600160a01b0384166000908152600360205260408120805483929061204890849061293e565b90915550505b6001600160a01b038316156111b1576001600160a01b03831660009081526003602052604081208054839290612085908490612907565b909155505050505050565b6001600160a01b0382166120e65760405162461bcd60e51b815260206004820181905260248201527f4552433732313a206d696e7420746f20746865207a65726f20616464726573736044820152606401610828565b6000818152600260205260409020546001600160a01b03161561214b5760405162461bcd60e51b815260206004820152601c60248201527f4552433732313a20746f6b656e20616c7265616479206d696e746564000000006044820152606401610828565b612159600083836001612008565b6000818152600260205260409020546001600160a01b0316156121be5760405162461bcd60e51b815260206004820152601c60248201527f4552433732313a20746f6b656e20616c7265616479206d696e746564000000006044820152606401610828565b6001600160a01b038216600081815260036020908152604080832080546001019055848352600290915280822080546001600160a01b0319168417905551839291907fddf252ad1be2c89b69c2b068fc378daa952ba7f163c4a11628f55a4df523b3ef908290a45050565b600061122482846128f3565b60006001600160a01b0384163b1561238157604051630a85bd0160e11b81526001600160a01b0385169063150b7a029061227990339089908890889060040161297c565b6020604051808303816000875af19250505080156122b4575060408051601f3d908101601f191682019092526122b1918101906129b8565b60015b612367573d8080156122e2576040519150601f19603f3d011682016040523d82523d6000602084013e6122e7565b606091505b50805160000361235f5760405162461bcd60e51b815260206004820152603260248201527f4552433732313a207472616e7366657220746f206e6f6e20455243373231526560448201527f63656976657220696d706c656d656e74657200000000000000000000000000006064820152608401610828565b805181602001fd5b6001600160e01b031916630a85bd0160e11b149050611131565b506001611131565b6000807a184f03e93ff9f4daa797ed6e38ed64bf6a1f01000000000000000083106123d2577a184f03e93ff9f4daa797ed6e38ed64bf6a1f010000000000000000830492506040015b6d04ee2d6d415b85acef810000000083106123fe576d04ee2d6d415b85acef8100000000830492506020015b662386f26fc10000831061241c57662386f26fc10000830492506010015b6305f5e1008310612434576305f5e100830492506008015b612710831061244857612710830492506004015b6064831061245a576064830492506002015b600a83106106e15760010192915050565b6001600160e01b03198116811461135b57600080fd5b60006020828403121561249357600080fd5b81356112248161246b565b60005b838110156124b95781810151838201526020016124a1565b50506000910152565b600081518084526124da81602086016020860161249e565b601f01601f19169290920160200192915050565b60208152600061122460208301846124c2565b60006020828403121561251357600080fd5b5035919050565b80356001600160a01b038116811461253157600080fd5b919050565b6000806040838503121561254957600080fd5b6125528361251a565b946020939093013593505050565b60008060006060848603121561257557600080fd5b61257e8461251a565b925061258c6020850161251a565b9150604084013590509250925092565b600080604083850312156125af57600080fd5b50508035926020909101359150565b600080600080600080600060e0888a0312156125d957600080fd5b505085359760208701359750604087013596606081013596506080810135955060a0810135945060c0013592509050565b60008060008060008060c0878903121561262357600080fd5b505084359660208601359650604086013595606081013595506080810135945060a0013592509050565b60006020828403121561265f57600080fd5b6112248261251a565b60008060008060008060c0878903121561268157600080fd5b61268a8761251a565b9860208801359850604088013597606081013597506080810135965060a00135945092505050565b600080604083850312156126c557600080fd5b6126ce8361251a565b9150602083013580151581146126e357600080fd5b809150509250929050565b6000806000806080858703121561270457600080fd5b5050823594602084013594506040840135936060013592509050565b634e487b7160e01b600052604160045260246000fd5b6000806000806080858703121561274c57600080fd5b6127558561251a565b93506127636020860161251a565b925060408501359150606085013567ffffffffffffffff8082111561278757600080fd5b818701915087601f83011261279b57600080fd5b8135818111156127ad576127ad612720565b604051601f8201601f19908116603f011681019083821181831017156127d5576127d5612720565b816040528281528a60208487010111156127ee57600080fd5b82602086016020830137600060208483010152809550505050505092959194509250565b6000806040838503121561282557600080fd5b61282e8361251a565b915061283c6020840161251a565b90509250929050565b600181811c9082168061285957607f821691505b60208210810361287957634e487b7160e01b600052602260045260246000fd5b50919050565b634e487b7160e01b600052601160045260246000fd5b6000600182016128a7576128a761287f565b5060010190565b600083516128c081846020880161249e565b8351908301906128d481836020880161249e565b01949350505050565b634e487b7160e01b600052601260045260246000fd5b600082612902576129026128dd565b500690565b808201808211156106e1576106e161287f565b6000806040838503121561292d57600080fd5b505080516020909101519092909150565b818103818111156106e1576106e161287f565b600082612960576129606128dd565b500490565b80820281158282048414176106e1576106e161287f565b60006001600160a01b038087168352808616602084015250836040830152608060608301526129ae60808301846124c2565b9695505050505050565b6000602082840312156129ca57600080fd5b81516112248161246b56fea2646970667358221220a53dc7b368f824c8b76cf95973442e0c5b80ada6c512d47d42605cf87796f6f964736f6c63430008110033",
  "devdoc": {
    "kind": "dev",
    "methods": {
      "approve(address,uint256)": {
        "details": "See {IERC721-approve}."
      },
      "balanceOf(address)": {
        "details": "See {IERC721-balanceOf}."
      },
      "constructor": {
        "params": {
          "_defiBetsManager": "- the manager and owner of the contract. "
        }
      },
      "getApproved(uint256)": {
        "details": "See {IERC721-getApproved}."
      },
      "isApprovedForAll(address,address)": {
        "details": "See {IERC721-isApprovedForAll}."
      },
      "name()": {
        "details": "See {IERC721Metadata-name}."
      },
      "owner()": {
        "details": "Returns the address of the current owner."
      },
      "ownerOf(uint256)": {
        "details": "See {IERC721-ownerOf}."
      },
      "renounceOwnership()": {
        "details": "Leaves the contract without owner. It will not be possible to call `onlyOwner` functions anymore. Can only be called by the current owner. NOTE: Renouncing ownership will leave the contract without an owner, thereby removing any functionality that is only available to the owner."
      },
      "safeTransferFrom(address,address,uint256)": {
        "details": "See {IERC721-safeTransferFrom}."
      },
      "safeTransferFrom(address,address,uint256,bytes)": {
        "details": "See {IERC721-safeTransferFrom}."
      },
      "setApprovalForAll(address,bool)": {
        "details": "See {IERC721-setApprovalForAll}."
      },
      "supportsInterface(bytes4)": {
        "details": "See {IERC165-supportsInterface}."
      },
      "symbol()": {
        "details": "See {IERC721Metadata-symbol}."
      },
      "tokenURI(uint256)": {
        "details": "See {IERC721Metadata-tokenURI}."
      },
      "transferFrom(address,address,uint256)": {
        "details": "See {IERC721-transferFrom}."
      },
      "transferOwnership(address)": {
        "details": "Transfers ownership of the contract to a new account (`newOwner`). Can only be called by the current owner."
      }
    },
    "version": 1
  },
  "userdoc": {
    "kind": "user",
    "methods": {},
    "version": 1
  },
  "storageLayout": {
    "storage": [
      {
        "astId": 370,
        "contract": "contracts/core/DefiBets.sol:DefiBets",
        "label": "_name",
        "offset": 0,
        "slot": "0",
        "type": "t_string_storage"
      },
      {
        "astId": 372,
        "contract": "contracts/core/DefiBets.sol:DefiBets",
        "label": "_symbol",
        "offset": 0,
        "slot": "1",
        "type": "t_string_storage"
      },
      {
        "astId": 376,
        "contract": "contracts/core/DefiBets.sol:DefiBets",
        "label": "_owners",
        "offset": 0,
        "slot": "2",
        "type": "t_mapping(t_uint256,t_address)"
      },
      {
        "astId": 380,
        "contract": "contracts/core/DefiBets.sol:DefiBets",
        "label": "_balances",
        "offset": 0,
        "slot": "3",
        "type": "t_mapping(t_address,t_uint256)"
      },
      {
        "astId": 384,
        "contract": "contracts/core/DefiBets.sol:DefiBets",
        "label": "_tokenApprovals",
        "offset": 0,
        "slot": "4",
        "type": "t_mapping(t_uint256,t_address)"
      },
      {
        "astId": 390,
        "contract": "contracts/core/DefiBets.sol:DefiBets",
        "label": "_operatorApprovals",
        "offset": 0,
        "slot": "5",
        "type": "t_mapping(t_address,t_mapping(t_address,t_bool))"
      },
      {
        "astId": 53,
        "contract": "contracts/core/DefiBets.sol:DefiBets",
        "label": "_owner",
        "offset": 0,
        "slot": "6",
        "type": "t_address"
      },
      {
        "astId": 3347,
        "contract": "contracts/core/DefiBets.sol:DefiBets",
        "label": "tokenIds",
        "offset": 0,
        "slot": "7",
        "type": "t_struct(Counter)1808_storage"
      },
      {
        "astId": 3349,
        "contract": "contracts/core/DefiBets.sol:DefiBets",
        "label": "underlying",
        "offset": 0,
        "slot": "8",
        "type": "t_string_storage"
      },
      {
        "astId": 3351,
        "contract": "contracts/core/DefiBets.sol:DefiBets",
        "label": "initialized",
        "offset": 0,
        "slot": "9",
        "type": "t_bool"
      },
      {
        "astId": 3353,
        "contract": "contracts/core/DefiBets.sol:DefiBets",
        "label": "minBetDuration",
        "offset": 0,
        "slot": "10",
        "type": "t_uint256"
      },
      {
        "astId": 3355,
        "contract": "contracts/core/DefiBets.sol:DefiBets",
        "label": "maxBetDuration",
        "offset": 0,
        "slot": "11",
        "type": "t_uint256"
      },
      {
        "astId": 3357,
        "contract": "contracts/core/DefiBets.sol:DefiBets",
        "label": "slot",
        "offset": 0,
        "slot": "12",
        "type": "t_uint256"
      },
      {
        "astId": 3359,
        "contract": "contracts/core/DefiBets.sol:DefiBets",
        "label": "maxWinMultiplier",
        "offset": 0,
        "slot": "13",
        "type": "t_uint256"
      },
      {
        "astId": 3361,
        "contract": "contracts/core/DefiBets.sol:DefiBets",
        "label": "timeDelta",
        "offset": 0,
        "slot": "14",
        "type": "t_uint256"
      },
      {
        "astId": 3363,
        "contract": "contracts/core/DefiBets.sol:DefiBets",
        "label": "isActive",
        "offset": 0,
        "slot": "15",
        "type": "t_bool"
      },
      {
        "astId": 3365,
        "contract": "contracts/core/DefiBets.sol:DefiBets",
        "label": "dependentTimeStamp",
        "offset": 0,
        "slot": "16",
        "type": "t_uint256"
      },
      {
        "astId": 3367,
        "contract": "contracts/core/DefiBets.sol:DefiBets",
        "label": "lastActiveExpTime",
        "offset": 0,
        "slot": "17",
        "type": "t_uint256"
      },
      {
        "astId": 3371,
        "contract": "contracts/core/DefiBets.sol:DefiBets",
        "label": "validExpTime",
        "offset": 0,
        "slot": "18",
        "type": "t_mapping(t_uint256,t_bool)"
      },
      {
        "astId": 3376,
        "contract": "contracts/core/DefiBets.sol:DefiBets",
        "label": "expTimeInfos",
        "offset": 0,
        "slot": "19",
        "type": "t_mapping(t_uint256,t_struct(ExpTimeInfo)3330_storage)"
      },
      {
        "astId": 3381,
        "contract": "contracts/core/DefiBets.sol:DefiBets",
        "label": "bets",
        "offset": 0,
        "slot": "20",
        "type": "t_mapping(t_uint256,t_struct(Bet)3341_storage)"
      },
      {
        "astId": 3387,
        "contract": "contracts/core/DefiBets.sol:DefiBets",
        "label": "betsWinningSlots",
        "offset": 0,
        "slot": "21",
        "type": "t_mapping(t_uint256,t_mapping(t_uint256,t_uint256))"
      },
      {
        "astId": 3389,
        "contract": "contracts/core/DefiBets.sol:DefiBets",
        "label": "defiBetsManager",
        "offset": 0,
        "slot": "22",
        "type": "t_address"
      }
    ],
    "types": {
      "t_address": {
        "encoding": "inplace",
        "label": "address",
        "numberOfBytes": "20"
      },
      "t_bool": {
        "encoding": "inplace",
        "label": "bool",
        "numberOfBytes": "1"
      },
      "t_mapping(t_address,t_bool)": {
        "encoding": "mapping",
        "key": "t_address",
        "label": "mapping(address => bool)",
        "numberOfBytes": "32",
        "value": "t_bool"
      },
      "t_mapping(t_address,t_mapping(t_address,t_bool))": {
        "encoding": "mapping",
        "key": "t_address",
        "label": "mapping(address => mapping(address => bool))",
        "numberOfBytes": "32",
        "value": "t_mapping(t_address,t_bool)"
      },
      "t_mapping(t_address,t_uint256)": {
        "encoding": "mapping",
        "key": "t_address",
        "label": "mapping(address => uint256)",
        "numberOfBytes": "32",
        "value": "t_uint256"
      },
      "t_mapping(t_uint256,t_address)": {
        "encoding": "mapping",
        "key": "t_uint256",
        "label": "mapping(uint256 => address)",
        "numberOfBytes": "32",
        "value": "t_address"
      },
      "t_mapping(t_uint256,t_bool)": {
        "encoding": "mapping",
        "key": "t_uint256",
        "label": "mapping(uint256 => bool)",
        "numberOfBytes": "32",
        "value": "t_bool"
      },
      "t_mapping(t_uint256,t_mapping(t_uint256,t_uint256))": {
        "encoding": "mapping",
        "key": "t_uint256",
        "label": "mapping(uint256 => mapping(uint256 => uint256))",
        "numberOfBytes": "32",
        "value": "t_mapping(t_uint256,t_uint256)"
      },
      "t_mapping(t_uint256,t_struct(Bet)3341_storage)": {
        "encoding": "mapping",
        "key": "t_uint256",
        "label": "mapping(uint256 => struct DefiBets.Bet)",
        "numberOfBytes": "32",
        "value": "t_struct(Bet)3341_storage"
      },
      "t_mapping(t_uint256,t_struct(ExpTimeInfo)3330_storage)": {
        "encoding": "mapping",
        "key": "t_uint256",
        "label": "mapping(uint256 => struct DefiBets.ExpTimeInfo)",
        "numberOfBytes": "32",
        "value": "t_struct(ExpTimeInfo)3330_storage"
      },
      "t_mapping(t_uint256,t_uint256)": {
        "encoding": "mapping",
        "key": "t_uint256",
        "label": "mapping(uint256 => uint256)",
        "numberOfBytes": "32",
        "value": "t_uint256"
      },
      "t_string_storage": {
        "encoding": "bytes",
        "label": "string",
        "numberOfBytes": "32"
      },
      "t_struct(Bet)3341_storage": {
        "encoding": "inplace",
        "label": "struct DefiBets.Bet",
        "members": [
          {
            "astId": 3332,
            "contract": "contracts/core/DefiBets.sol:DefiBets",
            "label": "expTime",
            "offset": 0,
            "slot": "0",
            "type": "t_uint256"
          },
          {
            "astId": 3334,
            "contract": "contracts/core/DefiBets.sol:DefiBets",
            "label": "betSize",
            "offset": 0,
            "slot": "1",
            "type": "t_uint256"
          },
          {
            "astId": 3336,
            "contract": "contracts/core/DefiBets.sol:DefiBets",
            "label": "profit",
            "offset": 0,
            "slot": "2",
            "type": "t_uint256"
          },
          {
            "astId": 3338,
            "contract": "contracts/core/DefiBets.sol:DefiBets",
            "label": "minPrice",
            "offset": 0,
            "slot": "3",
            "type": "t_uint256"
          },
          {
            "astId": 3340,
            "contract": "contracts/core/DefiBets.sol:DefiBets",
            "label": "maxPrice",
            "offset": 0,
            "slot": "4",
            "type": "t_uint256"
          }
        ],
        "numberOfBytes": "160"
      },
      "t_struct(Counter)1808_storage": {
        "encoding": "inplace",
        "label": "struct Counters.Counter",
        "members": [
          {
            "astId": 1807,
            "contract": "contracts/core/DefiBets.sol:DefiBets",
            "label": "_value",
            "offset": 0,
            "slot": "0",
            "type": "t_uint256"
          }
        ],
        "numberOfBytes": "32"
      },
      "t_struct(ExpTimeInfo)3330_storage": {
        "encoding": "inplace",
        "label": "struct DefiBets.ExpTimeInfo",
        "members": [
          {
            "astId": 3313,
            "contract": "contracts/core/DefiBets.sol:DefiBets",
            "label": "maxUserWinning",
            "offset": 0,
            "slot": "0",
            "type": "t_uint256"
          },
          {
            "astId": 3315,
            "contract": "contracts/core/DefiBets.sol:DefiBets",
            "label": "totalBets",
            "offset": 0,
            "slot": "1",
            "type": "t_uint256"
          },
          {
            "astId": 3317,
            "contract": "contracts/core/DefiBets.sol:DefiBets",
            "label": "maxLossLimit",
            "offset": 0,
            "slot": "2",
            "type": "t_uint256"
          },
          {
            "astId": 3319,
            "contract": "contracts/core/DefiBets.sol:DefiBets",
            "label": "expPrice",
            "offset": 0,
            "slot": "3",
            "type": "t_uint256"
          },
          {
            "astId": 3321,
            "contract": "contracts/core/DefiBets.sol:DefiBets",
            "label": "deltaValue",
            "offset": 0,
            "slot": "4",
            "type": "t_uint256"
          },
          {
            "astId": 3323,
            "contract": "contracts/core/DefiBets.sol:DefiBets",
            "label": "slotSize",
            "offset": 0,
            "slot": "5",
            "type": "t_uint256"
          },
          {
            "astId": 3325,
            "contract": "contracts/core/DefiBets.sol:DefiBets",
            "label": "finished",
            "offset": 0,
            "slot": "6",
            "type": "t_bool"
          },
          {
            "astId": 3327,
            "contract": "contracts/core/DefiBets.sol:DefiBets",
            "label": "profit",
            "offset": 1,
            "slot": "6",
            "type": "t_bool"
          },
          {
            "astId": 3329,
            "contract": "contracts/core/DefiBets.sol:DefiBets",
            "label": "init",
            "offset": 2,
            "slot": "6",
            "type": "t_bool"
          }
        ],
        "numberOfBytes": "224"
      },
      "t_uint256": {
        "encoding": "inplace",
        "label": "uint256",
        "numberOfBytes": "32"
      }
    }
  }
}