{
  "address": "0x929683703569343Fc307298A7a4940d208F0c2a4",
  "abi": [
    {
      "inputs": [
        {
          "internalType": "address",
          "name": "_defibetsManager",
          "type": "address"
        },
        {
          "internalType": "address",
          "name": "_token",
          "type": "address"
        }
      ],
      "stateMutability": "nonpayable",
      "type": "constructor"
    },
    {
      "inputs": [],
      "name": "DefiBetsVault__Forbidden",
      "type": "error"
    },
    {
      "inputs": [],
      "name": "DefiBetsVault__NotEnoughFunds",
      "type": "error"
    },
    {
      "anonymous": false,
      "inputs": [
        {
          "indexed": false,
          "internalType": "uint256",
          "name": "expTime",
          "type": "uint256"
        },
        {
          "indexed": false,
          "internalType": "uint256",
          "name": "amount",
          "type": "uint256"
        },
        {
          "indexed": false,
          "internalType": "uint256",
          "name": "supply",
          "type": "uint256"
        },
        {
          "indexed": false,
          "internalType": "uint256",
          "name": "totalFees",
          "type": "uint256"
        }
      ],
      "name": "Deposit",
      "type": "event"
    },
    {
      "anonymous": false,
      "inputs": [
        {
          "indexed": true,
          "internalType": "address",
          "name": "previousOwner",
          "type": "address"
        },
        {
          "indexed": true,
          "internalType": "address",
          "name": "newOwner",
          "type": "address"
        }
      ],
      "name": "OwnershipTransferred",
      "type": "event"
    },
    {
      "anonymous": false,
      "inputs": [
        {
          "indexed": true,
          "internalType": "address",
          "name": "to",
          "type": "address"
        },
        {
          "indexed": false,
          "internalType": "uint256",
          "name": "amount",
          "type": "uint256"
        },
        {
          "indexed": false,
          "internalType": "uint256",
          "name": "expTime",
          "type": "uint256"
        },
        {
          "indexed": false,
          "internalType": "uint256",
          "name": "newSupply",
          "type": "uint256"
        }
      ],
      "name": "Withdraw",
      "type": "event"
    },
    {
      "inputs": [],
      "name": "defiBetsManager",
      "outputs": [
        {
          "internalType": "address",
          "name": "",
          "type": "address"
        }
      ],
      "stateMutability": "view",
      "type": "function"
    },
    {
      "inputs": [
        {
          "internalType": "address",
          "name": "_from",
          "type": "address"
        },
        {
          "internalType": "uint256",
          "name": "_amount",
          "type": "uint256"
        },
        {
          "internalType": "uint256",
          "name": "_expTime",
          "type": "uint256"
        },
        {
          "internalType": "uint256",
          "name": "_fees",
          "type": "uint256"
        }
      ],
      "name": "deposit",
      "outputs": [],
      "stateMutability": "nonpayable",
      "type": "function"
    },
    {
      "inputs": [
        {
          "internalType": "uint256",
          "name": "_expTime",
          "type": "uint256"
        },
        {
          "internalType": "uint256",
          "name": "_amount",
          "type": "uint256"
        }
      ],
      "name": "depositFromLP",
      "outputs": [],
      "stateMutability": "nonpayable",
      "type": "function"
    },
    {
      "inputs": [
        {
          "internalType": "uint256",
          "name": "",
          "type": "uint256"
        }
      ],
      "name": "expTimeSupply",
      "outputs": [
        {
          "internalType": "uint256",
          "name": "",
          "type": "uint256"
        }
      ],
      "stateMutability": "view",
      "type": "function"
    },
    {
      "inputs": [],
      "name": "owner",
      "outputs": [
        {
          "internalType": "address",
          "name": "",
          "type": "address"
        }
      ],
      "stateMutability": "view",
      "type": "function"
    },
    {
      "inputs": [],
      "name": "renounceOwnership",
      "outputs": [],
      "stateMutability": "nonpayable",
      "type": "function"
    },
    {
      "inputs": [],
      "name": "token",
      "outputs": [
        {
          "internalType": "address",
          "name": "",
          "type": "address"
        }
      ],
      "stateMutability": "view",
      "type": "function"
    },
    {
      "inputs": [],
      "name": "totalFees",
      "outputs": [
        {
          "internalType": "uint256",
          "name": "",
          "type": "uint256"
        }
      ],
      "stateMutability": "view",
      "type": "function"
    },
    {
      "inputs": [
        {
          "internalType": "address",
          "name": "newOwner",
          "type": "address"
        }
      ],
      "name": "transferOwnership",
      "outputs": [],
      "stateMutability": "nonpayable",
      "type": "function"
    },
    {
      "inputs": [
        {
          "internalType": "address",
          "name": "_to",
          "type": "address"
        },
        {
          "internalType": "uint256",
          "name": "_amount",
          "type": "uint256"
        },
        {
          "internalType": "uint256",
          "name": "_expTime",
          "type": "uint256"
        }
      ],
      "name": "withdraw",
      "outputs": [],
      "stateMutability": "nonpayable",
      "type": "function"
    }
  ],
  "transactionHash": "0xabda3821260df0b00164e4cd3a2ef7dc7dea6d9878d2c5e162335dbbe7767bd7",
  "args": [
    "0x38c39779Db5A8EbA2347ABf2189c3D05b628b25e",
    "0xE815f2aD238B218E6becb93d846EA8FF90eDB39C"
  ],
  "numDeployments": 1,
  "solcInputHash": "ae84ab27bf036004fc2c6cb0c0d1332e",
  "bytecode": "0x608060405234801561001057600080fd5b5060405161089d38038061089d83398101604081905261002f916100d5565b61003833610069565b600480546001600160a01b039384166001600160a01b03199182161790915560038054929093169116179055610108565b600080546001600160a01b038381166001600160a01b0319831681178455604051919092169283917f8be0079c531659141344cd1fd0a4f28419497f9722a3daafe3b4186f6b6457e09190a35050565b80516001600160a01b03811681146100d057600080fd5b919050565b600080604083850312156100e857600080fd5b6100f1836100b9565b91506100ff602084016100b9565b90509250929050565b610786806101176000396000f3fe608060405234801561001057600080fd5b50600436106100be5760003560e01c80638da5cb5b11610076578063ce88b4391161005b578063ce88b4391461016b578063f2fde38b1461017e578063fc0c546a1461019157600080fd5b80638da5cb5b14610147578063b5c5f6721461015857600080fd5b80633ad6d8b4116100a75780633ad6d8b4146100ff578063715018a614610114578063847e44a81461011c57600080fd5b806307f0af98146100c357806313114a9d146100f6575b600080fd5b6100e36100d136600461060d565b60026020526000908152604090205481565b6040519081526020015b60405180910390f35b6100e360015481565b61011261010d366004610626565b6101a4565b005b6101126101ba565b60045461012f906001600160a01b031681565b6040516001600160a01b0390911681526020016100ed565b6000546001600160a01b031661012f565b610112610166366004610664565b6101ce565b610112610179366004610697565b6102fa565b61011261018c3660046106d0565b61043a565b60035461012f906001600160a01b031681565b6101ac6104cf565b6101b682826104fa565b5050565b6101c261052a565b6101cc6000610584565b565b6101d66104cf565b6000818152600260205260409020548281101561020657604051630ada54eb60e11b815260040160405180910390fd5b60035460405163a9059cbb60e01b81526001600160a01b03868116600483015260248201869052600092169063a9059cbb906044016020604051808303816000875af115801561025a573d6000803e3d6000fd5b505050506040513d601f19601f8201168201806040525081019061027e91906106eb565b90508061028a57600080fd5b61029482856105ec565b6000848152600260209081526040918290208390558151878152908101869052908101919091526001600160a01b038616907f02f25270a4d87bea75db541cdfe559334a275b4a233520ed6c0a2429667cca949060600160405180910390a25050505050565b6103026104cf565b6003546040516323b872dd60e01b81526001600160a01b0386811660048301523060248301526044820186905260009216906323b872dd906064016020604051808303816000875af115801561035c573d6000803e3d6000fd5b505050506040513d601f19601f8201168201806040525081019061038091906106eb565b90508061038c57600080fd5b6001546000848152600260205260409020546103b2846103ac8389610601565b906105ec565b6000868152600260205260409020556103cb8285610601565b6001819055600086815260026020526040908190205490517f9b776d199f09c774f5b205c9bc2ac6f40d508c347aaea919867eeaf06ebef0e9926104299289928b929093845260208401929092526040830152606082015260800190565b60405180910390a150505050505050565b61044261052a565b6001600160a01b0381166104c35760405162461bcd60e51b815260206004820152602660248201527f4f776e61626c653a206e6577206f776e657220697320746865207a65726f206160448201527f646472657373000000000000000000000000000000000000000000000000000060648201526084015b60405180910390fd5b6104cc81610584565b50565b6004546001600160a01b031633146101cc5760405163155e074960e31b815260040160405180910390fd5b6000828152600260205260409020546105138183610601565b600093845260026020526040909320929092555050565b6000546001600160a01b031633146101cc5760405162461bcd60e51b815260206004820181905260248201527f4f776e61626c653a2063616c6c6572206973206e6f7420746865206f776e657260448201526064016104ba565b600080546001600160a01b038381167fffffffffffffffffffffffff0000000000000000000000000000000000000000831681178455604051919092169283917f8be0079c531659141344cd1fd0a4f28419497f9722a3daafe3b4186f6b6457e09190a35050565b60006105f8828461072a565b90505b92915050565b60006105f8828461073d565b60006020828403121561061f57600080fd5b5035919050565b6000806040838503121561063957600080fd5b50508035926020909101359150565b80356001600160a01b038116811461065f57600080fd5b919050565b60008060006060848603121561067957600080fd5b61068284610648565b95602085013595506040909401359392505050565b600080600080608085870312156106ad57600080fd5b6106b685610648565b966020860135965060408601359560600135945092505050565b6000602082840312156106e257600080fd5b6105f882610648565b6000602082840312156106fd57600080fd5b8151801515811461070d57600080fd5b9392505050565b634e487b7160e01b600052601160045260246000fd5b818103818111156105fb576105fb610714565b808201808211156105fb576105fb61071456fea264697066735822122018c7fba23c8b70425bb2573b6eb8107957dc94133d2b369ca3e9f24156b2c90964736f6c63430008110033",
  "devdoc": {
    "kind": "dev",
    "methods": {
      "owner()": {
        "details": "Returns the address of the current owner."
      },
      "renounceOwnership()": {
        "details": "Leaves the contract without owner. It will not be possible to call `onlyOwner` functions anymore. Can only be called by the current owner. NOTE: Renouncing ownership will leave the contract without an owner, thereby removing any functionality that is only available to the owner."
      },
      "transferOwnership(address)": {
        "details": "Transfers ownership of the contract to a new account (`newOwner`). Can only be called by the current owner."
      }
    },
    "version": 1
  },
  "userdoc": {
    "kind": "user",
    "methods": {},
    "version": 1
  },
  "storageLayout": {
    "storage": [
      {
        "astId": 53,
        "contract": "contracts/core/DefiBetsVault.sol:DefiBetsVault",
        "label": "_owner",
        "offset": 0,
        "slot": "0",
        "type": "t_address"
      },
      {
        "astId": 6716,
        "contract": "contracts/core/DefiBetsVault.sol:DefiBetsVault",
        "label": "totalFees",
        "offset": 0,
        "slot": "1",
        "type": "t_uint256"
      },
      {
        "astId": 6720,
        "contract": "contracts/core/DefiBetsVault.sol:DefiBetsVault",
        "label": "expTimeSupply",
        "offset": 0,
        "slot": "2",
        "type": "t_mapping(t_uint256,t_uint256)"
      },
      {
        "astId": 6722,
        "contract": "contracts/core/DefiBetsVault.sol:DefiBetsVault",
        "label": "token",
        "offset": 0,
        "slot": "3",
        "type": "t_address"
      },
      {
        "astId": 6724,
        "contract": "contracts/core/DefiBetsVault.sol:DefiBetsVault",
        "label": "defiBetsManager",
        "offset": 0,
        "slot": "4",
        "type": "t_address"
      }
    ],
    "types": {
      "t_address": {
        "encoding": "inplace",
        "label": "address",
        "numberOfBytes": "20"
      },
      "t_mapping(t_uint256,t_uint256)": {
        "encoding": "mapping",
        "key": "t_uint256",
        "label": "mapping(uint256 => uint256)",
        "numberOfBytes": "32",
        "value": "t_uint256"
      },
      "t_uint256": {
        "encoding": "inplace",
        "label": "uint256",
        "numberOfBytes": "32"
      }
    }
  }
}