{
  "address": "0xFB57076f47Cb0f2390BB6AbCba4AE453f965b10E",
  "abi": [
    {
      "inputs": [
        {
          "internalType": "address",
          "name": "_defibetsManager",
          "type": "address"
        },
        {
          "internalType": "address",
          "name": "_token",
          "type": "address"
        }
      ],
      "stateMutability": "nonpayable",
      "type": "constructor"
    },
    {
      "inputs": [],
      "name": "DefiBetsVault__Forbidden",
      "type": "error"
    },
    {
      "inputs": [],
      "name": "DefiBetsVault__NotEnoughFunds",
      "type": "error"
    },
    {
      "anonymous": false,
      "inputs": [
        {
          "indexed": false,
          "internalType": "uint256",
          "name": "expTime",
          "type": "uint256"
        },
        {
          "indexed": false,
          "internalType": "uint256",
          "name": "amount",
          "type": "uint256"
        },
        {
          "indexed": false,
          "internalType": "uint256",
          "name": "supply",
          "type": "uint256"
        },
        {
          "indexed": false,
          "internalType": "uint256",
          "name": "totalFees",
          "type": "uint256"
        }
      ],
      "name": "Deposit",
      "type": "event"
    },
    {
      "anonymous": false,
      "inputs": [
        {
          "indexed": false,
          "internalType": "uint256",
          "name": "amount",
          "type": "uint256"
        }
      ],
      "name": "FessWithdrawd",
      "type": "event"
    },
    {
      "anonymous": false,
      "inputs": [
        {
          "indexed": true,
          "internalType": "address",
          "name": "previousOwner",
          "type": "address"
        },
        {
          "indexed": true,
          "internalType": "address",
          "name": "newOwner",
          "type": "address"
        }
      ],
      "name": "OwnershipTransferred",
      "type": "event"
    },
    {
      "anonymous": false,
      "inputs": [
        {
          "indexed": true,
          "internalType": "address",
          "name": "to",
          "type": "address"
        },
        {
          "indexed": false,
          "internalType": "uint256",
          "name": "amount",
          "type": "uint256"
        },
        {
          "indexed": false,
          "internalType": "uint256",
          "name": "expTime",
          "type": "uint256"
        },
        {
          "indexed": false,
          "internalType": "uint256",
          "name": "newSupply",
          "type": "uint256"
        }
      ],
      "name": "Withdraw",
      "type": "event"
    },
    {
      "inputs": [],
      "name": "defiBetsManager",
      "outputs": [
        {
          "internalType": "address",
          "name": "",
          "type": "address"
        }
      ],
      "stateMutability": "view",
      "type": "function"
    },
    {
      "inputs": [
        {
          "internalType": "address",
          "name": "_from",
          "type": "address"
        },
        {
          "internalType": "uint256",
          "name": "_amount",
          "type": "uint256"
        },
        {
          "internalType": "uint256",
          "name": "_expTime",
          "type": "uint256"
        },
        {
          "internalType": "uint256",
          "name": "_fees",
          "type": "uint256"
        }
      ],
      "name": "deposit",
      "outputs": [],
      "stateMutability": "nonpayable",
      "type": "function"
    },
    {
      "inputs": [
        {
          "internalType": "uint256",
          "name": "_expTime",
          "type": "uint256"
        },
        {
          "internalType": "uint256",
          "name": "_amount",
          "type": "uint256"
        }
      ],
      "name": "depositFromLP",
      "outputs": [],
      "stateMutability": "nonpayable",
      "type": "function"
    },
    {
      "inputs": [
        {
          "internalType": "uint256",
          "name": "",
          "type": "uint256"
        }
      ],
      "name": "expTimeSupply",
      "outputs": [
        {
          "internalType": "uint256",
          "name": "",
          "type": "uint256"
        }
      ],
      "stateMutability": "view",
      "type": "function"
    },
    {
      "inputs": [],
      "name": "owner",
      "outputs": [
        {
          "internalType": "address",
          "name": "",
          "type": "address"
        }
      ],
      "stateMutability": "view",
      "type": "function"
    },
    {
      "inputs": [],
      "name": "renounceOwnership",
      "outputs": [],
      "stateMutability": "nonpayable",
      "type": "function"
    },
    {
      "inputs": [],
      "name": "token",
      "outputs": [
        {
          "internalType": "address",
          "name": "",
          "type": "address"
        }
      ],
      "stateMutability": "view",
      "type": "function"
    },
    {
      "inputs": [],
      "name": "totalFees",
      "outputs": [
        {
          "internalType": "uint256",
          "name": "",
          "type": "uint256"
        }
      ],
      "stateMutability": "view",
      "type": "function"
    },
    {
      "inputs": [
        {
          "internalType": "address",
          "name": "newOwner",
          "type": "address"
        }
      ],
      "name": "transferOwnership",
      "outputs": [],
      "stateMutability": "nonpayable",
      "type": "function"
    },
    {
      "inputs": [
        {
          "internalType": "address",
          "name": "_to",
          "type": "address"
        },
        {
          "internalType": "uint256",
          "name": "_amount",
          "type": "uint256"
        },
        {
          "internalType": "uint256",
          "name": "_expTime",
          "type": "uint256"
        }
      ],
      "name": "withdraw",
      "outputs": [],
      "stateMutability": "nonpayable",
      "type": "function"
    },
    {
      "inputs": [],
      "name": "withdrawFees",
      "outputs": [],
      "stateMutability": "nonpayable",
      "type": "function"
    }
  ],
  "transactionHash": "0xaa658c377878877a524764568c526851b59d94ed06b29e2c3c99badbeb2174ad",
  "args": [
    "0x1E3E5EE0a300143e7B8be3dd293E34518938d44C",
    "0xE815f2aD238B218E6becb93d846EA8FF90eDB39C"
  ],
  "numDeployments": 1,
  "solcInputHash": "83625d2dc91b0dda7c7452e5b3cee9d6",
  "bytecode": "0x608060405234801561001057600080fd5b506040516109d73803806109d783398101604081905261002f916100d5565b61003833610069565b600480546001600160a01b039384166001600160a01b03199182161790915560038054929093169116179055610108565b600080546001600160a01b038381166001600160a01b0319831681178455604051919092169283917f8be0079c531659141344cd1fd0a4f28419497f9722a3daafe3b4186f6b6457e09190a35050565b80516001600160a01b03811681146100d057600080fd5b919050565b600080604083850312156100e857600080fd5b6100f1836100b9565b91506100ff602084016100b9565b90509250929050565b6108c0806101176000396000f3fe608060405234801561001057600080fd5b50600436106100c95760003560e01c8063847e44a811610081578063ce88b4391161005b578063ce88b4391461017e578063f2fde38b14610191578063fc0c546a146101a457600080fd5b8063847e44a81461012f5780638da5cb5b1461015a578063b5c5f6721461016b57600080fd5b80633ad6d8b4116100b25780633ad6d8b41461010a578063476343ee1461011f578063715018a61461012757600080fd5b806307f0af98146100ce57806313114a9d14610101575b600080fd5b6100ee6100dc366004610747565b60026020526000908152604090205481565b6040519081526020015b60405180910390f35b6100ee60015481565b61011d610118366004610760565b6101b7565b005b61011d6101cd565b61011d6102cc565b600454610142906001600160a01b031681565b6040516001600160a01b0390911681526020016100f8565b6000546001600160a01b0316610142565b61011d61017936600461079e565b6102e0565b61011d61018c3660046107d1565b61040c565b61011d61019f36600461080a565b610574565b600354610142906001600160a01b031681565b6101bf610609565b6101c98282610634565b5050565b6101d5610664565b6001546003546000906001600160a01b031663a9059cbb6101fe6000546001600160a01b031690565b6040517fffffffff0000000000000000000000000000000000000000000000000000000060e084901b1681526001600160a01b039091166004820152602481018590526044016020604051808303816000875af1158015610263573d6000803e3d6000fd5b505050506040513d601f19601f820116820180604052508101906102879190610825565b905080156102955760006001555b6040518281527fbb47be849a478b6493a97ddfa3e2ff9f51a0ecb9bf8fb81bdc190bed7b83d34a9060200160405180910390a15050565b6102d4610664565b6102de60006106be565b565b6102e8610609565b6000818152600260205260409020548281101561031857604051630ada54eb60e11b815260040160405180910390fd5b60035460405163a9059cbb60e01b81526001600160a01b03868116600483015260248201869052600092169063a9059cbb906044016020604051808303816000875af115801561036c573d6000803e3d6000fd5b505050506040513d601f19601f820116820180604052508101906103909190610825565b90508061039c57600080fd5b6103a68285610726565b6000848152600260209081526040918290208390558151878152908101869052908101919091526001600160a01b038616907f02f25270a4d87bea75db541cdfe559334a275b4a233520ed6c0a2429667cca949060600160405180910390a25050505050565b610414610609565b6003546000906001600160a01b03166323b872dd8630610434888761073b565b6040517fffffffff0000000000000000000000000000000000000000000000000000000060e086901b1681526001600160a01b03938416600482015292909116602483015260448201526064016020604051808303816000875af11580156104a0573d6000803e3d6000fd5b505050506040513d601f19601f820116820180604052508101906104c49190610825565b9050806104d057600080fd5b6001546000848152600260205260409020546104ec818761073b565b600086815260026020526040902055610505828561073b565b6001819055600086815260026020526040908190205490517f9b776d199f09c774f5b205c9bc2ac6f40d508c347aaea919867eeaf06ebef0e9926105639289928b929093845260208401929092526040830152606082015260800190565b60405180910390a150505050505050565b61057c610664565b6001600160a01b0381166105fd5760405162461bcd60e51b815260206004820152602660248201527f4f776e61626c653a206e6577206f776e657220697320746865207a65726f206160448201527f646472657373000000000000000000000000000000000000000000000000000060648201526084015b60405180910390fd5b610606816106be565b50565b6004546001600160a01b031633146102de5760405163155e074960e31b815260040160405180910390fd5b60008281526002602052604090205461064d818361073b565b600093845260026020526040909320929092555050565b6000546001600160a01b031633146102de5760405162461bcd60e51b815260206004820181905260248201527f4f776e61626c653a2063616c6c6572206973206e6f7420746865206f776e657260448201526064016105f4565b600080546001600160a01b038381167fffffffffffffffffffffffff0000000000000000000000000000000000000000831681178455604051919092169283917f8be0079c531659141344cd1fd0a4f28419497f9722a3daafe3b4186f6b6457e09190a35050565b60006107328284610864565b90505b92915050565b60006107328284610877565b60006020828403121561075957600080fd5b5035919050565b6000806040838503121561077357600080fd5b50508035926020909101359150565b80356001600160a01b038116811461079957600080fd5b919050565b6000806000606084860312156107b357600080fd5b6107bc84610782565b95602085013595506040909401359392505050565b600080600080608085870312156107e757600080fd5b6107f085610782565b966020860135965060408601359560600135945092505050565b60006020828403121561081c57600080fd5b61073282610782565b60006020828403121561083757600080fd5b8151801515811461084757600080fd5b9392505050565b634e487b7160e01b600052601160045260246000fd5b818103818111156107355761073561084e565b808201808211156107355761073561084e56fea26469706673582212201dc1ed5d77d5f495f7a3730bd9db3b3f32c6a62b78809cd4f52ed07ac40de1be64736f6c63430008110033",
  "devdoc": {
    "kind": "dev",
    "methods": {
      "owner()": {
        "details": "Returns the address of the current owner."
      },
      "renounceOwnership()": {
        "details": "Leaves the contract without owner. It will not be possible to call `onlyOwner` functions anymore. Can only be called by the current owner. NOTE: Renouncing ownership will leave the contract without an owner, thereby removing any functionality that is only available to the owner."
      },
      "transferOwnership(address)": {
        "details": "Transfers ownership of the contract to a new account (`newOwner`). Can only be called by the current owner."
      }
    },
    "version": 1
  },
  "userdoc": {
    "kind": "user",
    "methods": {},
    "version": 1
  },
  "storageLayout": {
    "storage": [
      {
        "astId": 53,
        "contract": "contracts/core/DefiBetsVault.sol:DefiBetsVault",
        "label": "_owner",
        "offset": 0,
        "slot": "0",
        "type": "t_address"
      },
      {
        "astId": 6733,
        "contract": "contracts/core/DefiBetsVault.sol:DefiBetsVault",
        "label": "totalFees",
        "offset": 0,
        "slot": "1",
        "type": "t_uint256"
      },
      {
        "astId": 6737,
        "contract": "contracts/core/DefiBetsVault.sol:DefiBetsVault",
        "label": "expTimeSupply",
        "offset": 0,
        "slot": "2",
        "type": "t_mapping(t_uint256,t_uint256)"
      },
      {
        "astId": 6739,
        "contract": "contracts/core/DefiBetsVault.sol:DefiBetsVault",
        "label": "token",
        "offset": 0,
        "slot": "3",
        "type": "t_address"
      },
      {
        "astId": 6741,
        "contract": "contracts/core/DefiBetsVault.sol:DefiBetsVault",
        "label": "defiBetsManager",
        "offset": 0,
        "slot": "4",
        "type": "t_address"
      }
    ],
    "types": {
      "t_address": {
        "encoding": "inplace",
        "label": "address",
        "numberOfBytes": "20"
      },
      "t_mapping(t_uint256,t_uint256)": {
        "encoding": "mapping",
        "key": "t_uint256",
        "label": "mapping(uint256 => uint256)",
        "numberOfBytes": "32",
        "value": "t_uint256"
      },
      "t_uint256": {
        "encoding": "inplace",
        "label": "uint256",
        "numberOfBytes": "32"
      }
    }
  }
}