{
  "address": "0x14313AC281e7C4aF8490F3cf5b0bd5365aad9cFE",
  "abi": [
    {
      "inputs": [
        {
          "internalType": "address",
          "name": "_managerContract",
          "type": "address"
        },
        {
          "internalType": "address",
          "name": "_token",
          "type": "address"
        },
        {
          "internalType": "address",
          "name": "_betVault",
          "type": "address"
        },
        {
          "internalType": "uint256",
          "name": "_maxLossPerTimePercent",
          "type": "uint256"
        }
      ],
      "stateMutability": "nonpayable",
      "type": "constructor"
    },
    {
      "inputs": [],
      "name": "LiquidityPool__AccessForbidden",
      "type": "error"
    },
    {
      "inputs": [],
      "name": "LiquidityPool__NotAllowedAmount",
      "type": "error"
    },
    {
      "inputs": [],
      "name": "LiquidityPool__NotEnoughFreeSuppy",
      "type": "error"
    },
    {
      "anonymous": false,
      "inputs": [
        {
          "indexed": true,
          "internalType": "address",
          "name": "owner",
          "type": "address"
        },
        {
          "indexed": true,
          "internalType": "address",
          "name": "spender",
          "type": "address"
        },
        {
          "indexed": false,
          "internalType": "uint256",
          "name": "value",
          "type": "uint256"
        }
      ],
      "name": "Approval",
      "type": "event"
    },
    {
      "anonymous": false,
      "inputs": [
        {
          "indexed": true,
          "internalType": "address",
          "name": "account",
          "type": "address"
        },
        {
          "indexed": false,
          "internalType": "uint256",
          "name": "amount",
          "type": "uint256"
        },
        {
          "indexed": false,
          "internalType": "uint256",
          "name": "shares",
          "type": "uint256"
        },
        {
          "indexed": false,
          "internalType": "uint256",
          "name": "totalTokens",
          "type": "uint256"
        },
        {
          "indexed": false,
          "internalType": "uint256",
          "name": "totalSupply",
          "type": "uint256"
        }
      ],
      "name": "Deposit",
      "type": "event"
    },
    {
      "anonymous": false,
      "inputs": [
        {
          "indexed": false,
          "internalType": "uint256",
          "name": "lockedTokenSupply",
          "type": "uint256"
        },
        {
          "indexed": false,
          "internalType": "uint256",
          "name": "expTime",
          "type": "uint256"
        },
        {
          "indexed": false,
          "internalType": "uint256",
          "name": "lockedPerExpTime",
          "type": "uint256"
        }
      ],
      "name": "LockedSupplyUpdated",
      "type": "event"
    },
    {
      "anonymous": false,
      "inputs": [
        {
          "indexed": false,
          "internalType": "uint256",
          "name": "newMaxLoss",
          "type": "uint256"
        }
      ],
      "name": "MaxLossPerTimeUpdated",
      "type": "event"
    },
    {
      "anonymous": false,
      "inputs": [
        {
          "indexed": true,
          "internalType": "address",
          "name": "account",
          "type": "address"
        },
        {
          "indexed": false,
          "internalType": "uint256",
          "name": "shares",
          "type": "uint256"
        },
        {
          "indexed": false,
          "internalType": "uint256",
          "name": "amount",
          "type": "uint256"
        },
        {
          "indexed": false,
          "internalType": "uint256",
          "name": "totalTokens",
          "type": "uint256"
        },
        {
          "indexed": false,
          "internalType": "uint256",
          "name": "totalSupply",
          "type": "uint256"
        }
      ],
      "name": "Redeem",
      "type": "event"
    },
    {
      "anonymous": false,
      "inputs": [
        {
          "indexed": true,
          "internalType": "address",
          "name": "from",
          "type": "address"
        },
        {
          "indexed": true,
          "internalType": "address",
          "name": "to",
          "type": "address"
        },
        {
          "indexed": false,
          "internalType": "uint256",
          "name": "value",
          "type": "uint256"
        }
      ],
      "name": "Transfer",
      "type": "event"
    },
    {
      "inputs": [
        {
          "internalType": "address",
          "name": "owner",
          "type": "address"
        },
        {
          "internalType": "address",
          "name": "spender",
          "type": "address"
        }
      ],
      "name": "allowance",
      "outputs": [
        {
          "internalType": "uint256",
          "name": "",
          "type": "uint256"
        }
      ],
      "stateMutability": "view",
      "type": "function"
    },
    {
      "inputs": [
        {
          "internalType": "address",
          "name": "spender",
          "type": "address"
        },
        {
          "internalType": "uint256",
          "name": "amount",
          "type": "uint256"
        }
      ],
      "name": "approve",
      "outputs": [
        {
          "internalType": "bool",
          "name": "",
          "type": "bool"
        }
      ],
      "stateMutability": "nonpayable",
      "type": "function"
    },
    {
      "inputs": [
        {
          "internalType": "address",
          "name": "account",
          "type": "address"
        }
      ],
      "name": "balanceOf",
      "outputs": [
        {
          "internalType": "uint256",
          "name": "",
          "type": "uint256"
        }
      ],
      "stateMutability": "view",
      "type": "function"
    },
    {
      "inputs": [],
      "name": "balanceTokens",
      "outputs": [
        {
          "internalType": "uint256",
          "name": "",
          "type": "uint256"
        }
      ],
      "stateMutability": "view",
      "type": "function"
    },
    {
      "inputs": [],
      "name": "betVault",
      "outputs": [
        {
          "internalType": "address",
          "name": "",
          "type": "address"
        }
      ],
      "stateMutability": "view",
      "type": "function"
    },
    {
      "inputs": [
        {
          "internalType": "uint256",
          "name": "_amount",
          "type": "uint256"
        }
      ],
      "name": "calcSharesToMint",
      "outputs": [
        {
          "internalType": "uint256",
          "name": "",
          "type": "uint256"
        }
      ],
      "stateMutability": "view",
      "type": "function"
    },
    {
      "inputs": [
        {
          "internalType": "uint256",
          "name": "_shares",
          "type": "uint256"
        }
      ],
      "name": "calcTokensToWithdraw",
      "outputs": [
        {
          "internalType": "uint256",
          "name": "",
          "type": "uint256"
        }
      ],
      "stateMutability": "view",
      "type": "function"
    },
    {
      "inputs": [],
      "name": "decimals",
      "outputs": [
        {
          "internalType": "uint8",
          "name": "",
          "type": "uint8"
        }
      ],
      "stateMutability": "view",
      "type": "function"
    },
    {
      "inputs": [
        {
          "internalType": "address",
          "name": "spender",
          "type": "address"
        },
        {
          "internalType": "uint256",
          "name": "subtractedValue",
          "type": "uint256"
        }
      ],
      "name": "decreaseAllowance",
      "outputs": [
        {
          "internalType": "bool",
          "name": "",
          "type": "bool"
        }
      ],
      "stateMutability": "nonpayable",
      "type": "function"
    },
    {
      "inputs": [
        {
          "internalType": "address",
          "name": "_account",
          "type": "address"
        },
        {
          "internalType": "uint256",
          "name": "_amount",
          "type": "uint256"
        }
      ],
      "name": "depositForAccount",
      "outputs": [],
      "stateMutability": "nonpayable",
      "type": "function"
    },
    {
      "inputs": [
        {
          "internalType": "address",
          "name": "spender",
          "type": "address"
        },
        {
          "internalType": "uint256",
          "name": "addedValue",
          "type": "uint256"
        }
      ],
      "name": "increaseAllowance",
      "outputs": [
        {
          "internalType": "bool",
          "name": "",
          "type": "bool"
        }
      ],
      "stateMutability": "nonpayable",
      "type": "function"
    },
    {
      "inputs": [
        {
          "internalType": "uint256",
          "name": "",
          "type": "uint256"
        }
      ],
      "name": "lockedPerExpTime",
      "outputs": [
        {
          "internalType": "uint256",
          "name": "",
          "type": "uint256"
        }
      ],
      "stateMutability": "view",
      "type": "function"
    },
    {
      "inputs": [],
      "name": "lockedTokenSupply",
      "outputs": [
        {
          "internalType": "uint256",
          "name": "",
          "type": "uint256"
        }
      ],
      "stateMutability": "view",
      "type": "function"
    },
    {
      "inputs": [],
      "name": "managerContract",
      "outputs": [
        {
          "internalType": "address",
          "name": "",
          "type": "address"
        }
      ],
      "stateMutability": "view",
      "type": "function"
    },
    {
      "inputs": [],
      "name": "maxLPLost",
      "outputs": [
        {
          "internalType": "uint256",
          "name": "",
          "type": "uint256"
        }
      ],
      "stateMutability": "view",
      "type": "function"
    },
    {
      "inputs": [],
      "name": "maxLostPerTimeInPercent",
      "outputs": [
        {
          "internalType": "uint256",
          "name": "",
          "type": "uint256"
        }
      ],
      "stateMutability": "view",
      "type": "function"
    },
    {
      "inputs": [],
      "name": "name",
      "outputs": [
        {
          "internalType": "string",
          "name": "",
          "type": "string"
        }
      ],
      "stateMutability": "view",
      "type": "function"
    },
    {
      "inputs": [
        {
          "internalType": "address",
          "name": "_account",
          "type": "address"
        },
        {
          "internalType": "uint256",
          "name": "_shares",
          "type": "uint256"
        }
      ],
      "name": "redeemSharesForAccount",
      "outputs": [],
      "stateMutability": "nonpayable",
      "type": "function"
    },
    {
      "inputs": [
        {
          "internalType": "uint256",
          "name": "_expTime",
          "type": "uint256"
        }
      ],
      "name": "resetLockedTokens",
      "outputs": [],
      "stateMutability": "nonpayable",
      "type": "function"
    },
    {
      "inputs": [],
      "name": "symbol",
      "outputs": [
        {
          "internalType": "string",
          "name": "",
          "type": "string"
        }
      ],
      "stateMutability": "view",
      "type": "function"
    },
    {
      "inputs": [],
      "name": "token",
      "outputs": [
        {
          "internalType": "address",
          "name": "",
          "type": "address"
        }
      ],
      "stateMutability": "view",
      "type": "function"
    },
    {
      "inputs": [],
      "name": "totalSupply",
      "outputs": [
        {
          "internalType": "uint256",
          "name": "",
          "type": "uint256"
        }
      ],
      "stateMutability": "view",
      "type": "function"
    },
    {
      "inputs": [],
      "name": "totalTokenSupply",
      "outputs": [
        {
          "internalType": "uint256",
          "name": "",
          "type": "uint256"
        }
      ],
      "stateMutability": "view",
      "type": "function"
    },
    {
      "inputs": [
        {
          "internalType": "address",
          "name": "to",
          "type": "address"
        },
        {
          "internalType": "uint256",
          "name": "amount",
          "type": "uint256"
        }
      ],
      "name": "transfer",
      "outputs": [
        {
          "internalType": "bool",
          "name": "",
          "type": "bool"
        }
      ],
      "stateMutability": "nonpayable",
      "type": "function"
    },
    {
      "inputs": [
        {
          "internalType": "address",
          "name": "from",
          "type": "address"
        },
        {
          "internalType": "address",
          "name": "to",
          "type": "address"
        },
        {
          "internalType": "uint256",
          "name": "amount",
          "type": "uint256"
        }
      ],
      "name": "transferFrom",
      "outputs": [
        {
          "internalType": "bool",
          "name": "",
          "type": "bool"
        }
      ],
      "stateMutability": "nonpayable",
      "type": "function"
    },
    {
      "inputs": [
        {
          "internalType": "uint256",
          "name": "_amount",
          "type": "uint256"
        }
      ],
      "name": "transferTokensToVault",
      "outputs": [],
      "stateMutability": "nonpayable",
      "type": "function"
    },
    {
      "inputs": [
        {
          "internalType": "uint256",
          "name": "_delta",
          "type": "uint256"
        },
        {
          "internalType": "bool",
          "name": "_increase",
          "type": "bool"
        },
        {
          "internalType": "uint256",
          "name": "_expTime",
          "type": "uint256"
        }
      ],
      "name": "updateLockedTokenSupply",
      "outputs": [],
      "stateMutability": "nonpayable",
      "type": "function"
    },
    {
      "inputs": [
        {
          "internalType": "uint256",
          "name": "_newMaxLoss",
          "type": "uint256"
        }
      ],
      "name": "updateMaxLoss",
      "outputs": [],
      "stateMutability": "nonpayable",
      "type": "function"
    },
    {
      "inputs": [
        {
          "internalType": "uint256",
          "name": "_amount",
          "type": "uint256"
        },
        {
          "internalType": "bool",
          "name": "_profit",
          "type": "bool"
        }
      ],
      "name": "updateTokenSupply",
      "outputs": [],
      "stateMutability": "nonpayable",
      "type": "function"
    }
  ],
  "transactionHash": "0x716e679c00408a578891fc008f57f52312f5ee99a10d58d35b12c72089dae618",
  "args": [
    "0x1E3E5EE0a300143e7B8be3dd293E34518938d44C",
    "0xE815f2aD238B218E6becb93d846EA8FF90eDB39C",
    "0xFB57076f47Cb0f2390BB6AbCba4AE453f965b10E",
    50000
  ],
  "numDeployments": 1,
  "solcInputHash": "83625d2dc91b0dda7c7452e5b3cee9d6",
  "bytecode": "0x60806040523480156200001157600080fd5b5060405162001736380380620017368339810160408190526200003491620000e6565b6040805180820182526005808252642232b334a160d91b6020808401829052845180860190955291845290830152906003620000718382620001dd565b506004620000808282620001dd565b5050600980546001600160a01b03199081166001600160a01b03978816179091556008805482169587169590951790945550600a805490931691909316179055600755620002a9565b80516001600160a01b0381168114620000e157600080fd5b919050565b60008060008060808587031215620000fd57600080fd5b6200010885620000c9565b93506200011860208601620000c9565b92506200012860408601620000c9565b6060959095015193969295505050565b634e487b7160e01b600052604160045260246000fd5b600181811c908216806200016357607f821691505b6020821081036200018457634e487b7160e01b600052602260045260246000fd5b50919050565b601f821115620001d857600081815260208120601f850160051c81016020861015620001b35750805b601f850160051c820191505b81811015620001d457828155600101620001bf565b5050505b505050565b81516001600160401b03811115620001f957620001f962000138565b62000211816200020a84546200014e565b846200018a565b602080601f831160018114620002495760008415620002305750858301515b600019600386901b1c1916600185901b178555620001d4565b600085815260208120601f198616915b828110156200027a5788860151825594840194600190910190840162000259565b5085821015620002995787850151600019600388901b60f8161c191681555b5050505050600190811b01905550565b61147d80620002b96000396000f3fe608060405234801561001057600080fd5b50600436106101cf5760003560e01c80633950935111610104578063a66dee9c116100a2578063dd62ed3e11610071578063dd62ed3e146103ce578063e4494a0f14610407578063f928d5421461040f578063fc0c546a1461042257600080fd5b8063a66dee9c14610382578063a9059cbb14610395578063ae074a09146103a8578063d830de97146103bb57600080fd5b80637740b216116100de5780637740b2161461034c57806383b8e9221461035f57806395d89b4114610367578063a457c2d71461036f57600080fd5b806339509351146102fd5780635c1e21f31461031057806370a082311461032357600080fd5b80631ca8b6cb116101715780632710ac801161014b5780632710ac80146102bf578063313ce567146102d2578063342fcda9146102e157806339133952146102f457600080fd5b80631ca8b6cb1461028e57806323b872dd1461029757806325718e7a146102aa57600080fd5b80630ebc06ce116101ad5780630ebc06ce1461023f57806318160ddd146102525780631b137b3a1461025a5780631c7f3ca11461026357600080fd5b806305895bef146101d457806306fdde0314610207578063095ea7b31461021c575b600080fd5b6101f46101e23660046111b5565b600b6020526000908152604090205481565b6040519081526020015b60405180910390f35b61020f610435565b6040516101fe91906111ce565b61022f61022a366004611238565b6104c7565b60405190151581526020016101fe565b6101f461024d3660046111b5565b6104e1565b6002546101f4565b6101f460075481565b600a54610276906001600160a01b031681565b6040516001600160a01b0390911681526020016101fe565b6101f460055481565b61022f6102a5366004611262565b610503565b6102bd6102b83660046112ac565b610527565b005b600954610276906001600160a01b031681565b604051601281526020016101fe565b6102bd6102ef366004611238565b6105d4565b6101f460065481565b61022f61030b366004611238565b6106e1565b6102bd61031e3660046111b5565b610720565b6101f46103313660046112dc565b6001600160a01b031660009081526020819052604090205490565b6102bd61035a3660046112f7565b6107a1565b6007546101f4565b61020f61085e565b61022f61037d366004611238565b61086d565b6102bd610390366004611238565b61091c565b61022f6103a3366004611238565b6109fb565b6101f46103b63660046111b5565b610a09565b6102bd6103c93660046111b5565b610a29565b6101f46103dc36600461132f565b6001600160a01b03918216600090815260016020908152604080832093909416825291909152205490565b6101f4610aa9565b6102bd61041d3660046111b5565b610b1b565b600854610276906001600160a01b031681565b60606003805461044490611362565b80601f016020809104026020016040519081016040528092919081815260200182805461047090611362565b80156104bd5780601f10610492576101008083540402835291602001916104bd565b820191906000526020600020905b8154815290600101906020018083116104a057829003601f168201915b5050505050905090565b6000336104d5818585610b5e565b60019150505b92915050565b60006104db6104ef60025490565b6005546104fd908590610c82565b90610c95565b600033610511858285610ca1565b61051c858585610d33565b506001949350505050565b61052f610f06565b8015610549576005546105429083610f33565b6005555050565b600854600a5460405163a9059cbb60e01b81526001600160a01b0391821660048201526024810185905291169063a9059cbb906044016020604051808303816000875af115801561059e573d6000803e3d6000fd5b505050506040513d601f19601f820116820180604052508101906105c2919061139c565b506005546105429083610f3f565b5050565b6105dc610f06565b60006105e782610a09565b6008546040516323b872dd60e01b81526001600160a01b038681166004830152306024830152604482018690529293509116906323b872dd906064016020604051808303816000875af1158015610642573d6000803e3d6000fd5b505050506040513d601f19601f82011682018060405250810190610666919061139c565b506106718382610f4b565b60055461067e9083610f33565b6005556001600160a01b0383167f7162984403f6c73c8639375d45a9187dfd04602231bd8e587c415718b5f7e5f983836106b6610aa9565b60025460408051948552602085019390935291830152606082015260800160405180910390a2505050565b3360008181526001602090815260408083206001600160a01b03871684529091528120549091906104d5908290869061071b9087906113cf565b610b5e565b610728610f06565b600854600a5460405163a9059cbb60e01b81526001600160a01b0391821660048201526024810184905291169063a9059cbb906044016020604051808303816000875af115801561077d573d6000803e3d6000fd5b505050506040513d601f19601f820116820180604052508101906105d0919061139c565b6107a9610f06565b600654826107c4576006546107bf908290610f3f565b6107ce565b6107ce8185610f33565b6006556000828152600b6020526040902054836107f8576006546107f3908290610f3f565b610802565b6108028186610f33565b6000848152600b6020908152604091829020839055600654825190815290810186905280820192909252517fd0eaf4b7b6943769683e00aa39f6a6fb7a226ef621ba58adbdeea91e977fee3b9181900360600190a15050505050565b60606004805461044490611362565b3360008181526001602090815260408083206001600160a01b03871684529091528120549091908381101561090f5760405162461bcd60e51b815260206004820152602560248201527f45524332303a2064656372656173656420616c6c6f77616e63652062656c6f7760448201527f207a65726f00000000000000000000000000000000000000000000000000000060648201526084015b60405180910390fd5b61051c8286868403610b5e565b610924610f06565b61092e828261100a565b6000610939826104e1565b905061094481611049565b61094e8383611083565b60085460405163a9059cbb60e01b81526001600160a01b038581166004830152602482018490529091169063a9059cbb906044016020604051808303816000875af11580156109a1573d6000803e3d6000fd5b505050506040513d601f19601f820116820180604052508101906109c5919061139c565b50826001600160a01b03167fe02f6383e19e87c24e0c03e2cd5dbd05156cb29a1b0f3dbca1fa3430e444f63d83836106b6610aa9565b6000336104d5818585610d33565b6000610a13610aa9565b600003610a1e575090565b6104db6104ef610aa9565b610a31610f06565b6000818152600b6020526040902054600654610a4d8183610f3f565b60069081556000848152600b6020908152604080832083905592548351908152908101869052918201527fd0eaf4b7b6943769683e00aa39f6a6fb7a226ef621ba58adbdeea91e977fee3b9060600160405180910390a1505050565b6008546040516370a0823160e01b81523060048201526000916001600160a01b0316906370a0823190602401602060405180830381865afa158015610af2573d6000803e3d6000fd5b505050506040513d601f19601f82011682018060405250810190610b1691906113e2565b905090565b610b23610f06565b60078190556040518181527ff2c9646662ff29ce338193588962b9f715f4fcf984b10acaf54c65424a674afa9060200160405180910390a150565b6001600160a01b038316610bc05760405162461bcd60e51b8152602060048201526024808201527f45524332303a20617070726f76652066726f6d20746865207a65726f206164646044820152637265737360e01b6064820152608401610906565b6001600160a01b038216610c215760405162461bcd60e51b815260206004820152602260248201527f45524332303a20617070726f766520746f20746865207a65726f206164647265604482015261737360f01b6064820152608401610906565b6001600160a01b0383811660008181526001602090815260408083209487168084529482529182902085905590518481527f8c5be1e5ebec7d5bd14f71427d1e84f3dd0314c0f7b2291e5b200ac8c7c3b925910160405180910390a3505050565b6000610c8e82846113fb565b9392505050565b6000610c8e8284611412565b6001600160a01b038381166000908152600160209081526040808320938616835292905220546000198114610d2d5781811015610d205760405162461bcd60e51b815260206004820152601d60248201527f45524332303a20696e73756666696369656e7420616c6c6f77616e63650000006044820152606401610906565b610d2d8484848403610b5e565b50505050565b6001600160a01b038316610daf5760405162461bcd60e51b815260206004820152602560248201527f45524332303a207472616e736665722066726f6d20746865207a65726f20616460448201527f64726573730000000000000000000000000000000000000000000000000000006064820152608401610906565b6001600160a01b038216610e115760405162461bcd60e51b815260206004820152602360248201527f45524332303a207472616e7366657220746f20746865207a65726f206164647260448201526265737360e81b6064820152608401610906565b6001600160a01b03831660009081526020819052604090205481811015610ea05760405162461bcd60e51b815260206004820152602660248201527f45524332303a207472616e7366657220616d6f756e742065786365656473206260448201527f616c616e636500000000000000000000000000000000000000000000000000006064820152608401610906565b6001600160a01b03848116600081815260208181526040808320878703905593871680835291849020805487019055925185815290927fddf252ad1be2c89b69c2b068fc378daa952ba7f163c4a11628f55a4df523b3ef910160405180910390a3610d2d565b6009546001600160a01b03163314610f3157604051630cf4a9a760e41b815260040160405180910390fd5b565b6000610c8e82846113cf565b6000610c8e8284611434565b6001600160a01b038216610fa15760405162461bcd60e51b815260206004820152601f60248201527f45524332303a206d696e7420746f20746865207a65726f2061646472657373006044820152606401610906565b8060026000828254610fb391906113cf565b90915550506001600160a01b038216600081815260208181526040808320805486019055518481527fddf252ad1be2c89b69c2b068fc378daa952ba7f163c4a11628f55a4df523b3ef910160405180910390a35050565b6001600160a01b038216600090815260208190526040902054818110156110445760405163023175b160e41b815260040160405180910390fd5b505050565b80611061600654600554610f3f90919063ffffffff16565b101561108057604051630cc3fe5160e21b815260040160405180910390fd5b50565b6001600160a01b0382166110e35760405162461bcd60e51b815260206004820152602160248201527f45524332303a206275726e2066726f6d20746865207a65726f206164647265736044820152607360f81b6064820152608401610906565b6001600160a01b038216600090815260208190526040902054818110156111575760405162461bcd60e51b815260206004820152602260248201527f45524332303a206275726e20616d6f756e7420657863656564732062616c616e604482015261636560f01b6064820152608401610906565b6001600160a01b0383166000818152602081815260408083208686039055600280548790039055518581529192917fddf252ad1be2c89b69c2b068fc378daa952ba7f163c4a11628f55a4df523b3ef910160405180910390a3505050565b6000602082840312156111c757600080fd5b5035919050565b600060208083528351808285015260005b818110156111fb578581018301518582016040015282016111df565b506000604082860101526040601f19601f8301168501019250505092915050565b80356001600160a01b038116811461123357600080fd5b919050565b6000806040838503121561124b57600080fd5b6112548361121c565b946020939093013593505050565b60008060006060848603121561127757600080fd5b6112808461121c565b925061128e6020850161121c565b9150604084013590509250925092565b801515811461108057600080fd5b600080604083850312156112bf57600080fd5b8235915060208301356112d18161129e565b809150509250929050565b6000602082840312156112ee57600080fd5b610c8e8261121c565b60008060006060848603121561130c57600080fd5b83359250602084013561131e8161129e565b929592945050506040919091013590565b6000806040838503121561134257600080fd5b61134b8361121c565b91506113596020840161121c565b90509250929050565b600181811c9082168061137657607f821691505b60208210810361139657634e487b7160e01b600052602260045260246000fd5b50919050565b6000602082840312156113ae57600080fd5b8151610c8e8161129e565b634e487b7160e01b600052601160045260246000fd5b808201808211156104db576104db6113b9565b6000602082840312156113f457600080fd5b5051919050565b80820281158282048414176104db576104db6113b9565b60008261142f57634e487b7160e01b600052601260045260246000fd5b500490565b818103818111156104db576104db6113b956fea264697066735822122097a28e6f7e8be9786008435982e0ae9c7506b2999e01883fb36c7c1cebe5da1964736f6c63430008110033",
  "devdoc": {
    "kind": "dev",
    "methods": {
      "allowance(address,address)": {
        "details": "See {IERC20-allowance}."
      },
      "approve(address,uint256)": {
        "details": "See {IERC20-approve}. NOTE: If `amount` is the maximum `uint256`, the allowance is not updated on `transferFrom`. This is semantically equivalent to an infinite approval. Requirements: - `spender` cannot be the zero address."
      },
      "balanceOf(address)": {
        "details": "See {IERC20-balanceOf}."
      },
      "decimals()": {
        "details": "Returns the number of decimals used to get its user representation. For example, if `decimals` equals `2`, a balance of `505` tokens should be displayed to a user as `5.05` (`505 / 10 ** 2`). Tokens usually opt for a value of 18, imitating the relationship between Ether and Wei. This is the value {ERC20} uses, unless this function is overridden; NOTE: This information is only used for _display_ purposes: it in no way affects any of the arithmetic of the contract, including {IERC20-balanceOf} and {IERC20-transfer}."
      },
      "decreaseAllowance(address,uint256)": {
        "details": "Atomically decreases the allowance granted to `spender` by the caller. This is an alternative to {approve} that can be used as a mitigation for problems described in {IERC20-approve}. Emits an {Approval} event indicating the updated allowance. Requirements: - `spender` cannot be the zero address. - `spender` must have allowance for the caller of at least `subtractedValue`."
      },
      "increaseAllowance(address,uint256)": {
        "details": "Atomically increases the allowance granted to `spender` by the caller. This is an alternative to {approve} that can be used as a mitigation for problems described in {IERC20-approve}. Emits an {Approval} event indicating the updated allowance. Requirements: - `spender` cannot be the zero address."
      },
      "name()": {
        "details": "Returns the name of the token."
      },
      "symbol()": {
        "details": "Returns the symbol of the token, usually a shorter version of the name."
      },
      "totalSupply()": {
        "details": "See {IERC20-totalSupply}."
      },
      "transfer(address,uint256)": {
        "details": "See {IERC20-transfer}. Requirements: - `to` cannot be the zero address. - the caller must have a balance of at least `amount`."
      },
      "transferFrom(address,address,uint256)": {
        "details": "See {IERC20-transferFrom}. Emits an {Approval} event indicating the updated allowance. This is not required by the EIP. See the note at the beginning of {ERC20}. NOTE: Does not update the allowance if the current allowance is the maximum `uint256`. Requirements: - `from` and `to` cannot be the zero address. - `from` must have a balance of at least `amount`. - the caller must have allowance for ``from``'s tokens of at least `amount`."
      }
    },
    "version": 1
  },
  "userdoc": {
    "kind": "user",
    "methods": {},
    "version": 1
  },
  "storageLayout": {
    "storage": [
      {
        "astId": 282,
        "contract": "contracts/core/LiquidityPool.sol:LiquidityPool",
        "label": "_balances",
        "offset": 0,
        "slot": "0",
        "type": "t_mapping(t_address,t_uint256)"
      },
      {
        "astId": 288,
        "contract": "contracts/core/LiquidityPool.sol:LiquidityPool",
        "label": "_allowances",
        "offset": 0,
        "slot": "1",
        "type": "t_mapping(t_address,t_mapping(t_address,t_uint256))"
      },
      {
        "astId": 290,
        "contract": "contracts/core/LiquidityPool.sol:LiquidityPool",
        "label": "_totalSupply",
        "offset": 0,
        "slot": "2",
        "type": "t_uint256"
      },
      {
        "astId": 292,
        "contract": "contracts/core/LiquidityPool.sol:LiquidityPool",
        "label": "_name",
        "offset": 0,
        "slot": "3",
        "type": "t_string_storage"
      },
      {
        "astId": 294,
        "contract": "contracts/core/LiquidityPool.sol:LiquidityPool",
        "label": "_symbol",
        "offset": 0,
        "slot": "4",
        "type": "t_string_storage"
      },
      {
        "astId": 6996,
        "contract": "contracts/core/LiquidityPool.sol:LiquidityPool",
        "label": "totalTokenSupply",
        "offset": 0,
        "slot": "5",
        "type": "t_uint256"
      },
      {
        "astId": 6998,
        "contract": "contracts/core/LiquidityPool.sol:LiquidityPool",
        "label": "lockedTokenSupply",
        "offset": 0,
        "slot": "6",
        "type": "t_uint256"
      },
      {
        "astId": 7000,
        "contract": "contracts/core/LiquidityPool.sol:LiquidityPool",
        "label": "maxLostPerTimeInPercent",
        "offset": 0,
        "slot": "7",
        "type": "t_uint256"
      },
      {
        "astId": 7002,
        "contract": "contracts/core/LiquidityPool.sol:LiquidityPool",
        "label": "token",
        "offset": 0,
        "slot": "8",
        "type": "t_address"
      },
      {
        "astId": 7004,
        "contract": "contracts/core/LiquidityPool.sol:LiquidityPool",
        "label": "managerContract",
        "offset": 0,
        "slot": "9",
        "type": "t_address"
      },
      {
        "astId": 7006,
        "contract": "contracts/core/LiquidityPool.sol:LiquidityPool",
        "label": "betVault",
        "offset": 0,
        "slot": "10",
        "type": "t_address"
      },
      {
        "astId": 7010,
        "contract": "contracts/core/LiquidityPool.sol:LiquidityPool",
        "label": "lockedPerExpTime",
        "offset": 0,
        "slot": "11",
        "type": "t_mapping(t_uint256,t_uint256)"
      }
    ],
    "types": {
      "t_address": {
        "encoding": "inplace",
        "label": "address",
        "numberOfBytes": "20"
      },
      "t_mapping(t_address,t_mapping(t_address,t_uint256))": {
        "encoding": "mapping",
        "key": "t_address",
        "label": "mapping(address => mapping(address => uint256))",
        "numberOfBytes": "32",
        "value": "t_mapping(t_address,t_uint256)"
      },
      "t_mapping(t_address,t_uint256)": {
        "encoding": "mapping",
        "key": "t_address",
        "label": "mapping(address => uint256)",
        "numberOfBytes": "32",
        "value": "t_uint256"
      },
      "t_mapping(t_uint256,t_uint256)": {
        "encoding": "mapping",
        "key": "t_uint256",
        "label": "mapping(uint256 => uint256)",
        "numberOfBytes": "32",
        "value": "t_uint256"
      },
      "t_string_storage": {
        "encoding": "bytes",
        "label": "string",
        "numberOfBytes": "32"
      },
      "t_uint256": {
        "encoding": "inplace",
        "label": "uint256",
        "numberOfBytes": "32"
      }
    }
  }
}