{
  "address": "0x1a1E229b33FAa5f22B27d21CE632D483C4A9bEe6",
  "abi": [
    {
      "inputs": [],
      "name": "MathLibraryDefibets__WrongParameter",
      "type": "error"
    },
    {
      "inputs": [],
      "name": "BILLION",
      "outputs": [
        {
          "internalType": "uint256",
          "name": "",
          "type": "uint256"
        }
      ],
      "stateMutability": "view",
      "type": "function"
    },
    {
      "inputs": [],
      "name": "Z_TABLE_MAX",
      "outputs": [
        {
          "internalType": "uint256",
          "name": "",
          "type": "uint256"
        }
      ],
      "stateMutability": "view",
      "type": "function"
    },
    {
      "inputs": [
        {
          "internalType": "uint256",
          "name": "lowerPrice",
          "type": "uint256"
        },
        {
          "internalType": "uint256",
          "name": "upperPrice",
          "type": "uint256"
        },
        {
          "internalType": "uint256",
          "name": "currPrice",
          "type": "uint256"
        },
        {
          "internalType": "uint256",
          "name": "impliedVolatility",
          "type": "uint256"
        },
        {
          "internalType": "uint256",
          "name": "impliedVolatilityTime",
          "type": "uint256"
        },
        {
          "internalType": "uint256",
          "name": "timeUntilEpxiry",
          "type": "uint256"
        }
      ],
      "name": "calculateProbabilityRange",
      "outputs": [
        {
          "internalType": "uint256",
          "name": "",
          "type": "uint256"
        }
      ],
      "stateMutability": "view",
      "type": "function"
    }
  ],
  "transactionHash": "0x649693d1d2691c9456cc475a48eef46c13fb2b9d0037949267cfef4da13691be",
  "args": [],
  "numDeployments": 1,
  "solcInputHash": "ae84ab27bf036004fc2c6cb0c0d1332e",
  "bytecode": "0x61096661003a600b82828239805160001a60731461002d57634e487b7160e01b600052600060045260246000fd5b30600052607381538281f3fe730000000000000000000000000000000000000000301460806040526004361061004b5760003560e01c80634beda18b1461005057806399aaa6dc1461006d578063ea75fe3b14610075575b600080fd5b61005b633b9aca0081565b60405190815260200160405180910390f35b61005b603b81565b61005b610083366004610669565b600080610092868685876100fe565b905060006100a189888461018a565b905060006100b089898561018a565b905060006100be83836106c2565b61ffff1690506100f06040518060600160405280602d8152602001610814602d91398461ffff168461ffff1684610259565b9a9950505050505050505050565b60008061012f61271061011d61012861012387838a6305f5e1006102a8565b906102bd565b6102c9565b88906102a8565b90506101706040518060400160405280600d81526020017f61646a496d706c566f6c20256900000000000000000000000000000000000000815250826103b8565b61018061271061011d88846102a8565b9695505050505050565b60008080858511156101aa575060016101a38587610401565b91506101b7565b6101b48686610401565b91505b60006101c3838661040d565b90506102046040518060400160405280600a81526020017f7a53636f72653a20256900000000000000000000000000000000000000000000815250826103b8565b6102446040518060400160405280601381526020017f737464446576696174696f6e3a20256920256200000000000000000000000000815250868461041f565b61024e818361046b565b979650505050505050565b6102a2848484846040516024016102739493929190610723565b60408051601f198184030181529190526020810180516001600160e01b031663a7a8785360e01b17905261052e565b50505050565b60006102b48284610752565b90505b92915050565b60006102b4828461077f565b6000816000036102db57506000919050565b600060016102e88461054f565b901c6001901b9050600181848161030157610301610769565b048201901c9050600181848161031957610319610769565b048201901c9050600181848161033157610331610769565b048201901c9050600181848161034957610349610769565b048201901c9050600181848161036157610361610769565b048201901c9050600181848161037957610379610769565b048201901c9050600181848161039157610391610769565b048201901c90506103b1818285816103ab576103ab610769565b046105e3565b9392505050565b6103fd82826040516024016103ce9291906107a1565b60408051601f198184030181529190526020810180516001600160e01b0316632d839cb360e21b17905261052e565b5050565b60006102b482846107c3565b60006102b48261011d856127106102a8565b610466838383604051602401610437939291906107d6565b60408051601f198184030181529190526020810180516001600160e01b031663ca7733b160e01b17905261052e565b505050565b60008061047a846101f46102bd565b905080603b10156104895750603b5b6104c86040518060400160405280600881526020017f696e646578202569000000000000000000000000000000000000000000000000815250826103b8565b8215610505576104d981603b6107c3565b90506104fd6040518060a00160405280607881526020016108b960789139826105f9565b9150506102b7565b6104fd6040518060a001604052806078815260200161084160789139826105f9565b5092915050565b80516a636f6e736f6c652e6c6f67602083016000808483855afa5050505050565b600080608083901c1561056457608092831c92015b604083901c1561057657604092831c92015b602083901c1561058857602092831c92015b601083901c1561059a57601092831c92015b600883901c156105ac57600892831c92015b600483901c156105be57600492831c92015b600283901c156105d057600292831c92015b600183901c156102b75760010192915050565b60008183106105f257816102b4565b5090919050565b6000610606826002610800565b8351101561065a5760405162461bcd60e51b815260206004820152601460248201527f746f55696e7431365f6f75744f66426f756e6473000000000000000000000000604482015260640160405180910390fd5b50600290810291909101015190565b60008060008060008060c0878903121561068257600080fd5b505084359660208601359650604086013595606081013595506080810135945060a0013592509050565b634e487b7160e01b600052601160045260246000fd5b61ffff828116828216039080821115610527576105276106ac565b6000815180845260005b81811015610703576020818501810151868301820152016106e7565b506000602082860101526020601f19601f83011685010191505092915050565b60808152600061073660808301876106dd565b6020830195909552506040810192909252606090910152919050565b80820281158282048414176102b7576102b76106ac565b634e487b7160e01b600052601260045260246000fd5b60008261079c57634e487b7160e01b600052601260045260246000fd5b500490565b6040815260006107b460408301856106dd565b90508260208301529392505050565b818103818111156102b7576102b76106ac565b6060815260006107e960608301866106dd565b602083019490945250901515604090910152919050565b808201808211156102b7576102b76106ac56fe50726f626162696c6974793a204c6f7765722025692c204869676865723a2025692c20526573756c743a202569144f151615dc16a11763182318e0199a1a501b031bb01c591cfe1d9c1e361ec91f571fdf206120dd215321c3222d229122f02348239b23e82431247424b224ec25212552257f25a925ce25f12610262c2646265d26722685269626a526b226be26c926d226da26e126e826ed26f226f626fa26fd27002703000d001000130016001a001e00230028002f0036003e00470052005e006b007a008b009e00b300ca00e40100011f01420167019101be01ef0224025e029c02df0328037503c80420047f04e3054d05bd063306af073107b9084708da09740a120ab70b600c0d0cc00e300eed0fad106f113411fa12c11388a264697066735822122088771f44e844d9bb56a2f5eab24d0b075a02a5a36a6fd3fa804baf539d8fd26064736f6c63430008110033",
  "devdoc": {
    "kind": "dev",
    "methods": {
      "calculateProbabilityRange(uint256,uint256,uint256,uint256,uint256,uint256)": {
        "params": {
          "currPrice": "- the current price of the underlying with decimals",
          "impliedVolatility": "- the implied volatility for x days in promille => 30% = 3000",
          "impliedVolatilityTime": "- the time of the volatility in seconds",
          "lowerPrice": "- lower price of the price range with decimals",
          "timeUntilEpxiry": "- the remaining time until expiration in seconds",
          "upperPrice": "- upper price of the price range with decimals"
        }
      }
    },
    "version": 1
  },
  "userdoc": {
    "kind": "user",
    "methods": {},
    "version": 1
  },
  "storageLayout": {
    "storage": [],
    "types": null
  }
}