{
  "address": "0xeE5c0F71A21524089115FDB47180850aA0bAAc49",
  "abi": [
    {
      "inputs": [],
      "stateMutability": "nonpayable",
      "type": "constructor"
    },
    {
      "inputs": [],
      "name": "calculateProbabilityRange",
      "outputs": [
        {
          "internalType": "uint256",
          "name": "",
          "type": "uint256"
        }
      ],
      "stateMutability": "view",
      "type": "function"
    }
  ],
  "transactionHash": "0xe759d1fa0e674d6d991312bd73bca2e2ea9765dfd9569a3acf0bb9f9b804d688",
  "args": [],
  "numDeployments": 1,
  "solcInputHash": "280edd8d406b66b0b16c07225c6ff6d2",
  "bytecode": "0x608060405234801561001057600080fd5b5061015b806100206000396000f3fe608060405234801561001057600080fd5b506004361061002b5760003560e01c8063088eead014610030575b600080fd5b61003861004a565b60405190815260200160405180910390f35b60405163ea75fe3b60e01b8152690405fdf7e5af85e0000060048201526905150ae84a8cdf000000602482015269043c33c193756480000060448201526107d0606482015262278d0060848201526213c68060a48201526000908190731a1E229b33FAa5f22B27d21CE632D483C4A9bEe69063ea75fe3b9060c401602060405180830381865af41580156100e2573d6000803e3d6000fd5b505050506040513d601f19601f82011682018060405250810190610106919061010c565b92915050565b60006020828403121561011e57600080fd5b505191905056fea26469706673582212201a550051584e62073bd3d0a880aa0af1f5e3a146bc1054bd74d9a7e134a5c3e664736f6c63430008110033",
  "deployedBytecode": "0x608060405234801561001057600080fd5b506004361061002b5760003560e01c8063088eead014610030575b600080fd5b61003861004a565b60405190815260200160405180910390f35b60405163ea75fe3b60e01b8152690405fdf7e5af85e0000060048201526905150ae84a8cdf000000602482015269043c33c193756480000060448201526107d0606482015262278d0060848201526213c68060a4820152600090819073__$7ac33160e126b1ac4f1e7b569b9216a78d$__9063ea75fe3b9060c401602060405180830381865af41580156100e2573d6000803e3d6000fd5b505050506040513d601f19601f82011682018060405250810190610106919061010c565b92915050565b60006020828403121561011e57600080fd5b505191905056fea26469706673582212201a550051584e62073bd3d0a880aa0af1f5e3a146bc1054bd74d9a7e134a5c3e664736f6c63430008110033",
  "libraries": {
    "MathLibraryDefibets": "0x1a1E229b33FAa5f22B27d21CE632D483C4A9bEe6"
  },
  "devdoc": {
    "kind": "dev",
    "methods": {},
    "version": 1
  },
  "userdoc": {
    "kind": "user",
    "methods": {},
    "version": 1
  },
  "storageLayout": {
    "storage": [],
    "types": null
  }
}