{
  "address": "0x743c8A71D62D03d554C7DDE4d9ABa8EdB4f668f3",
  "abi": [
    {
      "inputs": [
        {
          "internalType": "address",
          "name": "_managerContract",
          "type": "address"
        },
        {
          "internalType": "uint256",
          "name": "_period",
          "type": "uint256"
        },
        {
          "internalType": "uint256",
          "name": "_targetPayoutRatio",
          "type": "uint256"
        },
        {
          "internalType": "uint256",
          "name": "_startTimeStamp",
          "type": "uint256"
        }
      ],
      "stateMutability": "nonpayable",
      "type": "constructor"
    },
    {
      "inputs": [],
      "name": "DefiBetsPayoutRatio__AccessForbidden",
      "type": "error"
    },
    {
      "inputs": [],
      "name": "DefiBetsPayoutRatio__NoValidExpTime",
      "type": "error"
    },
    {
      "anonymous": false,
      "inputs": [
        {
          "indexed": true,
          "internalType": "address",
          "name": "previousOwner",
          "type": "address"
        },
        {
          "indexed": true,
          "internalType": "address",
          "name": "newOwner",
          "type": "address"
        }
      ],
      "name": "OwnershipTransferred",
      "type": "event"
    },
    {
      "anonymous": false,
      "inputs": [
        {
          "indexed": false,
          "internalType": "uint256",
          "name": "currProfit",
          "type": "uint256"
        }
      ],
      "name": "UpdateProfitLP",
      "type": "event"
    },
    {
      "anonymous": false,
      "inputs": [
        {
          "indexed": false,
          "internalType": "uint256",
          "name": "currProfit",
          "type": "uint256"
        }
      ],
      "name": "UpdateProfitPlayer",
      "type": "event"
    },
    {
      "anonymous": false,
      "inputs": [
        {
          "indexed": false,
          "internalType": "uint256",
          "name": "startIndex",
          "type": "uint256"
        },
        {
          "indexed": false,
          "internalType": "uint256",
          "name": "endIndex",
          "type": "uint256"
        },
        {
          "indexed": false,
          "internalType": "uint256",
          "name": "currProfitsPeriodLP",
          "type": "uint256"
        },
        {
          "indexed": false,
          "internalType": "uint256",
          "name": "currProfitsPeriodPlayer",
          "type": "uint256"
        }
      ],
      "name": "UpdateProfitsPeriod",
      "type": "event"
    },
    {
      "inputs": [],
      "name": "MIN_PAYOUT_FACTOR",
      "outputs": [
        {
          "internalType": "uint256",
          "name": "",
          "type": "uint256"
        }
      ],
      "stateMutability": "view",
      "type": "function"
    },
    {
      "inputs": [],
      "name": "adjustmentFactor",
      "outputs": [
        {
          "internalType": "uint256",
          "name": "",
          "type": "uint256"
        }
      ],
      "stateMutability": "view",
      "type": "function"
    },
    {
      "inputs": [
        {
          "internalType": "uint256",
          "name": "_timestamp",
          "type": "uint256"
        }
      ],
      "name": "calulateAdjustedTimestamp",
      "outputs": [
        {
          "internalType": "uint256",
          "name": "",
          "type": "uint256"
        }
      ],
      "stateMutability": "view",
      "type": "function"
    },
    {
      "inputs": [],
      "name": "currProfitsPeriodLP",
      "outputs": [
        {
          "internalType": "uint256",
          "name": "",
          "type": "uint256"
        }
      ],
      "stateMutability": "view",
      "type": "function"
    },
    {
      "inputs": [],
      "name": "currProfitsPeriodPlayer",
      "outputs": [
        {
          "internalType": "uint256",
          "name": "",
          "type": "uint256"
        }
      ],
      "stateMutability": "view",
      "type": "function"
    },
    {
      "inputs": [],
      "name": "delta",
      "outputs": [
        {
          "internalType": "uint256",
          "name": "",
          "type": "uint256"
        }
      ],
      "stateMutability": "view",
      "type": "function"
    },
    {
      "inputs": [],
      "name": "owner",
      "outputs": [
        {
          "internalType": "address",
          "name": "",
          "type": "address"
        }
      ],
      "stateMutability": "view",
      "type": "function"
    },
    {
      "inputs": [],
      "name": "period",
      "outputs": [
        {
          "internalType": "uint256",
          "name": "",
          "type": "uint256"
        }
      ],
      "stateMutability": "view",
      "type": "function"
    },
    {
      "inputs": [],
      "name": "renounceOwnership",
      "outputs": [],
      "stateMutability": "nonpayable",
      "type": "function"
    },
    {
      "inputs": [
        {
          "internalType": "uint256",
          "name": "_factor",
          "type": "uint256"
        }
      ],
      "name": "setAdjustmentFactor",
      "outputs": [],
      "stateMutability": "nonpayable",
      "type": "function"
    },
    {
      "inputs": [
        {
          "internalType": "uint256",
          "name": "_targetPayoutRatio",
          "type": "uint256"
        }
      ],
      "name": "setTargetPayoutRatio",
      "outputs": [],
      "stateMutability": "nonpayable",
      "type": "function"
    },
    {
      "inputs": [],
      "name": "startTimestamp",
      "outputs": [
        {
          "internalType": "uint256",
          "name": "",
          "type": "uint256"
        }
      ],
      "stateMutability": "view",
      "type": "function"
    },
    {
      "inputs": [],
      "name": "targetPayoutRatio",
      "outputs": [
        {
          "internalType": "uint256",
          "name": "",
          "type": "uint256"
        }
      ],
      "stateMutability": "view",
      "type": "function"
    },
    {
      "inputs": [
        {
          "internalType": "uint256",
          "name": "",
          "type": "uint256"
        }
      ],
      "name": "totalProfitLP",
      "outputs": [
        {
          "internalType": "uint256",
          "name": "",
          "type": "uint256"
        }
      ],
      "stateMutability": "view",
      "type": "function"
    },
    {
      "inputs": [
        {
          "internalType": "uint256",
          "name": "",
          "type": "uint256"
        }
      ],
      "name": "totalProfitPlayer",
      "outputs": [
        {
          "internalType": "uint256",
          "name": "",
          "type": "uint256"
        }
      ],
      "stateMutability": "view",
      "type": "function"
    },
    {
      "inputs": [
        {
          "internalType": "address",
          "name": "newOwner",
          "type": "address"
        }
      ],
      "name": "transferOwnership",
      "outputs": [],
      "stateMutability": "nonpayable",
      "type": "function"
    },
    {
      "inputs": [
        {
          "internalType": "uint256",
          "name": "_amount",
          "type": "uint256"
        },
        {
          "internalType": "uint256",
          "name": "_expTime",
          "type": "uint256"
        }
      ],
      "name": "updateLPProfit",
      "outputs": [],
      "stateMutability": "nonpayable",
      "type": "function"
    },
    {
      "inputs": [
        {
          "internalType": "uint256",
          "name": "_currentPayoutFactor",
          "type": "uint256"
        },
        {
          "internalType": "uint256",
          "name": "_amount",
          "type": "uint256"
        },
        {
          "internalType": "uint256",
          "name": "_expTime",
          "type": "uint256"
        }
      ],
      "name": "updatePlayerProfit",
      "outputs": [],
      "stateMutability": "nonpayable",
      "type": "function"
    }
  ],
  "transactionHash": "0xc402c4163787fe4889726f7656607827e0de0c2f93057e941d65ea5502841506",
  "args": [
    "0x38c39779Db5A8EbA2347ABf2189c3D05b628b25e",
    30,
    90,
    1691100000
  ],
  "numDeployments": 1,
  "solcInputHash": "74a80764137b7f13e1fd87b150703511",
  "bytecode": "0x6080604052620151806002556005600c553480156200001d57600080fd5b5060405162000eee38038062000eee833981016040819052620000409162000136565b6200004b33620000c1565b600580546001600160a01b0319166001600160a01b038616179055600a839055600b8290556001819055600254620000ad906200009690859062000111602090811b620004f217901c565b6001546200012860201b620004fe1790919060201c565b600855505060015460095550620001c99050565b600080546001600160a01b038381166001600160a01b0319831681178455604051919092169283917f8be0079c531659141344cd1fd0a4f28419497f9722a3daafe3b4186f6b6457e09190a35050565b60006200011f828462000199565b90505b92915050565b60006200011f8284620001b3565b600080600080608085870312156200014d57600080fd5b84516001600160a01b03811681146200016557600080fd5b60208601516040870151606090970151919890975090945092505050565b634e487b7160e01b600052601160045260246000fd5b808202811582820484141762000122576200012262000183565b8181038181111562000122576200012262000183565b610d1580620001d96000396000f3fe608060405234801561001057600080fd5b50600436106101365760003560e01c806394252bf8116100b2578063e49c407411610081578063ef78d4fd11610066578063ef78d4fd1461023d578063f2fde38b14610246578063f502d8c01461025957600080fd5b8063e49c407414610221578063e6fd48bc1461023457600080fd5b806394252bf8146101ea578063cb6741ed146101fd578063d01a4dc414610206578063dc2db84d1461020e57600080fd5b806369e90359116101095780637509e58c116100ee5780637509e58c146101bd5780637aae71e4146101c65780638da5cb5b146101cf57600080fd5b806369e9035914610195578063715018a6146101b557600080fd5b806312b495a81461013b5780631bb8c44414610157578063234f5be51461016057806367e79c4414610175575b600080fd5b61014460025481565b6040519081526020015b60405180910390f35b61014460075481565b61017361016e366004610b6c565b61026c565b005b610144610183366004610b8e565b60046020526000908152604090205481565b6101446101a3366004610b8e565b60036020526000908152604090205481565b6101736102f5565b610144600b5481565b61014460065481565b6000546040516001600160a01b03909116815260200161014e565b6101736101f8366004610b8e565b610309565b610144600c5481565b610144600a81565b61017361021c366004610b8e565b610316565b61017361022f366004610ba7565b610323565b61014460015481565b610144600a5481565b610173610254366004610bd3565b6103e6565b610144610267366004610b8e565b61047b565b61027461050a565b61027d81610535565b60006102888261047b565b6000818152600360205260409020549091506102a48185610556565b60008381526003602052604090819020829055517f2474663d6ed22eb32ac7ea5317229568788bca22fe6d2d8d676cf0c6edf98f6c916102e79190815260200190565b60405180910390a150505050565b6102fd610562565b61030760006105bc565b565b610311610562565b600b55565b61031e610562565b600c55565b61032b61050a565b60006103368261047b565b90508260046000838152602001908152602001600020600082825461035b9190610c12565b9091555061036b90508184610624565b6000610376856108e0565b905061038181610a5d565b60055460405163374e775960e21b8152600481018390526001600160a01b039091169063dd39dd6490602401600060405180830381600087803b1580156103c757600080fd5b505af11580156103db573d6000803e3d6000fd5b505050505050505050565b6103ee610562565b6001600160a01b03811661046f5760405162461bcd60e51b815260206004820152602660248201527f4f776e61626c653a206e6577206f776e657220697320746865207a65726f206160448201527f646472657373000000000000000000000000000000000000000000000000000060648201526084015b60405180910390fd5b610478816105bc565b50565b60008160015411156104c6576104c06104b76002546104b16002546104ab876001546104fe90919063ffffffff16565b90610ab7565b906104f2565b600154906104fe565b92915050565b6001546002546000916104eb916104e5906104b1816104ab89866104fe565b90610556565b9392505050565b60006104eb8284610c25565b60006104eb8284610c3c565b6005546001600160a01b0316331461030757604051631f20b94f60e31b815260040160405180910390fd5b4281101561047857604051633e985f4760e01b815260040160405180910390fd5b60006104eb8284610c12565b6000546001600160a01b031633146103075760405162461bcd60e51b815260206004820181905260248201527f4f776e61626c653a2063616c6c6572206973206e6f7420746865206f776e65726044820152606401610466565b600080546001600160a01b038381167fffffffffffffffffffffffff0000000000000000000000000000000000000000831681178455604051919092169283917f8be0079c531659141344cd1fd0a4f28419497f9722a3daafe3b4186f6b6457e09190a35050565b60095482111561083a5760015b61063d60095484610ac3565b811161075057600061066661065d600254846104f290919063ffffffff16565b60095490610556565b905060036000828152602001908152602001600020546006600082825461068d9190610c12565b909155505060008181526004602052604081205460078054919290916106b4908490610c12565b925050819055506106fc6040518060400160405280600d81526020017f50726f666974204c503a20256900000000000000000000000000000000000000815250600654610aed565b61073d6040518060400160405280601181526020017f50726f66697420506c617965723a202569000000000000000000000000000000815250600754610aed565b508061074881610c4f565b915050610631565b5060015b61078060085461077b610774600254600a546104f290919063ffffffff16565b86906104fe565b610ac3565b81116108115760006107a96107a0600254846104f290919063ffffffff16565b60085490610556565b90506003600082815260200190815260200160002054600660008282546107d09190610c3c565b909155505060008181526004602052604081205460078054919290916107f7908490610c3c565b90915550829150610809905081610c4f565b915050610754565b506009829055600254600a546108329161082b91906104f2565b83906104fe565b60085561088b565b600954821115801561086e575061086a610861600254600a546104f290919063ffffffff16565b600954906104fe565b8210155b1561088b5780600760008282546108859190610c12565b90915550505b6008546009546006546007546040805194855260208501939093529183015260608201527f30a6bf43bdcb402bcd3d83aa60ae4b6aaff2299cb00a779824cdcf50d543d08e9060800160405180910390a15050565b60008060065460001461090d576006546007546108fe906064610c25565b6109089190610c68565b610910565b60005b90506109516040518060400160405280600e81526020017f6e657720666163746f723a20256900000000000000000000000000000000000081525082610aed565b600b54811115610a1e576000600b548261096b9190610c3c565b90506000600c548261097d9190610c68565b90506109be6040518060400160405280600d81526020017f61646a7573746d656e742025690000000000000000000000000000000000000081525082610aed565b6109fd6040518060400160405280601681526020017f63757272656e745061796f7574466163746f722025690000000000000000000081525086610aed565b808511610a0b57600a610a15565b610a158186610c3c565b95945050505050565b600b54811015610a5657600081600b54610a389190610c3c565b90506000600c5482610a4a9190610c68565b9050610a158186610c12565b5090919050565b61047881604051602401610a7391815260200190565b60408051601f198184030181529190526020810180517bffffffffffffffffffffffffffffffffffffffffffffffffffffffff1663f82c50f160e01b179052610b4b565b60006104eb8284610c68565b600080838311610ad4576000610ae5565b600254610ae5906104ab85876104fe565b949350505050565b610b478282604051602401610b03929190610c8a565b60408051601f198184030181529190526020810180517bffffffffffffffffffffffffffffffffffffffffffffffffffffffff16632d839cb360e21b179052610b4b565b5050565b80516a636f6e736f6c652e6c6f67602083016000808483855afa5050505050565b60008060408385031215610b7f57600080fd5b50508035926020909101359150565b600060208284031215610ba057600080fd5b5035919050565b600080600060608486031215610bbc57600080fd5b505081359360208301359350604090920135919050565b600060208284031215610be557600080fd5b81356001600160a01b03811681146104eb57600080fd5b634e487b7160e01b600052601160045260246000fd5b808201808211156104c0576104c0610bfc565b80820281158282048414176104c0576104c0610bfc565b818103818111156104c0576104c0610bfc565b600060018201610c6157610c61610bfc565b5060010190565b600082610c8557634e487b7160e01b600052601260045260246000fd5b500490565b604081526000835180604084015260005b81811015610cb85760208187018101516060868401015201610c9b565b506000606082850101526060601f19601f830116840101915050826020830152939250505056fea2646970667358221220cdc67d3978f91ab51174471357cd299bb3c16a78d184737834dbdefcd3745d0064736f6c63430008110033",
  "devdoc": {
    "kind": "dev",
    "methods": {
      "owner()": {
        "details": "Returns the address of the current owner."
      },
      "renounceOwnership()": {
        "details": "Leaves the contract without owner. It will not be possible to call `onlyOwner` functions anymore. Can only be called by the current owner. NOTE: Renouncing ownership will leave the contract without an owner, thereby removing any functionality that is only available to the owner."
      },
      "transferOwnership(address)": {
        "details": "Transfers ownership of the contract to a new account (`newOwner`). Can only be called by the current owner."
      }
    },
    "version": 1
  },
  "userdoc": {
    "kind": "user",
    "methods": {},
    "version": 1
  },
  "storageLayout": {
    "storage": [
      {
        "astId": 7,
        "contract": "contracts/core/DefiBetsPayoutRatio.sol:DefiBetsPayoutRatio",
        "label": "_owner",
        "offset": 0,
        "slot": "0",
        "type": "t_address"
      },
      {
        "astId": 469,
        "contract": "contracts/core/DefiBetsPayoutRatio.sol:DefiBetsPayoutRatio",
        "label": "startTimestamp",
        "offset": 0,
        "slot": "1",
        "type": "t_uint256"
      },
      {
        "astId": 472,
        "contract": "contracts/core/DefiBetsPayoutRatio.sol:DefiBetsPayoutRatio",
        "label": "delta",
        "offset": 0,
        "slot": "2",
        "type": "t_uint256"
      },
      {
        "astId": 476,
        "contract": "contracts/core/DefiBetsPayoutRatio.sol:DefiBetsPayoutRatio",
        "label": "totalProfitLP",
        "offset": 0,
        "slot": "3",
        "type": "t_mapping(t_uint256,t_uint256)"
      },
      {
        "astId": 480,
        "contract": "contracts/core/DefiBetsPayoutRatio.sol:DefiBetsPayoutRatio",
        "label": "totalProfitPlayer",
        "offset": 0,
        "slot": "4",
        "type": "t_mapping(t_uint256,t_uint256)"
      },
      {
        "astId": 482,
        "contract": "contracts/core/DefiBetsPayoutRatio.sol:DefiBetsPayoutRatio",
        "label": "managerContract",
        "offset": 0,
        "slot": "5",
        "type": "t_address"
      },
      {
        "astId": 484,
        "contract": "contracts/core/DefiBetsPayoutRatio.sol:DefiBetsPayoutRatio",
        "label": "currProfitsPeriodLP",
        "offset": 0,
        "slot": "6",
        "type": "t_uint256"
      },
      {
        "astId": 486,
        "contract": "contracts/core/DefiBetsPayoutRatio.sol:DefiBetsPayoutRatio",
        "label": "currProfitsPeriodPlayer",
        "offset": 0,
        "slot": "7",
        "type": "t_uint256"
      },
      {
        "astId": 488,
        "contract": "contracts/core/DefiBetsPayoutRatio.sol:DefiBetsPayoutRatio",
        "label": "startIndex",
        "offset": 0,
        "slot": "8",
        "type": "t_uint256"
      },
      {
        "astId": 490,
        "contract": "contracts/core/DefiBetsPayoutRatio.sol:DefiBetsPayoutRatio",
        "label": "endIndex",
        "offset": 0,
        "slot": "9",
        "type": "t_uint256"
      },
      {
        "astId": 492,
        "contract": "contracts/core/DefiBetsPayoutRatio.sol:DefiBetsPayoutRatio",
        "label": "period",
        "offset": 0,
        "slot": "10",
        "type": "t_uint256"
      },
      {
        "astId": 494,
        "contract": "contracts/core/DefiBetsPayoutRatio.sol:DefiBetsPayoutRatio",
        "label": "targetPayoutRatio",
        "offset": 0,
        "slot": "11",
        "type": "t_uint256"
      },
      {
        "astId": 497,
        "contract": "contracts/core/DefiBetsPayoutRatio.sol:DefiBetsPayoutRatio",
        "label": "adjustmentFactor",
        "offset": 0,
        "slot": "12",
        "type": "t_uint256"
      }
    ],
    "types": {
      "t_address": {
        "encoding": "inplace",
        "label": "address",
        "numberOfBytes": "20"
      },
      "t_mapping(t_uint256,t_uint256)": {
        "encoding": "mapping",
        "key": "t_uint256",
        "label": "mapping(uint256 => uint256)",
        "numberOfBytes": "32",
        "value": "t_uint256"
      },
      "t_uint256": {
        "encoding": "inplace",
        "label": "uint256",
        "numberOfBytes": "32"
      }
    }
  }
}