{
  "address": "0x530581A6aB5339720c911A5e80CB9B9F731cd9B0",
  "abi": [
    {
      "inputs": [
        {
          "internalType": "uint256",
          "name": "_feePpm",
          "type": "uint256"
        },
        {
          "internalType": "uint8",
          "name": "_startPayoutFactor",
          "type": "uint8"
        }
      ],
      "stateMutability": "nonpayable",
      "type": "constructor"
    },
    {
      "inputs": [],
      "name": "DefiBetsManager__AccessForbidden",
      "type": "error"
    },
    {
      "inputs": [],
      "name": "DefiBetsManager__FeeNotAllowed",
      "type": "error"
    },
    {
      "inputs": [],
      "name": "DefiBetsManager__FeeWouldBeTooSmall",
      "type": "error"
    },
    {
      "inputs": [],
      "name": "DefiBetsManager__NoLiquidity",
      "type": "error"
    },
    {
      "inputs": [],
      "name": "DefiBetsManager__NoValidUnderlying",
      "type": "error"
    },
    {
      "inputs": [],
      "name": "DefiBetsManager__NotValidRoundId",
      "type": "error"
    },
    {
      "inputs": [],
      "name": "DefiBetsManager__ParamNull",
      "type": "error"
    },
    {
      "anonymous": false,
      "inputs": [
        {
          "indexed": false,
          "internalType": "uint256",
          "name": "feePpm",
          "type": "uint256"
        }
      ],
      "name": "FeeUpdated",
      "type": "event"
    },
    {
      "anonymous": false,
      "inputs": [
        {
          "indexed": false,
          "internalType": "bytes32",
          "name": "underlying",
          "type": "bytes32"
        },
        {
          "indexed": false,
          "internalType": "address",
          "name": "feed",
          "type": "address"
        },
        {
          "indexed": false,
          "internalType": "uint256",
          "name": "period",
          "type": "uint256"
        }
      ],
      "name": "IVFeedUpdated",
      "type": "event"
    },
    {
      "anonymous": false,
      "inputs": [
        {
          "indexed": true,
          "internalType": "address",
          "name": "previousOwner",
          "type": "address"
        },
        {
          "indexed": true,
          "internalType": "address",
          "name": "newOwner",
          "type": "address"
        }
      ],
      "name": "OwnershipTransferred",
      "type": "event"
    },
    {
      "anonymous": false,
      "inputs": [
        {
          "indexed": false,
          "internalType": "address",
          "name": "account",
          "type": "address"
        }
      ],
      "name": "Paused",
      "type": "event"
    },
    {
      "anonymous": false,
      "inputs": [
        {
          "indexed": false,
          "internalType": "bytes32",
          "name": "underlying",
          "type": "bytes32"
        },
        {
          "indexed": false,
          "internalType": "address",
          "name": "priceFeed",
          "type": "address"
        }
      ],
      "name": "PriceFeedUpdated",
      "type": "event"
    },
    {
      "anonymous": false,
      "inputs": [
        {
          "indexed": false,
          "internalType": "string",
          "name": "underlying",
          "type": "string"
        },
        {
          "indexed": false,
          "internalType": "bytes32",
          "name": "underlyingHash",
          "type": "bytes32"
        },
        {
          "indexed": false,
          "internalType": "address",
          "name": "defiBets",
          "type": "address"
        },
        {
          "indexed": false,
          "internalType": "address",
          "name": "vault",
          "type": "address"
        }
      ],
      "name": "UnderlyingAdded",
      "type": "event"
    },
    {
      "anonymous": false,
      "inputs": [
        {
          "indexed": false,
          "internalType": "address",
          "name": "account",
          "type": "address"
        }
      ],
      "name": "Unpaused",
      "type": "event"
    },
    {
      "inputs": [],
      "name": "MAX_FEE_PPM",
      "outputs": [
        {
          "internalType": "uint256",
          "name": "",
          "type": "uint256"
        }
      ],
      "stateMutability": "view",
      "type": "function"
    },
    {
      "inputs": [],
      "name": "MILLION",
      "outputs": [
        {
          "internalType": "uint256",
          "name": "",
          "type": "uint256"
        }
      ],
      "stateMutability": "view",
      "type": "function"
    },
    {
      "inputs": [
        {
          "internalType": "string",
          "name": "_underlying",
          "type": "string"
        },
        {
          "internalType": "address",
          "name": "_feed",
          "type": "address"
        },
        {
          "internalType": "address",
          "name": "_defiBets",
          "type": "address"
        },
        {
          "internalType": "address",
          "name": "_vault",
          "type": "address"
        }
      ],
      "name": "addUnderlyingToken",
      "outputs": [],
      "stateMutability": "nonpayable",
      "type": "function"
    },
    {
      "inputs": [
        {
          "internalType": "uint256",
          "name": "_amount",
          "type": "uint256"
        }
      ],
      "name": "calculateFee",
      "outputs": [
        {
          "internalType": "uint256",
          "name": "",
          "type": "uint256"
        }
      ],
      "stateMutability": "view",
      "type": "function"
    },
    {
      "inputs": [
        {
          "internalType": "uint256",
          "name": "_price",
          "type": "uint256"
        },
        {
          "internalType": "uint256",
          "name": "_betSize",
          "type": "uint256"
        },
        {
          "internalType": "uint256",
          "name": "_minPrice",
          "type": "uint256"
        },
        {
          "internalType": "uint256",
          "name": "_maxPrice",
          "type": "uint256"
        },
        {
          "internalType": "uint256",
          "name": "_expTime",
          "type": "uint256"
        },
        {
          "internalType": "bytes32",
          "name": "_hash",
          "type": "bytes32"
        }
      ],
      "name": "calculateWinning",
      "outputs": [
        {
          "internalType": "uint256",
          "name": "",
          "type": "uint256"
        }
      ],
      "stateMutability": "view",
      "type": "function"
    },
    {
      "inputs": [
        {
          "internalType": "uint256",
          "name": "_tokenId",
          "type": "uint256"
        },
        {
          "internalType": "bytes32",
          "name": "_hash",
          "type": "bytes32"
        }
      ],
      "name": "claimWinnings",
      "outputs": [],
      "stateMutability": "nonpayable",
      "type": "function"
    },
    {
      "inputs": [
        {
          "internalType": "bytes32",
          "name": "_tokenHash",
          "type": "bytes32"
        }
      ],
      "name": "createNewExpTime",
      "outputs": [],
      "stateMutability": "nonpayable",
      "type": "function"
    },
    {
      "inputs": [
        {
          "internalType": "bytes32",
          "name": "",
          "type": "bytes32"
        }
      ],
      "name": "defiBetsContracts",
      "outputs": [
        {
          "internalType": "address",
          "name": "",
          "type": "address"
        }
      ],
      "stateMutability": "view",
      "type": "function"
    },
    {
      "inputs": [
        {
          "internalType": "uint256",
          "name": "_expTime",
          "type": "uint256"
        },
        {
          "internalType": "string",
          "name": "_underlying",
          "type": "string"
        },
        {
          "internalType": "uint80",
          "name": "_roundId",
          "type": "uint80"
        }
      ],
      "name": "executeExpiration",
      "outputs": [],
      "stateMutability": "nonpayable",
      "type": "function"
    },
    {
      "inputs": [],
      "name": "feePpm",
      "outputs": [
        {
          "internalType": "uint256",
          "name": "",
          "type": "uint256"
        }
      ],
      "stateMutability": "view",
      "type": "function"
    },
    {
      "inputs": [
        {
          "internalType": "bytes32",
          "name": "_hash",
          "type": "bytes32"
        }
      ],
      "name": "getCurrPrice",
      "outputs": [
        {
          "internalType": "uint256",
          "name": "",
          "type": "uint256"
        }
      ],
      "stateMutability": "view",
      "type": "function"
    },
    {
      "inputs": [
        {
          "internalType": "bytes32",
          "name": "_hash",
          "type": "bytes32"
        }
      ],
      "name": "getImplVol",
      "outputs": [
        {
          "internalType": "uint256",
          "name": "",
          "type": "uint256"
        }
      ],
      "stateMutability": "view",
      "type": "function"
    },
    {
      "inputs": [],
      "name": "getLPTokenSupplies",
      "outputs": [
        {
          "internalType": "uint256",
          "name": "",
          "type": "uint256"
        },
        {
          "internalType": "uint256",
          "name": "",
          "type": "uint256"
        }
      ],
      "stateMutability": "view",
      "type": "function"
    },
    {
      "inputs": [
        {
          "internalType": "bytes32",
          "name": "_hash",
          "type": "bytes32"
        },
        {
          "internalType": "uint256",
          "name": "_expTime",
          "type": "uint256"
        },
        {
          "internalType": "uint80",
          "name": "_roundId",
          "type": "uint80"
        }
      ],
      "name": "getPrice",
      "outputs": [
        {
          "internalType": "uint256",
          "name": "",
          "type": "uint256"
        }
      ],
      "stateMutability": "view",
      "type": "function"
    },
    {
      "inputs": [
        {
          "internalType": "string",
          "name": "_token",
          "type": "string"
        }
      ],
      "name": "getUnderlyingByte",
      "outputs": [
        {
          "internalType": "bytes32",
          "name": "",
          "type": "bytes32"
        }
      ],
      "stateMutability": "pure",
      "type": "function"
    },
    {
      "inputs": [
        {
          "internalType": "bytes32",
          "name": "_hash",
          "type": "bytes32"
        },
        {
          "internalType": "uint256",
          "name": "_startExpTime",
          "type": "uint256"
        },
        {
          "internalType": "uint256",
          "name": "_minBetDuration",
          "type": "uint256"
        },
        {
          "internalType": "uint256",
          "name": "_maxBetDuration",
          "type": "uint256"
        },
        {
          "internalType": "uint256",
          "name": "_slot",
          "type": "uint256"
        },
        {
          "internalType": "uint256",
          "name": "_maxWinMultiplier",
          "type": "uint256"
        }
      ],
      "name": "initializeBets",
      "outputs": [],
      "stateMutability": "nonpayable",
      "type": "function"
    },
    {
      "inputs": [],
      "name": "liquidityPool",
      "outputs": [
        {
          "internalType": "address",
          "name": "",
          "type": "address"
        }
      ],
      "stateMutability": "view",
      "type": "function"
    },
    {
      "inputs": [],
      "name": "owner",
      "outputs": [
        {
          "internalType": "address",
          "name": "",
          "type": "address"
        }
      ],
      "stateMutability": "view",
      "type": "function"
    },
    {
      "inputs": [],
      "name": "paused",
      "outputs": [
        {
          "internalType": "bool",
          "name": "",
          "type": "bool"
        }
      ],
      "stateMutability": "view",
      "type": "function"
    },
    {
      "inputs": [],
      "name": "payoutFactor",
      "outputs": [
        {
          "internalType": "uint256",
          "name": "",
          "type": "uint256"
        }
      ],
      "stateMutability": "view",
      "type": "function"
    },
    {
      "inputs": [],
      "name": "payoutRatioContract",
      "outputs": [
        {
          "internalType": "address",
          "name": "",
          "type": "address"
        }
      ],
      "stateMutability": "view",
      "type": "function"
    },
    {
      "inputs": [
        {
          "internalType": "uint256",
          "name": "_amount",
          "type": "uint256"
        }
      ],
      "name": "provideLP",
      "outputs": [],
      "stateMutability": "nonpayable",
      "type": "function"
    },
    {
      "inputs": [
        {
          "internalType": "uint256",
          "name": "_amount",
          "type": "uint256"
        }
      ],
      "name": "redeemLPTokens",
      "outputs": [],
      "stateMutability": "nonpayable",
      "type": "function"
    },
    {
      "inputs": [],
      "name": "renounceOwnership",
      "outputs": [],
      "stateMutability": "nonpayable",
      "type": "function"
    },
    {
      "inputs": [
        {
          "internalType": "address",
          "name": "_liquidityPool",
          "type": "address"
        },
        {
          "internalType": "address",
          "name": "_payoutRatioContract",
          "type": "address"
        }
      ],
      "name": "setAddresses",
      "outputs": [],
      "stateMutability": "nonpayable",
      "type": "function"
    },
    {
      "inputs": [
        {
          "internalType": "uint256",
          "name": "_betSize",
          "type": "uint256"
        },
        {
          "internalType": "uint256",
          "name": "_minPrice",
          "type": "uint256"
        },
        {
          "internalType": "uint256",
          "name": "_maxPrice",
          "type": "uint256"
        },
        {
          "internalType": "uint256",
          "name": "_expTime",
          "type": "uint256"
        },
        {
          "internalType": "string",
          "name": "_underlying",
          "type": "string"
        }
      ],
      "name": "setBet",
      "outputs": [],
      "stateMutability": "nonpayable",
      "type": "function"
    },
    {
      "inputs": [
        {
          "internalType": "uint256",
          "name": "_maxLossPerExpTime",
          "type": "uint256"
        },
        {
          "internalType": "uint256",
          "name": "_minBetDuration",
          "type": "uint256"
        },
        {
          "internalType": "uint256",
          "name": "_maxBetDuration",
          "type": "uint256"
        },
        {
          "internalType": "uint256",
          "name": "_slot",
          "type": "uint256"
        },
        {
          "internalType": "uint256",
          "name": "_maxWinMultiplier",
          "type": "uint256"
        },
        {
          "internalType": "uint256",
          "name": "_timeDelta",
          "type": "uint256"
        },
        {
          "internalType": "uint256",
          "name": "_dependentTimeStamp",
          "type": "uint256"
        },
        {
          "internalType": "bytes32",
          "name": "_hash",
          "type": "bytes32"
        }
      ],
      "name": "setDefiBetsParameter",
      "outputs": [],
      "stateMutability": "nonpayable",
      "type": "function"
    },
    {
      "inputs": [
        {
          "internalType": "uint256",
          "name": "_newFee",
          "type": "uint256"
        }
      ],
      "name": "setFeesPpm",
      "outputs": [],
      "stateMutability": "nonpayable",
      "type": "function"
    },
    {
      "inputs": [
        {
          "internalType": "uint256",
          "name": "_payoutFactor",
          "type": "uint256"
        }
      ],
      "name": "setNewPayoutFactor",
      "outputs": [],
      "stateMutability": "nonpayable",
      "type": "function"
    },
    {
      "inputs": [
        {
          "internalType": "address",
          "name": "newOwner",
          "type": "address"
        }
      ],
      "name": "transferOwnership",
      "outputs": [],
      "stateMutability": "nonpayable",
      "type": "function"
    },
    {
      "inputs": [
        {
          "internalType": "bytes32",
          "name": "",
          "type": "bytes32"
        }
      ],
      "name": "underlyingIVFeeds",
      "outputs": [
        {
          "internalType": "address",
          "name": "feedAddress",
          "type": "address"
        },
        {
          "internalType": "uint256",
          "name": "period",
          "type": "uint256"
        }
      ],
      "stateMutability": "view",
      "type": "function"
    },
    {
      "inputs": [
        {
          "internalType": "bytes32",
          "name": "",
          "type": "bytes32"
        }
      ],
      "name": "underlyingPriceFeeds",
      "outputs": [
        {
          "internalType": "address",
          "name": "",
          "type": "address"
        }
      ],
      "stateMutability": "view",
      "type": "function"
    },
    {
      "inputs": [
        {
          "internalType": "bytes32",
          "name": "_hash",
          "type": "bytes32"
        },
        {
          "internalType": "address",
          "name": "_feed",
          "type": "address"
        },
        {
          "internalType": "uint256",
          "name": "_period",
          "type": "uint256"
        }
      ],
      "name": "updateIVFeed",
      "outputs": [],
      "stateMutability": "nonpayable",
      "type": "function"
    },
    {
      "inputs": [
        {
          "internalType": "uint256",
          "name": "_newMaxLoss",
          "type": "uint256"
        }
      ],
      "name": "updateMaxLPLoss",
      "outputs": [],
      "stateMutability": "nonpayable",
      "type": "function"
    },
    {
      "inputs": [
        {
          "internalType": "bytes32",
          "name": "_hash",
          "type": "bytes32"
        },
        {
          "internalType": "address",
          "name": "_feed",
          "type": "address"
        }
      ],
      "name": "updatePriceFeed",
      "outputs": [],
      "stateMutability": "nonpayable",
      "type": "function"
    },
    {
      "inputs": [
        {
          "internalType": "bytes32",
          "name": "",
          "type": "bytes32"
        }
      ],
      "name": "validUnderlying",
      "outputs": [
        {
          "internalType": "bool",
          "name": "",
          "type": "bool"
        }
      ],
      "stateMutability": "view",
      "type": "function"
    },
    {
      "inputs": [
        {
          "internalType": "bytes32",
          "name": "",
          "type": "bytes32"
        }
      ],
      "name": "vaults",
      "outputs": [
        {
          "internalType": "address",
          "name": "",
          "type": "address"
        }
      ],
      "stateMutability": "view",
      "type": "function"
    }
  ],
  "transactionHash": "0x697758bafad7ecf64f45e997fc841ed967fa4686aef75b643cce8b1c3f53eb13",
  "args": [
    20000,
    90
  ],
  "numDeployments": 1,
  "solcInputHash": "e28a36666c9a4976d66ee507adf63d59",
  "bytecode": "0x60806040523480156200001157600080fd5b506040516200221f3803806200221f8339810160408190526200003491620000b4565b6000805460ff1916905562000049336200005b565b60039190915560ff16600455620000ec565b600080546001600160a01b03838116610100818102610100600160a81b0319851617855560405193049190911692909183917f8be0079c531659141344cd1fd0a4f28419497f9722a3daafe3b4186f6b6457e091a35050565b60008060408385031215620000c857600080fd5b82519150602083015160ff81168114620000e157600080fd5b809150509250929050565b61212380620000fc6000396000f3fe608060405234801561001057600080fd5b50600436106102775760003560e01c80639c21547811610160578063d21c2b5b116100d8578063e1ec18c51161008c578063f2fde38b11610071578063f2fde38b1461059f578063f643380e146105b2578063fd9a6035146105c557600080fd5b8063e1ec18c514610579578063f1647daf1461058c57600080fd5b8063d8c46832116100bd578063d8c468321461052a578063dd39dd6414610553578063e16fc60b1461056657600080fd5b8063d21c2b5b146104f4578063d7861d861461050757600080fd5b8063b54279b41161012f578063c2b6cc9d11610114578063c2b6cc9d146104a5578063c81b2701146104b8578063cca23bf2146104cb57600080fd5b8063b54279b41461047f578063bdeda8331461049257600080fd5b80639c2154781461043d5780639e10556914610446578063a534150c14610463578063b483324e1461046c57600080fd5b80635c975abb116101f3578063801459fa116101c25780638da5cb5b116101a75780638da5cb5b1461040157806390107afe1461041757806399a5d7471461042a57600080fd5b8063801459fa146103db57806383168d96146103ee57600080fd5b80635c975abb14610368578063665a11ca1461037f578063715018a6146103aa578063781e98ae146103b257600080fd5b806325d19adf1161024a5780633476d36f1161022f5780633476d36f146102f057806336964579146103035780634abfa5701461035557600080fd5b806325d19adf146102d357806332bc934c146102e657600080fd5b806301ff572d1461027c578063068ac10b1461029857806319b48b51146102ad5780631e1f5af9146102c0575b600080fd5b61028561c35081565b6040519081526020015b60405180910390f35b6102ab6102a6366004611bb6565b6105de565b005b6102ab6102bb366004611c25565b61069e565b6102ab6102ce366004611c3e565b61070e565b6102ab6102e1366004611c60565b610830565b610285620f424081565b6102856102fe366004611c25565b610984565b610336610311366004611c25565b600560205260009081526040902080546001909101546001600160a01b039091169082565b604080516001600160a01b03909316835260208301919091520161028f565b6102ab610363366004611cc4565b610a0a565b60005460ff165b604051901515815260200161028f565b600154610392906001600160a01b031681565b6040516001600160a01b03909116815260200161028f565b6102ab610a81565b6103926103c0366004611c25565b6008602052600090815260409020546001600160a01b031681565b6102ab6103e9366004611c25565b610a95565b600254610392906001600160a01b031681565b60005461010090046001600160a01b0316610392565b6102ab610425366004611cf0565b610ace565b610285610438366004611c25565b610b04565b61028560045481565b61044e610b6e565b6040805192835260208301919091520161028f565b61028560035481565b61028561047a366004611c25565b610c70565b6102ab61048d366004611d32565b610cfc565b6102ab6104a0366004611c25565b610fce565b6102856104b3366004611d8d565b61100d565b6102ab6104c6366004611dd0565b611101565b6103926104d9366004611c25565b6009602052600090815260409020546001600160a01b031681565b610285610502366004611e05565b6111a2565b61036f610515366004611c25565b60076020526000908152604090205460ff1681565b610392610538366004611c25565b6006602052600090815260409020546001600160a01b031681565b6102ab610561366004611c25565b611318565b6102ab610574366004611c25565b611325565b6102ab610587366004611c25565b61138b565b6102ab61059a366004611d8d565b611475565b6102ab6105ad366004611e33565b6115aa565b6102ab6105c0366004611e4e565b61163f565b6102856105d3366004611ea3565b805160209091012090565b6105e66116f2565b835160208501206000906000818152600760205260409020805460ff1916600117905590506106158185610a0a565b600081815260086020908152604080832080546001600160a01b038089166001600160a01b031992831617909255600990935292819020805493861693909216929092179055517f45046f1ab82ba3091edd1e8cb02c3f81701f884b7b85b306074f0d22a56426019061068f908790849087908790611ed8565b60405180910390a15050505050565b6106a6611752565b60015460405163342fcda960e01b8152336004820152602481018390526001600160a01b039091169063342fcda9906044015b600060405180830381600087803b1580156106f357600080fd5b505af1158015610707573d6000803e3d6000fd5b5050505050565b610716611752565b60008181526008602090815260408083205460099092528083205490516302d695fb60e61b8152336004820152602481018690526001600160a01b039283169392909116919081908190859063b5a57ec0906044016060604051808303816000875af115801561078a573d6000803e3d6000fd5b505050506040513d601f19601f820116820180604052508101906107ae9190611f63565b9194509250905080151560010361082757604051635ae2fb3960e11b815233600482015260248101849052604481018390526001600160a01b0385169063b5c5f67290606401600060405180830381600087803b15801561080e57600080fd5b505af1158015610822573d6000803e3d6000fd5b505050505b50505050505050565b610838611752565b80516020820120610848816117a5565b600061085387610b04565b9050600061086083610c70565b90506000610872828a8a8a8a8961100d565b6000858152600860209081526040808320546009909252909120549192506001600160a01b0390811691166108ab828c8c8c8c886117d8565b6002546040516321cbbc8f60e11b8152600481018d90526001600160a01b0390911690634397791e90602401600060405180830381600087803b1580156108f157600080fd5b505af1158015610905573d6000803e3d6000fd5b505060405163ce88b43960e01b8152336004820152602481018e9052604481018b9052606481018890526001600160a01b038416925063ce88b4399150608401600060405180830381600087803b15801561095f57600080fd5b505af1158015610973573d6000803e3d6000fd5b505050505050505050505050505050565b600081815260056020526040808220548151633fabe5a360e21b8152915183926001600160a01b039092169163feaf968c9160048083019260a09291908290030181865afa1580156109da573d6000803e3d6000fd5b505050506040513d601f19601f820116820180604052508101906109fe9190611f98565b50919695505050505050565b610a126116f2565b610a1b826117a5565b60008281526006602090815260409182902080546001600160a01b0319166001600160a01b0385169081179091558251858152918201527f27a631f806df69f5736e2af408403723bdc58644d3b14bcadfafcc9e44747c3f910160405180910390a15050565b610a896116f2565b610a9360006118ad565b565b610a9d6116f2565b600154604051637c946aa160e11b8152600481018390526001600160a01b039091169063f928d542906024016106d9565b610ad66116f2565b600180546001600160a01b039384166001600160a01b03199182161790915560028054929093169116179055565b6000610b0f8261191d565b600354600003610b2157506000919050565b6000610b45620f4240610b3f6003548661193e90919063ffffffff16565b90611951565b905080600003610b685760405163a0330a1560e01b815260040160405180910390fd5b92915050565b6000806000600160009054906101000a90046001600160a01b03166001600160a01b0316631ca8b6cb6040518163ffffffff1660e01b8152600401602060405180830381865afa158015610bc6573d6000803e3d6000fd5b505050506040513d601f19601f82011682018060405250810190610bea9190611ff0565b90506000600160009054906101000a90046001600160a01b03166001600160a01b031663391339526040518163ffffffff1660e01b8152600401602060405180830381865afa158015610c41573d6000803e3d6000fd5b505050506040513d601f19601f82011682018060405250810190610c659190611ff0565b919491935090915050565b600081815260066020526040808220548151633fabe5a360e21b8152915183926001600160a01b03909216918391839163feaf968c9160048083019260a09291908290030181865afa158015610cca573d6000803e3d6000fd5b505050506040513d601f19601f82011682018060405250810190610cee9190611f98565b509198975050505050505050565b610d04611752565b81516020830120610d14816117a5565b6000610d218286856111a2565b6000838152600860209081526040808320546009909252808320549051637b5d7eb760e01b8152600481018a9052602481018590529394506001600160a01b039182169391169190819081908590637b5d7eb7906044016060604051808303816000875af1158015610d97573d6000803e3d6000fd5b505050506040513d601f19601f82011682018060405250810190610dbb9190612009565b91945092509050811515600103610ea4576002546004805460405163be123f3d60e01b815291820152602481018390526001600160a01b039091169063be123f3d90604401600060405180830381600087803b158015610e1a57600080fd5b505af1158015610e2e573d6000803e3d6000fd5b5050600154604051635ae2fb3960e11b81526001600160a01b03918216600482015260248101879052604481018e9052908716925063b5c5f6729150606401600060405180830381600087803b158015610e8757600080fd5b505af1158015610e9b573d6000803e3d6000fd5b50505050610f64565b600154604051635c1e21f360e01b8152600481018590526001600160a01b0390911690635c1e21f390602401600060405180830381600087803b158015610eea57600080fd5b505af1158015610efe573d6000803e3d6000fd5b5050604051630eb5b62d60e21b8152600481018d9052602481018690526001600160a01b0387169250633ad6d8b49150604401600060405180830381600087803b158015610f4b57600080fd5b505af1158015610f5f573d6000803e3d6000fd5b505050505b60015460405163d830de9760e01b8152600481018c90526001600160a01b039091169063d830de9790602401600060405180830381600087803b158015610faa57600080fd5b505af1158015610fbe573d6000803e3d6000fd5b5050505050505050505050505050565b610fd6611752565b60015460405163299b7ba760e21b8152336004820152602481018390526001600160a01b039091169063a66dee9c906044016106d9565b6000807356C56c4b1CB71d7Fb7A8DaD7c7e75BD3925C4f8a63ea75fe3b87878b61103688610984565b6000898152600560205260409020600101546110528b4261195d565b6040517fffffffff0000000000000000000000000000000000000000000000000000000060e089901b1681526004810196909652602486019490945260448501929092526064840152608483015260a482015260c401602060405180830381865af41580156110c5573d6000803e3d6000fd5b505050506040513d601f19601f820116820180604052508101906110e99190611ff0565b90506110f58782611969565b98975050505050505050565b6111096116f2565b611112836117a5565b6040805180820182526001600160a01b038481168083526020808401868152600089815260058352869020945185546001600160a01b031916941693909317845591516001909301929092558251868152908101919091529081018290527fbb4dc1f858dc4ab6018e947383bf61056ed4464166a78c05fb59d69c53f3f4b29060600160405180910390a1505050565b60008381526006602052604081205481906001600160a01b0316158015906111ca5750834210155b1561131057600085815260066020526040808220548151633fabe5a360e21b815291516001600160a01b03909116929182918291859163feaf968c9160048082019260a0929091908290030181865afa15801561122b573d6000803e3d6000fd5b505050506040513d601f19601f8201168201806040525081019061124f9190611f98565b50935050925092506112648888858488611995565b8669ffffffffffffffffffff168369ffffffffffffffffffff160361128b5781945061130b565b604051639a6fc8f560e01b815269ffffffffffffffffffff881660048201526000906001600160a01b03861690639a6fc8f59060240160a060405180830381865afa1580156112de573d6000803e3d6000fd5b505050506040513d601f19601f820116820180604052508101906113029190611f98565b50919850505050505b505050505b949350505050565b611320611acc565b600455565b61132d6116f2565b61c35081111561135057604051630490d94960e21b815260040160405180910390fd5b60038190556040518181527f8c4d35e54a3f2ef1134138fd8ea3daee6a3c89e10d2665996babdf70261e2c769060200160405180910390a150565b611393611752565b61139c816117a5565b600154604080516341dc749160e11b815290516000926001600160a01b0316916383b8e922916004808301926020929190829003018187875af11580156113e7573d6000803e3d6000fd5b505050506040513d601f19601f8201168201806040525081019061140b9190611ff0565b600083815260086020526040908190205490516364cda03d60e11b8152600481018390529192506001600160a01b031690819063c99b407a90602401600060405180830381600087803b15801561146157600080fd5b505af1158015610827573d6000803e3d6000fd5b61147d6116f2565b600154604080516341dc749160e11b815290516000926001600160a01b0316916383b8e922916004808301926020929190829003018187875af11580156114c8573d6000803e3d6000fd5b505050506040513d601f19601f820116820180604052508101906114ec9190611ff0565b90508060000361150f57604051635c24d38b60e11b815260040160405180910390fd5b60008781526008602052604090819020549051630a89e95960e31b8152600481018890526024810183905260448101879052606481018690526084810185905260a481018490526001600160a01b0390911690819063544f4ac89060c4015b600060405180830381600087803b15801561158857600080fd5b505af115801561159c573d6000803e3d6000fd5b505050505050505050505050565b6115b26116f2565b6001600160a01b0381166116335760405162461bcd60e51b815260206004820152602660248201527f4f776e61626c653a206e6577206f776e657220697320746865207a65726f206160448201527f646472657373000000000000000000000000000000000000000000000000000060648201526084015b60405180910390fd5b61163c816118ad565b50565b6116476116f2565b611650816117a5565b60008181526008602052604090819020549051630854903b60e31b8152600481018a90526024810188905260448101899052606481018790526084810186905260a4810185905260c481018490526001600160a01b039091169081906342a481d89060e401600060405180830381600087803b1580156116cf57600080fd5b505af11580156116e3573d6000803e3d6000fd5b50505050505050505050505050565b6000546001600160a01b03610100909104163314610a935760405162461bcd60e51b815260206004820181905260248201527f4f776e61626c653a2063616c6c6572206973206e6f7420746865206f776e6572604482015260640161162a565b60005460ff1615610a935760405162461bcd60e51b815260206004820152601060248201527f5061757361626c653a2070617573656400000000000000000000000000000000604482015260640161162a565b60008181526007602052604081205460ff161515900361163c576040516333cb97ff60e11b815260040160405180910390fd5b60405163730cb65160e01b81523360048201526024810186905260448101859052606481018490526084810183905260a4810182905260009081906001600160a01b0389169063730cb6519060c40160408051808303816000875af1158015611845573d6000803e3d6000fd5b505050506040513d601f19601f82011682018060405250810190611869919061203e565b600154604051633ba0590b60e11b8152600481018490528215156024820152604481018890529294509092506001600160a01b031690637740b2169060640161156e565b600080546001600160a01b038381166101008181027fffffffffffffffffffffff0000000000000000000000000000000000000000ff851617855560405193049190911692909183917f8be0079c531659141344cd1fd0a4f28419497f9722a3daafe3b4186f6b6457e091a35050565b8060000361163c576040516389d4a2c760e01b815260040160405180910390fd5b600061194a8284612077565b9392505050565b600061194a828461208e565b600061194a82846120b0565b600061194a6064610b3f60045461198f86610b3f6127108a61193e90919063ffffffff16565b9061193e565b600169ffffffffffffffffffff80851690861611156119b2575060005b8369ffffffffffffffffffff168569ffffffffffffffffffff161015611a7c5760006001600160a01b038316639a6fc8f56119ee8860016120c3565b6040517fffffffff0000000000000000000000000000000000000000000000000000000060e084901b16815269ffffffffffffffffffff909116600482015260240160a060405180830381865afa158015611a4d573d6000803e3d6000fd5b505050506040513d601f19601f82011682018060405250810190611a719190611f98565b508a11159450505050505b8369ffffffffffffffffffff168569ffffffffffffffffffff1603611aa15750848211155b801515600003611ac4576040516309f274a160e01b815260040160405180910390fd5b505050505050565b6002546001600160a01b03163314610a9357604051630d3046a360e41b815260040160405180910390fd5b634e487b7160e01b600052604160045260246000fd5b600082601f830112611b1e57600080fd5b813567ffffffffffffffff80821115611b3957611b39611af7565b604051601f8301601f19908116603f01168101908282118183101715611b6157611b61611af7565b81604052838152866020858801011115611b7a57600080fd5b836020870160208301376000602085830101528094505050505092915050565b80356001600160a01b0381168114611bb157600080fd5b919050565b60008060008060808587031215611bcc57600080fd5b843567ffffffffffffffff811115611be357600080fd5b611bef87828801611b0d565b945050611bfe60208601611b9a565b9250611c0c60408601611b9a565b9150611c1a60608601611b9a565b905092959194509250565b600060208284031215611c3757600080fd5b5035919050565b60008060408385031215611c5157600080fd5b50508035926020909101359150565b600080600080600060a08688031215611c7857600080fd5b85359450602086013593506040860135925060608601359150608086013567ffffffffffffffff811115611cab57600080fd5b611cb788828901611b0d565b9150509295509295909350565b60008060408385031215611cd757600080fd5b82359150611ce760208401611b9a565b90509250929050565b60008060408385031215611d0357600080fd5b611d0c83611b9a565b9150611ce760208401611b9a565b69ffffffffffffffffffff8116811461163c57600080fd5b600080600060608486031215611d4757600080fd5b83359250602084013567ffffffffffffffff811115611d6557600080fd5b611d7186828701611b0d565b9250506040840135611d8281611d1a565b809150509250925092565b60008060008060008060c08789031215611da657600080fd5b505084359660208601359650604086013595606081013595506080810135945060a0013592509050565b600080600060608486031215611de557600080fd5b83359250611df560208501611b9a565b9150604084013590509250925092565b600080600060608486031215611e1a57600080fd5b83359250602084013591506040840135611d8281611d1a565b600060208284031215611e4557600080fd5b61194a82611b9a565b600080600080600080600080610100898b031215611e6b57600080fd5b505086359860208801359850604088013597606081013597506080810135965060a0810135955060c0810135945060e0013592509050565b600060208284031215611eb557600080fd5b813567ffffffffffffffff811115611ecc57600080fd5b61131084828501611b0d565b608081526000855180608084015260005b81811015611f0657602081890181015160a0868401015201611ee9565b50600060a0828501015260a0601f19601f8301168401019150508460208301526001600160a01b0384166040830152611f4a60608301846001600160a01b03169052565b95945050505050565b80518015158114611bb157600080fd5b600080600060608486031215611f7857600080fd5b8351925060208401519150611f8f60408501611f53565b90509250925092565b600080600080600060a08688031215611fb057600080fd5b8551611fbb81611d1a565b809550506020860151935060408601519250606086015191506080860151611fe281611d1a565b809150509295509295909350565b60006020828403121561200257600080fd5b5051919050565b60008060006060848603121561201e57600080fd5b8351925061202e60208501611f53565b9150604084015190509250925092565b6000806040838503121561205157600080fd5b82519150611ce760208401611f53565b634e487b7160e01b600052601160045260246000fd5b8082028115828204841417610b6857610b68612061565b6000826120ab57634e487b7160e01b600052601260045260246000fd5b500490565b81810381811115610b6857610b68612061565b69ffffffffffffffffffff8181168382160190808211156120e6576120e6612061565b509291505056fea2646970667358221220c1cd4685d04ae40bd8d3d3bdcdcce5699b1ea703ac61b30144a24e703201466e64736f6c63430008110033",
  "deployedBytecode": "0x608060405234801561001057600080fd5b50600436106102775760003560e01c80639c21547811610160578063d21c2b5b116100d8578063e1ec18c51161008c578063f2fde38b11610071578063f2fde38b1461059f578063f643380e146105b2578063fd9a6035146105c557600080fd5b8063e1ec18c514610579578063f1647daf1461058c57600080fd5b8063d8c46832116100bd578063d8c468321461052a578063dd39dd6414610553578063e16fc60b1461056657600080fd5b8063d21c2b5b146104f4578063d7861d861461050757600080fd5b8063b54279b41161012f578063c2b6cc9d11610114578063c2b6cc9d146104a5578063c81b2701146104b8578063cca23bf2146104cb57600080fd5b8063b54279b41461047f578063bdeda8331461049257600080fd5b80639c2154781461043d5780639e10556914610446578063a534150c14610463578063b483324e1461046c57600080fd5b80635c975abb116101f3578063801459fa116101c25780638da5cb5b116101a75780638da5cb5b1461040157806390107afe1461041757806399a5d7471461042a57600080fd5b8063801459fa146103db57806383168d96146103ee57600080fd5b80635c975abb14610368578063665a11ca1461037f578063715018a6146103aa578063781e98ae146103b257600080fd5b806325d19adf1161024a5780633476d36f1161022f5780633476d36f146102f057806336964579146103035780634abfa5701461035557600080fd5b806325d19adf146102d357806332bc934c146102e657600080fd5b806301ff572d1461027c578063068ac10b1461029857806319b48b51146102ad5780631e1f5af9146102c0575b600080fd5b61028561c35081565b6040519081526020015b60405180910390f35b6102ab6102a6366004611bb6565b6105de565b005b6102ab6102bb366004611c25565b61069e565b6102ab6102ce366004611c3e565b61070e565b6102ab6102e1366004611c60565b610830565b610285620f424081565b6102856102fe366004611c25565b610984565b610336610311366004611c25565b600560205260009081526040902080546001909101546001600160a01b039091169082565b604080516001600160a01b03909316835260208301919091520161028f565b6102ab610363366004611cc4565b610a0a565b60005460ff165b604051901515815260200161028f565b600154610392906001600160a01b031681565b6040516001600160a01b03909116815260200161028f565b6102ab610a81565b6103926103c0366004611c25565b6008602052600090815260409020546001600160a01b031681565b6102ab6103e9366004611c25565b610a95565b600254610392906001600160a01b031681565b60005461010090046001600160a01b0316610392565b6102ab610425366004611cf0565b610ace565b610285610438366004611c25565b610b04565b61028560045481565b61044e610b6e565b6040805192835260208301919091520161028f565b61028560035481565b61028561047a366004611c25565b610c70565b6102ab61048d366004611d32565b610cfc565b6102ab6104a0366004611c25565b610fce565b6102856104b3366004611d8d565b61100d565b6102ab6104c6366004611dd0565b611101565b6103926104d9366004611c25565b6009602052600090815260409020546001600160a01b031681565b610285610502366004611e05565b6111a2565b61036f610515366004611c25565b60076020526000908152604090205460ff1681565b610392610538366004611c25565b6006602052600090815260409020546001600160a01b031681565b6102ab610561366004611c25565b611318565b6102ab610574366004611c25565b611325565b6102ab610587366004611c25565b61138b565b6102ab61059a366004611d8d565b611475565b6102ab6105ad366004611e33565b6115aa565b6102ab6105c0366004611e4e565b61163f565b6102856105d3366004611ea3565b805160209091012090565b6105e66116f2565b835160208501206000906000818152600760205260409020805460ff1916600117905590506106158185610a0a565b600081815260086020908152604080832080546001600160a01b038089166001600160a01b031992831617909255600990935292819020805493861693909216929092179055517f45046f1ab82ba3091edd1e8cb02c3f81701f884b7b85b306074f0d22a56426019061068f908790849087908790611ed8565b60405180910390a15050505050565b6106a6611752565b60015460405163342fcda960e01b8152336004820152602481018390526001600160a01b039091169063342fcda9906044015b600060405180830381600087803b1580156106f357600080fd5b505af1158015610707573d6000803e3d6000fd5b5050505050565b610716611752565b60008181526008602090815260408083205460099092528083205490516302d695fb60e61b8152336004820152602481018690526001600160a01b039283169392909116919081908190859063b5a57ec0906044016060604051808303816000875af115801561078a573d6000803e3d6000fd5b505050506040513d601f19601f820116820180604052508101906107ae9190611f63565b9194509250905080151560010361082757604051635ae2fb3960e11b815233600482015260248101849052604481018390526001600160a01b0385169063b5c5f67290606401600060405180830381600087803b15801561080e57600080fd5b505af1158015610822573d6000803e3d6000fd5b505050505b50505050505050565b610838611752565b80516020820120610848816117a5565b600061085387610b04565b9050600061086083610c70565b90506000610872828a8a8a8a8961100d565b6000858152600860209081526040808320546009909252909120549192506001600160a01b0390811691166108ab828c8c8c8c886117d8565b6002546040516321cbbc8f60e11b8152600481018d90526001600160a01b0390911690634397791e90602401600060405180830381600087803b1580156108f157600080fd5b505af1158015610905573d6000803e3d6000fd5b505060405163ce88b43960e01b8152336004820152602481018e9052604481018b9052606481018890526001600160a01b038416925063ce88b4399150608401600060405180830381600087803b15801561095f57600080fd5b505af1158015610973573d6000803e3d6000fd5b505050505050505050505050505050565b600081815260056020526040808220548151633fabe5a360e21b8152915183926001600160a01b039092169163feaf968c9160048083019260a09291908290030181865afa1580156109da573d6000803e3d6000fd5b505050506040513d601f19601f820116820180604052508101906109fe9190611f98565b50919695505050505050565b610a126116f2565b610a1b826117a5565b60008281526006602090815260409182902080546001600160a01b0319166001600160a01b0385169081179091558251858152918201527f27a631f806df69f5736e2af408403723bdc58644d3b14bcadfafcc9e44747c3f910160405180910390a15050565b610a896116f2565b610a9360006118ad565b565b610a9d6116f2565b600154604051637c946aa160e11b8152600481018390526001600160a01b039091169063f928d542906024016106d9565b610ad66116f2565b600180546001600160a01b039384166001600160a01b03199182161790915560028054929093169116179055565b6000610b0f8261191d565b600354600003610b2157506000919050565b6000610b45620f4240610b3f6003548661193e90919063ffffffff16565b90611951565b905080600003610b685760405163a0330a1560e01b815260040160405180910390fd5b92915050565b6000806000600160009054906101000a90046001600160a01b03166001600160a01b0316631ca8b6cb6040518163ffffffff1660e01b8152600401602060405180830381865afa158015610bc6573d6000803e3d6000fd5b505050506040513d601f19601f82011682018060405250810190610bea9190611ff0565b90506000600160009054906101000a90046001600160a01b03166001600160a01b031663391339526040518163ffffffff1660e01b8152600401602060405180830381865afa158015610c41573d6000803e3d6000fd5b505050506040513d601f19601f82011682018060405250810190610c659190611ff0565b919491935090915050565b600081815260066020526040808220548151633fabe5a360e21b8152915183926001600160a01b03909216918391839163feaf968c9160048083019260a09291908290030181865afa158015610cca573d6000803e3d6000fd5b505050506040513d601f19601f82011682018060405250810190610cee9190611f98565b509198975050505050505050565b610d04611752565b81516020830120610d14816117a5565b6000610d218286856111a2565b6000838152600860209081526040808320546009909252808320549051637b5d7eb760e01b8152600481018a9052602481018590529394506001600160a01b039182169391169190819081908590637b5d7eb7906044016060604051808303816000875af1158015610d97573d6000803e3d6000fd5b505050506040513d601f19601f82011682018060405250810190610dbb9190612009565b91945092509050811515600103610ea4576002546004805460405163be123f3d60e01b815291820152602481018390526001600160a01b039091169063be123f3d90604401600060405180830381600087803b158015610e1a57600080fd5b505af1158015610e2e573d6000803e3d6000fd5b5050600154604051635ae2fb3960e11b81526001600160a01b03918216600482015260248101879052604481018e9052908716925063b5c5f6729150606401600060405180830381600087803b158015610e8757600080fd5b505af1158015610e9b573d6000803e3d6000fd5b50505050610f64565b600154604051635c1e21f360e01b8152600481018590526001600160a01b0390911690635c1e21f390602401600060405180830381600087803b158015610eea57600080fd5b505af1158015610efe573d6000803e3d6000fd5b5050604051630eb5b62d60e21b8152600481018d9052602481018690526001600160a01b0387169250633ad6d8b49150604401600060405180830381600087803b158015610f4b57600080fd5b505af1158015610f5f573d6000803e3d6000fd5b505050505b60015460405163d830de9760e01b8152600481018c90526001600160a01b039091169063d830de9790602401600060405180830381600087803b158015610faa57600080fd5b505af1158015610fbe573d6000803e3d6000fd5b5050505050505050505050505050565b610fd6611752565b60015460405163299b7ba760e21b8152336004820152602481018390526001600160a01b039091169063a66dee9c906044016106d9565b60008073__$7ac33160e126b1ac4f1e7b569b9216a78d$__63ea75fe3b87878b61103688610984565b6000898152600560205260409020600101546110528b4261195d565b6040517fffffffff0000000000000000000000000000000000000000000000000000000060e089901b1681526004810196909652602486019490945260448501929092526064840152608483015260a482015260c401602060405180830381865af41580156110c5573d6000803e3d6000fd5b505050506040513d601f19601f820116820180604052508101906110e99190611ff0565b90506110f58782611969565b98975050505050505050565b6111096116f2565b611112836117a5565b6040805180820182526001600160a01b038481168083526020808401868152600089815260058352869020945185546001600160a01b031916941693909317845591516001909301929092558251868152908101919091529081018290527fbb4dc1f858dc4ab6018e947383bf61056ed4464166a78c05fb59d69c53f3f4b29060600160405180910390a1505050565b60008381526006602052604081205481906001600160a01b0316158015906111ca5750834210155b1561131057600085815260066020526040808220548151633fabe5a360e21b815291516001600160a01b03909116929182918291859163feaf968c9160048082019260a0929091908290030181865afa15801561122b573d6000803e3d6000fd5b505050506040513d601f19601f8201168201806040525081019061124f9190611f98565b50935050925092506112648888858488611995565b8669ffffffffffffffffffff168369ffffffffffffffffffff160361128b5781945061130b565b604051639a6fc8f560e01b815269ffffffffffffffffffff881660048201526000906001600160a01b03861690639a6fc8f59060240160a060405180830381865afa1580156112de573d6000803e3d6000fd5b505050506040513d601f19601f820116820180604052508101906113029190611f98565b50919850505050505b505050505b949350505050565b611320611acc565b600455565b61132d6116f2565b61c35081111561135057604051630490d94960e21b815260040160405180910390fd5b60038190556040518181527f8c4d35e54a3f2ef1134138fd8ea3daee6a3c89e10d2665996babdf70261e2c769060200160405180910390a150565b611393611752565b61139c816117a5565b600154604080516341dc749160e11b815290516000926001600160a01b0316916383b8e922916004808301926020929190829003018187875af11580156113e7573d6000803e3d6000fd5b505050506040513d601f19601f8201168201806040525081019061140b9190611ff0565b600083815260086020526040908190205490516364cda03d60e11b8152600481018390529192506001600160a01b031690819063c99b407a90602401600060405180830381600087803b15801561146157600080fd5b505af1158015610827573d6000803e3d6000fd5b61147d6116f2565b600154604080516341dc749160e11b815290516000926001600160a01b0316916383b8e922916004808301926020929190829003018187875af11580156114c8573d6000803e3d6000fd5b505050506040513d601f19601f820116820180604052508101906114ec9190611ff0565b90508060000361150f57604051635c24d38b60e11b815260040160405180910390fd5b60008781526008602052604090819020549051630a89e95960e31b8152600481018890526024810183905260448101879052606481018690526084810185905260a481018490526001600160a01b0390911690819063544f4ac89060c4015b600060405180830381600087803b15801561158857600080fd5b505af115801561159c573d6000803e3d6000fd5b505050505050505050505050565b6115b26116f2565b6001600160a01b0381166116335760405162461bcd60e51b815260206004820152602660248201527f4f776e61626c653a206e6577206f776e657220697320746865207a65726f206160448201527f646472657373000000000000000000000000000000000000000000000000000060648201526084015b60405180910390fd5b61163c816118ad565b50565b6116476116f2565b611650816117a5565b60008181526008602052604090819020549051630854903b60e31b8152600481018a90526024810188905260448101899052606481018790526084810186905260a4810185905260c481018490526001600160a01b039091169081906342a481d89060e401600060405180830381600087803b1580156116cf57600080fd5b505af11580156116e3573d6000803e3d6000fd5b50505050505050505050505050565b6000546001600160a01b03610100909104163314610a935760405162461bcd60e51b815260206004820181905260248201527f4f776e61626c653a2063616c6c6572206973206e6f7420746865206f776e6572604482015260640161162a565b60005460ff1615610a935760405162461bcd60e51b815260206004820152601060248201527f5061757361626c653a2070617573656400000000000000000000000000000000604482015260640161162a565b60008181526007602052604081205460ff161515900361163c576040516333cb97ff60e11b815260040160405180910390fd5b60405163730cb65160e01b81523360048201526024810186905260448101859052606481018490526084810183905260a4810182905260009081906001600160a01b0389169063730cb6519060c40160408051808303816000875af1158015611845573d6000803e3d6000fd5b505050506040513d601f19601f82011682018060405250810190611869919061203e565b600154604051633ba0590b60e11b8152600481018490528215156024820152604481018890529294509092506001600160a01b031690637740b2169060640161156e565b600080546001600160a01b038381166101008181027fffffffffffffffffffffff0000000000000000000000000000000000000000ff851617855560405193049190911692909183917f8be0079c531659141344cd1fd0a4f28419497f9722a3daafe3b4186f6b6457e091a35050565b8060000361163c576040516389d4a2c760e01b815260040160405180910390fd5b600061194a8284612077565b9392505050565b600061194a828461208e565b600061194a82846120b0565b600061194a6064610b3f60045461198f86610b3f6127108a61193e90919063ffffffff16565b9061193e565b600169ffffffffffffffffffff80851690861611156119b2575060005b8369ffffffffffffffffffff168569ffffffffffffffffffff161015611a7c5760006001600160a01b038316639a6fc8f56119ee8860016120c3565b6040517fffffffff0000000000000000000000000000000000000000000000000000000060e084901b16815269ffffffffffffffffffff909116600482015260240160a060405180830381865afa158015611a4d573d6000803e3d6000fd5b505050506040513d601f19601f82011682018060405250810190611a719190611f98565b508a11159450505050505b8369ffffffffffffffffffff168569ffffffffffffffffffff1603611aa15750848211155b801515600003611ac4576040516309f274a160e01b815260040160405180910390fd5b505050505050565b6002546001600160a01b03163314610a9357604051630d3046a360e41b815260040160405180910390fd5b634e487b7160e01b600052604160045260246000fd5b600082601f830112611b1e57600080fd5b813567ffffffffffffffff80821115611b3957611b39611af7565b604051601f8301601f19908116603f01168101908282118183101715611b6157611b61611af7565b81604052838152866020858801011115611b7a57600080fd5b836020870160208301376000602085830101528094505050505092915050565b80356001600160a01b0381168114611bb157600080fd5b919050565b60008060008060808587031215611bcc57600080fd5b843567ffffffffffffffff811115611be357600080fd5b611bef87828801611b0d565b945050611bfe60208601611b9a565b9250611c0c60408601611b9a565b9150611c1a60608601611b9a565b905092959194509250565b600060208284031215611c3757600080fd5b5035919050565b60008060408385031215611c5157600080fd5b50508035926020909101359150565b600080600080600060a08688031215611c7857600080fd5b85359450602086013593506040860135925060608601359150608086013567ffffffffffffffff811115611cab57600080fd5b611cb788828901611b0d565b9150509295509295909350565b60008060408385031215611cd757600080fd5b82359150611ce760208401611b9a565b90509250929050565b60008060408385031215611d0357600080fd5b611d0c83611b9a565b9150611ce760208401611b9a565b69ffffffffffffffffffff8116811461163c57600080fd5b600080600060608486031215611d4757600080fd5b83359250602084013567ffffffffffffffff811115611d6557600080fd5b611d7186828701611b0d565b9250506040840135611d8281611d1a565b809150509250925092565b60008060008060008060c08789031215611da657600080fd5b505084359660208601359650604086013595606081013595506080810135945060a0013592509050565b600080600060608486031215611de557600080fd5b83359250611df560208501611b9a565b9150604084013590509250925092565b600080600060608486031215611e1a57600080fd5b83359250602084013591506040840135611d8281611d1a565b600060208284031215611e4557600080fd5b61194a82611b9a565b600080600080600080600080610100898b031215611e6b57600080fd5b505086359860208801359850604088013597606081013597506080810135965060a0810135955060c0810135945060e0013592509050565b600060208284031215611eb557600080fd5b813567ffffffffffffffff811115611ecc57600080fd5b61131084828501611b0d565b608081526000855180608084015260005b81811015611f0657602081890181015160a0868401015201611ee9565b50600060a0828501015260a0601f19601f8301168401019150508460208301526001600160a01b0384166040830152611f4a60608301846001600160a01b03169052565b95945050505050565b80518015158114611bb157600080fd5b600080600060608486031215611f7857600080fd5b8351925060208401519150611f8f60408501611f53565b90509250925092565b600080600080600060a08688031215611fb057600080fd5b8551611fbb81611d1a565b809550506020860151935060408601519250606086015191506080860151611fe281611d1a565b809150509295509295909350565b60006020828403121561200257600080fd5b5051919050565b60008060006060848603121561201e57600080fd5b8351925061202e60208501611f53565b9150604084015190509250925092565b6000806040838503121561205157600080fd5b82519150611ce760208401611f53565b634e487b7160e01b600052601160045260246000fd5b8082028115828204841417610b6857610b68612061565b6000826120ab57634e487b7160e01b600052601260045260246000fd5b500490565b81810381811115610b6857610b68612061565b69ffffffffffffffffffff8181168382160190808211156120e6576120e6612061565b509291505056fea2646970667358221220c1cd4685d04ae40bd8d3d3bdcdcce5699b1ea703ac61b30144a24e703201466e64736f6c63430008110033",
  "libraries": {
    "MathLibraryDefibets": "0x56C56c4b1CB71d7Fb7A8DaD7c7e75BD3925C4f8a"
  },
  "devdoc": {
    "kind": "dev",
    "methods": {
      "claimWinnings(uint256,bytes32)": {
        "details": "Claims the winnings for a user based on a specified token ID and underlying asset hash.",
        "params": {
          "_hash": "The hash of the underlying asset for the bet.",
          "_tokenId": "The token ID representing the bet."
        }
      },
      "executeExpiration(uint256,string,uint80)": {
        "details": "Executes the expiration of a bet based on the specified expiration time and underlying asset.",
        "params": {
          "_expTime": "The expiration time of the bet.",
          "_roundId": "The round id for a valid price of the underlying",
          "_underlying": "The underlying asset for the bet."
        }
      },
      "owner()": {
        "details": "Returns the address of the current owner."
      },
      "paused()": {
        "details": "Returns true if the contract is paused, and false otherwise."
      },
      "provideLP(uint256)": {
        "details": "Provides liquidity to the liquidity pool on behalf of a user.",
        "params": {
          "_amount": "The amount of liquidity to be provided."
        }
      },
      "renounceOwnership()": {
        "details": "Leaves the contract without owner. It will not be possible to call `onlyOwner` functions anymore. Can only be called by the current owner. NOTE: Renouncing ownership will leave the contract without an owner, thereby removing any functionality that is only available to the owner."
      },
      "setBet(uint256,uint256,uint256,uint256,string)": {
        "details": "Sets a bet for a user in the decentralized betting platform.",
        "params": {
          "_betSize": "The size of the bet.",
          "_expTime": "The expiration time for the bet.",
          "_maxPrice": "The maximum price for the bet.",
          "_minPrice": "The minimum price for the bet.",
          "_underlying": "The underlying asset for the bet."
        }
      },
      "transferOwnership(address)": {
        "details": "Transfers ownership of the contract to a new account (`newOwner`). Can only be called by the current owner."
      }
    },
    "title": "DefiBets Manager Contract",
    "version": 1
  },
  "userdoc": {
    "kind": "user",
    "methods": {},
    "notice": "This contract controls the main functions of the protocol, allowing users to interact with the decentralized betting platform. It manages liquidity, bets, winnings, and expiration of bets.",
    "version": 1
  },
  "storageLayout": {
    "storage": [
      {
        "astId": 176,
        "contract": "contracts/core/DefiBetsManager.sol:DefiBetsManager",
        "label": "_paused",
        "offset": 0,
        "slot": "0",
        "type": "t_bool"
      },
      {
        "astId": 53,
        "contract": "contracts/core/DefiBetsManager.sol:DefiBetsManager",
        "label": "_owner",
        "offset": 1,
        "slot": "0",
        "type": "t_address"
      },
      {
        "astId": 5328,
        "contract": "contracts/core/DefiBetsManager.sol:DefiBetsManager",
        "label": "liquidityPool",
        "offset": 0,
        "slot": "1",
        "type": "t_address"
      },
      {
        "astId": 5330,
        "contract": "contracts/core/DefiBetsManager.sol:DefiBetsManager",
        "label": "payoutRatioContract",
        "offset": 0,
        "slot": "2",
        "type": "t_address"
      },
      {
        "astId": 5332,
        "contract": "contracts/core/DefiBetsManager.sol:DefiBetsManager",
        "label": "feePpm",
        "offset": 0,
        "slot": "3",
        "type": "t_uint256"
      },
      {
        "astId": 5334,
        "contract": "contracts/core/DefiBetsManager.sol:DefiBetsManager",
        "label": "payoutFactor",
        "offset": 0,
        "slot": "4",
        "type": "t_uint256"
      },
      {
        "astId": 5339,
        "contract": "contracts/core/DefiBetsManager.sol:DefiBetsManager",
        "label": "underlyingIVFeeds",
        "offset": 0,
        "slot": "5",
        "type": "t_mapping(t_bytes32,t_struct(IVFeed)5320_storage)"
      },
      {
        "astId": 5343,
        "contract": "contracts/core/DefiBetsManager.sol:DefiBetsManager",
        "label": "underlyingPriceFeeds",
        "offset": 0,
        "slot": "6",
        "type": "t_mapping(t_bytes32,t_address)"
      },
      {
        "astId": 5347,
        "contract": "contracts/core/DefiBetsManager.sol:DefiBetsManager",
        "label": "validUnderlying",
        "offset": 0,
        "slot": "7",
        "type": "t_mapping(t_bytes32,t_bool)"
      },
      {
        "astId": 5351,
        "contract": "contracts/core/DefiBetsManager.sol:DefiBetsManager",
        "label": "defiBetsContracts",
        "offset": 0,
        "slot": "8",
        "type": "t_mapping(t_bytes32,t_address)"
      },
      {
        "astId": 5355,
        "contract": "contracts/core/DefiBetsManager.sol:DefiBetsManager",
        "label": "vaults",
        "offset": 0,
        "slot": "9",
        "type": "t_mapping(t_bytes32,t_address)"
      }
    ],
    "types": {
      "t_address": {
        "encoding": "inplace",
        "label": "address",
        "numberOfBytes": "20"
      },
      "t_bool": {
        "encoding": "inplace",
        "label": "bool",
        "numberOfBytes": "1"
      },
      "t_bytes32": {
        "encoding": "inplace",
        "label": "bytes32",
        "numberOfBytes": "32"
      },
      "t_mapping(t_bytes32,t_address)": {
        "encoding": "mapping",
        "key": "t_bytes32",
        "label": "mapping(bytes32 => address)",
        "numberOfBytes": "32",
        "value": "t_address"
      },
      "t_mapping(t_bytes32,t_bool)": {
        "encoding": "mapping",
        "key": "t_bytes32",
        "label": "mapping(bytes32 => bool)",
        "numberOfBytes": "32",
        "value": "t_bool"
      },
      "t_mapping(t_bytes32,t_struct(IVFeed)5320_storage)": {
        "encoding": "mapping",
        "key": "t_bytes32",
        "label": "mapping(bytes32 => struct DefiBetsManager.IVFeed)",
        "numberOfBytes": "32",
        "value": "t_struct(IVFeed)5320_storage"
      },
      "t_struct(IVFeed)5320_storage": {
        "encoding": "inplace",
        "label": "struct DefiBetsManager.IVFeed",
        "members": [
          {
            "astId": 5317,
            "contract": "contracts/core/DefiBetsManager.sol:DefiBetsManager",
            "label": "feedAddress",
            "offset": 0,
            "slot": "0",
            "type": "t_address"
          },
          {
            "astId": 5319,
            "contract": "contracts/core/DefiBetsManager.sol:DefiBetsManager",
            "label": "period",
            "offset": 0,
            "slot": "1",
            "type": "t_uint256"
          }
        ],
        "numberOfBytes": "64"
      },
      "t_uint256": {
        "encoding": "inplace",
        "label": "uint256",
        "numberOfBytes": "32"
      }
    }
  }
}