{
  "address": "0xD71e7375457AC8cE7E75171878F020f704df023E",
  "abi": [
    {
      "inputs": [
        {
          "internalType": "address",
          "name": "_managerContract",
          "type": "address"
        },
        {
          "internalType": "address",
          "name": "_token",
          "type": "address"
        },
        {
          "internalType": "address",
          "name": "_betVault",
          "type": "address"
        },
        {
          "internalType": "uint256",
          "name": "_maxLossPerTimePercent",
          "type": "uint256"
        }
      ],
      "stateMutability": "nonpayable",
      "type": "constructor"
    },
    {
      "inputs": [],
      "name": "LiquidityPool__AccessForbidden",
      "type": "error"
    },
    {
      "inputs": [],
      "name": "LiquidityPool__NotAllowedAmount",
      "type": "error"
    },
    {
      "inputs": [],
      "name": "LiquidityPool__NotEnoughFreeSuppy",
      "type": "error"
    },
    {
      "inputs": [],
      "name": "LiquidityPool__VaultNotValid",
      "type": "error"
    },
    {
      "anonymous": false,
      "inputs": [
        {
          "indexed": true,
          "internalType": "address",
          "name": "owner",
          "type": "address"
        },
        {
          "indexed": true,
          "internalType": "address",
          "name": "spender",
          "type": "address"
        },
        {
          "indexed": false,
          "internalType": "uint256",
          "name": "value",
          "type": "uint256"
        }
      ],
      "name": "Approval",
      "type": "event"
    },
    {
      "anonymous": false,
      "inputs": [
        {
          "indexed": true,
          "internalType": "address",
          "name": "account",
          "type": "address"
        },
        {
          "indexed": false,
          "internalType": "uint256",
          "name": "amount",
          "type": "uint256"
        },
        {
          "indexed": false,
          "internalType": "uint256",
          "name": "shares",
          "type": "uint256"
        },
        {
          "indexed": false,
          "internalType": "uint256",
          "name": "totalTokens",
          "type": "uint256"
        },
        {
          "indexed": false,
          "internalType": "uint256",
          "name": "totalSupply",
          "type": "uint256"
        }
      ],
      "name": "Deposit",
      "type": "event"
    },
    {
      "anonymous": false,
      "inputs": [
        {
          "indexed": false,
          "internalType": "uint256",
          "name": "lockedTokenSupply",
          "type": "uint256"
        },
        {
          "indexed": false,
          "internalType": "uint256",
          "name": "expTime",
          "type": "uint256"
        },
        {
          "indexed": false,
          "internalType": "uint256",
          "name": "lockedPerExpTime",
          "type": "uint256"
        }
      ],
      "name": "LockedSupplyUpdated",
      "type": "event"
    },
    {
      "anonymous": false,
      "inputs": [
        {
          "indexed": false,
          "internalType": "uint256",
          "name": "newMaxLoss",
          "type": "uint256"
        }
      ],
      "name": "MaxLossPerTimeUpdated",
      "type": "event"
    },
    {
      "anonymous": false,
      "inputs": [
        {
          "indexed": true,
          "internalType": "address",
          "name": "account",
          "type": "address"
        },
        {
          "indexed": false,
          "internalType": "uint256",
          "name": "shares",
          "type": "uint256"
        },
        {
          "indexed": false,
          "internalType": "uint256",
          "name": "amount",
          "type": "uint256"
        },
        {
          "indexed": false,
          "internalType": "uint256",
          "name": "totalTokens",
          "type": "uint256"
        },
        {
          "indexed": false,
          "internalType": "uint256",
          "name": "totalSupply",
          "type": "uint256"
        }
      ],
      "name": "Redeem",
      "type": "event"
    },
    {
      "anonymous": false,
      "inputs": [
        {
          "indexed": true,
          "internalType": "address",
          "name": "from",
          "type": "address"
        },
        {
          "indexed": true,
          "internalType": "address",
          "name": "to",
          "type": "address"
        },
        {
          "indexed": false,
          "internalType": "uint256",
          "name": "value",
          "type": "uint256"
        }
      ],
      "name": "Transfer",
      "type": "event"
    },
    {
      "inputs": [
        {
          "internalType": "address",
          "name": "owner",
          "type": "address"
        },
        {
          "internalType": "address",
          "name": "spender",
          "type": "address"
        }
      ],
      "name": "allowance",
      "outputs": [
        {
          "internalType": "uint256",
          "name": "",
          "type": "uint256"
        }
      ],
      "stateMutability": "view",
      "type": "function"
    },
    {
      "inputs": [
        {
          "internalType": "address",
          "name": "spender",
          "type": "address"
        },
        {
          "internalType": "uint256",
          "name": "amount",
          "type": "uint256"
        }
      ],
      "name": "approve",
      "outputs": [
        {
          "internalType": "bool",
          "name": "",
          "type": "bool"
        }
      ],
      "stateMutability": "nonpayable",
      "type": "function"
    },
    {
      "inputs": [
        {
          "internalType": "address",
          "name": "account",
          "type": "address"
        }
      ],
      "name": "balanceOf",
      "outputs": [
        {
          "internalType": "uint256",
          "name": "",
          "type": "uint256"
        }
      ],
      "stateMutability": "view",
      "type": "function"
    },
    {
      "inputs": [],
      "name": "balanceTokens",
      "outputs": [
        {
          "internalType": "uint256",
          "name": "",
          "type": "uint256"
        }
      ],
      "stateMutability": "view",
      "type": "function"
    },
    {
      "inputs": [
        {
          "internalType": "uint256",
          "name": "_amount",
          "type": "uint256"
        }
      ],
      "name": "calcSharesToMint",
      "outputs": [
        {
          "internalType": "uint256",
          "name": "",
          "type": "uint256"
        }
      ],
      "stateMutability": "view",
      "type": "function"
    },
    {
      "inputs": [
        {
          "internalType": "uint256",
          "name": "_shares",
          "type": "uint256"
        }
      ],
      "name": "calcTokensToWithdraw",
      "outputs": [
        {
          "internalType": "uint256",
          "name": "",
          "type": "uint256"
        }
      ],
      "stateMutability": "view",
      "type": "function"
    },
    {
      "inputs": [],
      "name": "decimals",
      "outputs": [
        {
          "internalType": "uint8",
          "name": "",
          "type": "uint8"
        }
      ],
      "stateMutability": "view",
      "type": "function"
    },
    {
      "inputs": [
        {
          "internalType": "address",
          "name": "spender",
          "type": "address"
        },
        {
          "internalType": "uint256",
          "name": "subtractedValue",
          "type": "uint256"
        }
      ],
      "name": "decreaseAllowance",
      "outputs": [
        {
          "internalType": "bool",
          "name": "",
          "type": "bool"
        }
      ],
      "stateMutability": "nonpayable",
      "type": "function"
    },
    {
      "inputs": [
        {
          "internalType": "address",
          "name": "_account",
          "type": "address"
        },
        {
          "internalType": "uint256",
          "name": "_amount",
          "type": "uint256"
        }
      ],
      "name": "depositForAccount",
      "outputs": [],
      "stateMutability": "nonpayable",
      "type": "function"
    },
    {
      "inputs": [
        {
          "internalType": "address",
          "name": "spender",
          "type": "address"
        },
        {
          "internalType": "uint256",
          "name": "addedValue",
          "type": "uint256"
        }
      ],
      "name": "increaseAllowance",
      "outputs": [
        {
          "internalType": "bool",
          "name": "",
          "type": "bool"
        }
      ],
      "stateMutability": "nonpayable",
      "type": "function"
    },
    {
      "inputs": [
        {
          "internalType": "uint256",
          "name": "",
          "type": "uint256"
        }
      ],
      "name": "lockedPerExpTime",
      "outputs": [
        {
          "internalType": "uint256",
          "name": "",
          "type": "uint256"
        }
      ],
      "stateMutability": "view",
      "type": "function"
    },
    {
      "inputs": [],
      "name": "lockedTokenSupply",
      "outputs": [
        {
          "internalType": "uint256",
          "name": "",
          "type": "uint256"
        }
      ],
      "stateMutability": "view",
      "type": "function"
    },
    {
      "inputs": [],
      "name": "managerContract",
      "outputs": [
        {
          "internalType": "address",
          "name": "",
          "type": "address"
        }
      ],
      "stateMutability": "view",
      "type": "function"
    },
    {
      "inputs": [],
      "name": "maxLPLost",
      "outputs": [
        {
          "internalType": "uint256",
          "name": "",
          "type": "uint256"
        }
      ],
      "stateMutability": "view",
      "type": "function"
    },
    {
      "inputs": [],
      "name": "maxLostPerTimeInPercent",
      "outputs": [
        {
          "internalType": "uint256",
          "name": "",
          "type": "uint256"
        }
      ],
      "stateMutability": "view",
      "type": "function"
    },
    {
      "inputs": [],
      "name": "name",
      "outputs": [
        {
          "internalType": "string",
          "name": "",
          "type": "string"
        }
      ],
      "stateMutability": "view",
      "type": "function"
    },
    {
      "inputs": [
        {
          "internalType": "address",
          "name": "_account",
          "type": "address"
        },
        {
          "internalType": "uint256",
          "name": "_shares",
          "type": "uint256"
        }
      ],
      "name": "redeemSharesForAccount",
      "outputs": [],
      "stateMutability": "nonpayable",
      "type": "function"
    },
    {
      "inputs": [
        {
          "internalType": "uint256",
          "name": "_expTime",
          "type": "uint256"
        }
      ],
      "name": "resetLockedTokens",
      "outputs": [],
      "stateMutability": "nonpayable",
      "type": "function"
    },
    {
      "inputs": [],
      "name": "symbol",
      "outputs": [
        {
          "internalType": "string",
          "name": "",
          "type": "string"
        }
      ],
      "stateMutability": "view",
      "type": "function"
    },
    {
      "inputs": [],
      "name": "token",
      "outputs": [
        {
          "internalType": "address",
          "name": "",
          "type": "address"
        }
      ],
      "stateMutability": "view",
      "type": "function"
    },
    {
      "inputs": [],
      "name": "totalSupply",
      "outputs": [
        {
          "internalType": "uint256",
          "name": "",
          "type": "uint256"
        }
      ],
      "stateMutability": "view",
      "type": "function"
    },
    {
      "inputs": [],
      "name": "totalTokenSupply",
      "outputs": [
        {
          "internalType": "uint256",
          "name": "",
          "type": "uint256"
        }
      ],
      "stateMutability": "view",
      "type": "function"
    },
    {
      "inputs": [
        {
          "internalType": "address",
          "name": "to",
          "type": "address"
        },
        {
          "internalType": "uint256",
          "name": "amount",
          "type": "uint256"
        }
      ],
      "name": "transfer",
      "outputs": [
        {
          "internalType": "bool",
          "name": "",
          "type": "bool"
        }
      ],
      "stateMutability": "nonpayable",
      "type": "function"
    },
    {
      "inputs": [
        {
          "internalType": "address",
          "name": "from",
          "type": "address"
        },
        {
          "internalType": "address",
          "name": "to",
          "type": "address"
        },
        {
          "internalType": "uint256",
          "name": "amount",
          "type": "uint256"
        }
      ],
      "name": "transferFrom",
      "outputs": [
        {
          "internalType": "bool",
          "name": "",
          "type": "bool"
        }
      ],
      "stateMutability": "nonpayable",
      "type": "function"
    },
    {
      "inputs": [
        {
          "internalType": "address",
          "name": "_vault",
          "type": "address"
        },
        {
          "internalType": "uint256",
          "name": "_amount",
          "type": "uint256"
        }
      ],
      "name": "transferTokensToVault",
      "outputs": [],
      "stateMutability": "nonpayable",
      "type": "function"
    },
    {
      "inputs": [
        {
          "internalType": "uint256",
          "name": "_delta",
          "type": "uint256"
        },
        {
          "internalType": "bool",
          "name": "_increase",
          "type": "bool"
        },
        {
          "internalType": "uint256",
          "name": "_expTime",
          "type": "uint256"
        }
      ],
      "name": "updateLockedTokenSupply",
      "outputs": [],
      "stateMutability": "nonpayable",
      "type": "function"
    },
    {
      "inputs": [
        {
          "internalType": "uint256",
          "name": "_newMaxLoss",
          "type": "uint256"
        }
      ],
      "name": "updateMaxLoss",
      "outputs": [],
      "stateMutability": "nonpayable",
      "type": "function"
    },
    {
      "inputs": [
        {
          "internalType": "address",
          "name": "_vault",
          "type": "address"
        },
        {
          "internalType": "uint256",
          "name": "_amount",
          "type": "uint256"
        },
        {
          "internalType": "bool",
          "name": "_profit",
          "type": "bool"
        }
      ],
      "name": "updateTokenSupply",
      "outputs": [],
      "stateMutability": "nonpayable",
      "type": "function"
    },
    {
      "inputs": [
        {
          "internalType": "address",
          "name": "",
          "type": "address"
        }
      ],
      "name": "validVaults",
      "outputs": [
        {
          "internalType": "bool",
          "name": "",
          "type": "bool"
        }
      ],
      "stateMutability": "view",
      "type": "function"
    }
  ],
  "transactionHash": "0x2fcb821f8ec75e69c7fcddeb53c9472aa2ca3209482cc1f75e1a22c9def67e48",
  "args": [
    "0xe02AF4b9b73a573E4F00816cf0D235a98DdEEc14",
    "0xEAaDaE282b1131E80621Bba7AA4F754978C74962",
    "0x2De4c9558eCA62973ca0BDC37c7a87c476D82486",
    50000
  ],
  "numDeployments": 1,
  "solcInputHash": "4a0b662b9c0c5aed7dd06c3c6114b88b",
  "bytecode": "0x60806040523480156200001157600080fd5b50604051620017a9380380620017a98339810160408190526200003491620000f4565b6040805180820182526005808252642232b334a160d91b6020808401829052845180860190955291845290830152906003620000718382620001eb565b506004620000808282620001eb565b5050600980546001600160a01b03199081166001600160a01b0397881617909155600880549091169486169490941790935592166000908152600a60205260409020805460ff1916600117905550600755620002b7565b80516001600160a01b0381168114620000ef57600080fd5b919050565b600080600080608085870312156200010b57600080fd5b6200011685620000d7565b93506200012660208601620000d7565b92506200013660408601620000d7565b6060959095015193969295505050565b634e487b7160e01b600052604160045260246000fd5b600181811c908216806200017157607f821691505b6020821081036200019257634e487b7160e01b600052602260045260246000fd5b50919050565b601f821115620001e657600081815260208120601f850160051c81016020861015620001c15750805b601f850160051c820191505b81811015620001e257828155600101620001cd565b5050505b505050565b81516001600160401b0381111562000207576200020762000146565b6200021f816200021884546200015c565b8462000198565b602080601f8311600181146200025757600084156200023e5750858301515b600019600386901b1c1916600185901b178555620001e2565b600085815260208120601f198616915b82811015620002885788860151825594840194600190910190840162000267565b5085821015620002a75787850151600019600388901b60f8161c191681555b5050505050600190811b01905550565b6114e280620002c76000396000f3fe608060405234801561001057600080fd5b50600436106101cf5760003560e01c80633950935111610104578063a66dee9c116100a2578063dd62ed3e11610071578063dd62ed3e146103de578063e4494a0f14610417578063f928d5421461041f578063fc0c546a1461043257600080fd5b8063a66dee9c14610392578063a9059cbb146103a5578063ae074a09146103b8578063d830de97146103cb57600080fd5b80637740b216116100de5780637740b2161461035c57806383b8e9221461036f57806395d89b4114610377578063a457c2d71461037f57600080fd5b806339509351146102fd5780636657fc671461031057806370a082311461033357600080fd5b80631ca8b6cb1161017157806330a22e5f1161014b57806330a22e5f146102bf578063313ce567146102d2578063342fcda9146102e157806339133952146102f457600080fd5b80631ca8b6cb1461027857806323b872dd146102815780632710ac801461029457600080fd5b80630e3b2fcf116101ad5780630e3b2fcf1461023f5780630ebc06ce1461025457806318160ddd146102675780631b137b3a1461026f57600080fd5b806305895bef146101d457806306fdde0314610207578063095ea7b31461021c575b600080fd5b6101f46101e236600461120a565b600b6020526000908152604090205481565b6040519081526020015b60405180910390f35b61020f610445565b6040516101fe9190611223565b61022f61022a36600461128d565b6104d7565b60405190151581526020016101fe565b61025261024d3660046112c5565b6104f1565b005b6101f461026236600461120a565b61059e565b6002546101f4565b6101f460075481565b6101f460055481565b61022f61028f366004611305565b6105c0565b6009546102a7906001600160a01b031681565b6040516001600160a01b0390911681526020016101fe565b6102526102cd36600461128d565b6105e4565b604051601281526020016101fe565b6102526102ef36600461128d565b61067a565b6101f460065481565b61022f61030b36600461128d565b610787565b61022f61031e366004611341565b600a6020526000908152604090205460ff1681565b6101f4610341366004611341565b6001600160a01b031660009081526020819052604090205490565b61025261036a36600461135c565b6107c6565b6007546101f4565b61020f61087b565b61022f61038d36600461128d565b61088a565b6102526103a036600461128d565b610939565b61022f6103b336600461128d565b610a18565b6101f46103c636600461120a565b610a26565b6102526103d936600461120a565b610a46565b6101f46103ec366004611394565b6001600160a01b03918216600090815260016020908152604080832093909416825291909152205490565b6101f4610ac6565b61025261042d36600461120a565b610b38565b6008546102a7906001600160a01b031681565b606060038054610454906113c7565b80601f0160208091040260200160405190810160405280929190818152602001828054610480906113c7565b80156104cd5780601f106104a2576101008083540402835291602001916104cd565b820191906000526020600020905b8154815290600101906020018083116104b057829003601f168201915b5050505050905090565b6000336104e5818585610b7b565b60019150505b92915050565b6104f9610c9f565b80156105145760055461050c9083610ccc565b600555505050565b60085460405163a9059cbb60e01b81526001600160a01b038581166004830152602482018590529091169063a9059cbb906044016020604051808303816000875af1158015610567573d6000803e3d6000fd5b505050506040513d601f19601f8201168201806040525081019061058b9190611401565b5060055461050c9083610cdf565b505050565b60006104eb6105ac60025490565b6005546105ba908590610ceb565b90610cf7565b6000336105ce858285610d03565b6105d9858585610d95565b506001949350505050565b6105ec610c9f565b6105f582610f68565b60085460405163a9059cbb60e01b81526001600160a01b038481166004830152602482018490529091169063a9059cbb906044016020604051808303816000875af1158015610648573d6000803e3d6000fd5b505050506040513d601f19601f8201168201806040525081019061066c9190611401565b5060055461050c8183610cdf565b610682610c9f565b600061068d82610a26565b6008546040516323b872dd60e01b81526001600160a01b038681166004830152306024830152604482018690529293509116906323b872dd906064016020604051808303816000875af11580156106e8573d6000803e3d6000fd5b505050506040513d601f19601f8201168201806040525081019061070c9190611401565b506107178382610fa8565b6005546107249083610ccc565b6005556001600160a01b0383167f7162984403f6c73c8639375d45a9187dfd04602231bd8e587c415718b5f7e5f9838361075c610ac6565b60025460408051948552602085019390935291830152606082015260800160405180910390a2505050565b3360008181526001602090815260408083206001600160a01b03871684529091528120549091906104e590829086906107c1908790611434565b610b7b565b6107ce610c9f565b600654826107e5576107e08185610cdf565b6107ef565b6107ef8185610ccc565b6006556000828152600b602052604090205483610815576108108186610cdf565b61081f565b61081f8186610ccc565b6000848152600b6020908152604091829020839055600654825190815290810186905280820192909252517fd0eaf4b7b6943769683e00aa39f6a6fb7a226ef621ba58adbdeea91e977fee3b9181900360600190a15050505050565b606060048054610454906113c7565b3360008181526001602090815260408083206001600160a01b03871684529091528120549091908381101561092c5760405162461bcd60e51b815260206004820152602560248201527f45524332303a2064656372656173656420616c6c6f77616e63652062656c6f7760448201527f207a65726f00000000000000000000000000000000000000000000000000000060648201526084015b60405180910390fd5b6105d98286868403610b7b565b610941610c9f565b61094b8282611067565b60006109568261059e565b9050610961816110a1565b61096b83836110d8565b60085460405163a9059cbb60e01b81526001600160a01b038581166004830152602482018490529091169063a9059cbb906044016020604051808303816000875af11580156109be573d6000803e3d6000fd5b505050506040513d601f19601f820116820180604052508101906109e29190611401565b50826001600160a01b03167fe02f6383e19e87c24e0c03e2cd5dbd05156cb29a1b0f3dbca1fa3430e444f63d838361075c610ac6565b6000336104e5818585610d95565b6000610a30610ac6565b600003610a3b575090565b6104eb6105ac610ac6565b610a4e610c9f565b6000818152600b6020526040902054600654610a6a8183610cdf565b60069081556000848152600b6020908152604080832083905592548351908152908101869052918201527fd0eaf4b7b6943769683e00aa39f6a6fb7a226ef621ba58adbdeea91e977fee3b9060600160405180910390a1505050565b6008546040516370a0823160e01b81523060048201526000916001600160a01b0316906370a0823190602401602060405180830381865afa158015610b0f573d6000803e3d6000fd5b505050506040513d601f19601f82011682018060405250810190610b339190611447565b905090565b610b40610c9f565b60078190556040518181527ff2c9646662ff29ce338193588962b9f715f4fcf984b10acaf54c65424a674afa9060200160405180910390a150565b6001600160a01b038316610bdd5760405162461bcd60e51b8152602060048201526024808201527f45524332303a20617070726f76652066726f6d20746865207a65726f206164646044820152637265737360e01b6064820152608401610923565b6001600160a01b038216610c3e5760405162461bcd60e51b815260206004820152602260248201527f45524332303a20617070726f766520746f20746865207a65726f206164647265604482015261737360f01b6064820152608401610923565b6001600160a01b0383811660008181526001602090815260408083209487168084529482529182902085905590518481527f8c5be1e5ebec7d5bd14f71427d1e84f3dd0314c0f7b2291e5b200ac8c7c3b925910160405180910390a3505050565b6009546001600160a01b03163314610cca57604051630cf4a9a760e41b815260040160405180910390fd5b565b6000610cd88284611434565b9392505050565b6000610cd88284611460565b6000610cd88284611473565b6000610cd8828461148a565b6001600160a01b038381166000908152600160209081526040808320938616835292905220546000198114610d8f5781811015610d825760405162461bcd60e51b815260206004820152601d60248201527f45524332303a20696e73756666696369656e7420616c6c6f77616e63650000006044820152606401610923565b610d8f8484848403610b7b565b50505050565b6001600160a01b038316610e115760405162461bcd60e51b815260206004820152602560248201527f45524332303a207472616e736665722066726f6d20746865207a65726f20616460448201527f64726573730000000000000000000000000000000000000000000000000000006064820152608401610923565b6001600160a01b038216610e735760405162461bcd60e51b815260206004820152602360248201527f45524332303a207472616e7366657220746f20746865207a65726f206164647260448201526265737360e81b6064820152608401610923565b6001600160a01b03831660009081526020819052604090205481811015610f025760405162461bcd60e51b815260206004820152602660248201527f45524332303a207472616e7366657220616d6f756e742065786365656473206260448201527f616c616e636500000000000000000000000000000000000000000000000000006064820152608401610923565b6001600160a01b03848116600081815260208181526040808320878703905593871680835291849020805487019055925185815290927fddf252ad1be2c89b69c2b068fc378daa952ba7f163c4a11628f55a4df523b3ef910160405180910390a3610d8f565b6001600160a01b0381166000908152600a602052604081205460ff1615159003610fa55760405163d7ea757b60e01b815260040160405180910390fd5b50565b6001600160a01b038216610ffe5760405162461bcd60e51b815260206004820152601f60248201527f45524332303a206d696e7420746f20746865207a65726f2061646472657373006044820152606401610923565b80600260008282546110109190611434565b90915550506001600160a01b038216600081815260208181526040808320805486019055518481527fddf252ad1be2c89b69c2b068fc378daa952ba7f163c4a11628f55a4df523b3ef910160405180910390a35050565b6001600160a01b038216600090815260208190526040902054818110156105995760405163023175b160e41b815260040160405180910390fd5b806110b9600654600554610cdf90919063ffffffff16565b1015610fa557604051630cc3fe5160e21b815260040160405180910390fd5b6001600160a01b0382166111385760405162461bcd60e51b815260206004820152602160248201527f45524332303a206275726e2066726f6d20746865207a65726f206164647265736044820152607360f81b6064820152608401610923565b6001600160a01b038216600090815260208190526040902054818110156111ac5760405162461bcd60e51b815260206004820152602260248201527f45524332303a206275726e20616d6f756e7420657863656564732062616c616e604482015261636560f01b6064820152608401610923565b6001600160a01b0383166000818152602081815260408083208686039055600280548790039055518581529192917fddf252ad1be2c89b69c2b068fc378daa952ba7f163c4a11628f55a4df523b3ef910160405180910390a3505050565b60006020828403121561121c57600080fd5b5035919050565b600060208083528351808285015260005b8181101561125057858101830151858201604001528201611234565b506000604082860101526040601f19601f8301168501019250505092915050565b80356001600160a01b038116811461128857600080fd5b919050565b600080604083850312156112a057600080fd5b6112a983611271565b946020939093013593505050565b8015158114610fa557600080fd5b6000806000606084860312156112da57600080fd5b6112e384611271565b92506020840135915060408401356112fa816112b7565b809150509250925092565b60008060006060848603121561131a57600080fd5b61132384611271565b925061133160208501611271565b9150604084013590509250925092565b60006020828403121561135357600080fd5b610cd882611271565b60008060006060848603121561137157600080fd5b833592506020840135611383816112b7565b929592945050506040919091013590565b600080604083850312156113a757600080fd5b6113b083611271565b91506113be60208401611271565b90509250929050565b600181811c908216806113db57607f821691505b6020821081036113fb57634e487b7160e01b600052602260045260246000fd5b50919050565b60006020828403121561141357600080fd5b8151610cd8816112b7565b634e487b7160e01b600052601160045260246000fd5b808201808211156104eb576104eb61141e565b60006020828403121561145957600080fd5b5051919050565b818103818111156104eb576104eb61141e565b80820281158282048414176104eb576104eb61141e565b6000826114a757634e487b7160e01b600052601260045260246000fd5b50049056fea26469706673582212209179e606fd16e1cfa122f66b16d8ac1fd45c0707457f2349ec87511309ce642b64736f6c63430008110033",
  "devdoc": {
    "kind": "dev",
    "methods": {
      "allowance(address,address)": {
        "details": "See {IERC20-allowance}."
      },
      "approve(address,uint256)": {
        "details": "See {IERC20-approve}. NOTE: If `amount` is the maximum `uint256`, the allowance is not updated on `transferFrom`. This is semantically equivalent to an infinite approval. Requirements: - `spender` cannot be the zero address."
      },
      "balanceOf(address)": {
        "details": "See {IERC20-balanceOf}."
      },
      "decimals()": {
        "details": "Returns the number of decimals used to get its user representation. For example, if `decimals` equals `2`, a balance of `505` tokens should be displayed to a user as `5.05` (`505 / 10 ** 2`). Tokens usually opt for a value of 18, imitating the relationship between Ether and Wei. This is the value {ERC20} uses, unless this function is overridden; NOTE: This information is only used for _display_ purposes: it in no way affects any of the arithmetic of the contract, including {IERC20-balanceOf} and {IERC20-transfer}."
      },
      "decreaseAllowance(address,uint256)": {
        "details": "Atomically decreases the allowance granted to `spender` by the caller. This is an alternative to {approve} that can be used as a mitigation for problems described in {IERC20-approve}. Emits an {Approval} event indicating the updated allowance. Requirements: - `spender` cannot be the zero address. - `spender` must have allowance for the caller of at least `subtractedValue`."
      },
      "increaseAllowance(address,uint256)": {
        "details": "Atomically increases the allowance granted to `spender` by the caller. This is an alternative to {approve} that can be used as a mitigation for problems described in {IERC20-approve}. Emits an {Approval} event indicating the updated allowance. Requirements: - `spender` cannot be the zero address."
      },
      "name()": {
        "details": "Returns the name of the token."
      },
      "symbol()": {
        "details": "Returns the symbol of the token, usually a shorter version of the name."
      },
      "totalSupply()": {
        "details": "See {IERC20-totalSupply}."
      },
      "transfer(address,uint256)": {
        "details": "See {IERC20-transfer}. Requirements: - `to` cannot be the zero address. - the caller must have a balance of at least `amount`."
      },
      "transferFrom(address,address,uint256)": {
        "details": "See {IERC20-transferFrom}. Emits an {Approval} event indicating the updated allowance. This is not required by the EIP. See the note at the beginning of {ERC20}. NOTE: Does not update the allowance if the current allowance is the maximum `uint256`. Requirements: - `from` and `to` cannot be the zero address. - `from` must have a balance of at least `amount`. - the caller must have allowance for ``from``'s tokens of at least `amount`."
      }
    },
    "version": 1
  },
  "userdoc": {
    "kind": "user",
    "methods": {},
    "version": 1
  },
  "storageLayout": {
    "storage": [
      {
        "astId": 282,
        "contract": "contracts/core/LiquidityPool.sol:LiquidityPool",
        "label": "_balances",
        "offset": 0,
        "slot": "0",
        "type": "t_mapping(t_address,t_uint256)"
      },
      {
        "astId": 288,
        "contract": "contracts/core/LiquidityPool.sol:LiquidityPool",
        "label": "_allowances",
        "offset": 0,
        "slot": "1",
        "type": "t_mapping(t_address,t_mapping(t_address,t_uint256))"
      },
      {
        "astId": 290,
        "contract": "contracts/core/LiquidityPool.sol:LiquidityPool",
        "label": "_totalSupply",
        "offset": 0,
        "slot": "2",
        "type": "t_uint256"
      },
      {
        "astId": 292,
        "contract": "contracts/core/LiquidityPool.sol:LiquidityPool",
        "label": "_name",
        "offset": 0,
        "slot": "3",
        "type": "t_string_storage"
      },
      {
        "astId": 294,
        "contract": "contracts/core/LiquidityPool.sol:LiquidityPool",
        "label": "_symbol",
        "offset": 0,
        "slot": "4",
        "type": "t_string_storage"
      },
      {
        "astId": 7328,
        "contract": "contracts/core/LiquidityPool.sol:LiquidityPool",
        "label": "totalTokenSupply",
        "offset": 0,
        "slot": "5",
        "type": "t_uint256"
      },
      {
        "astId": 7330,
        "contract": "contracts/core/LiquidityPool.sol:LiquidityPool",
        "label": "lockedTokenSupply",
        "offset": 0,
        "slot": "6",
        "type": "t_uint256"
      },
      {
        "astId": 7332,
        "contract": "contracts/core/LiquidityPool.sol:LiquidityPool",
        "label": "maxLostPerTimeInPercent",
        "offset": 0,
        "slot": "7",
        "type": "t_uint256"
      },
      {
        "astId": 7334,
        "contract": "contracts/core/LiquidityPool.sol:LiquidityPool",
        "label": "token",
        "offset": 0,
        "slot": "8",
        "type": "t_address"
      },
      {
        "astId": 7336,
        "contract": "contracts/core/LiquidityPool.sol:LiquidityPool",
        "label": "managerContract",
        "offset": 0,
        "slot": "9",
        "type": "t_address"
      },
      {
        "astId": 7340,
        "contract": "contracts/core/LiquidityPool.sol:LiquidityPool",
        "label": "validVaults",
        "offset": 0,
        "slot": "10",
        "type": "t_mapping(t_address,t_bool)"
      },
      {
        "astId": 7344,
        "contract": "contracts/core/LiquidityPool.sol:LiquidityPool",
        "label": "lockedPerExpTime",
        "offset": 0,
        "slot": "11",
        "type": "t_mapping(t_uint256,t_uint256)"
      }
    ],
    "types": {
      "t_address": {
        "encoding": "inplace",
        "label": "address",
        "numberOfBytes": "20"
      },
      "t_bool": {
        "encoding": "inplace",
        "label": "bool",
        "numberOfBytes": "1"
      },
      "t_mapping(t_address,t_bool)": {
        "encoding": "mapping",
        "key": "t_address",
        "label": "mapping(address => bool)",
        "numberOfBytes": "32",
        "value": "t_bool"
      },
      "t_mapping(t_address,t_mapping(t_address,t_uint256))": {
        "encoding": "mapping",
        "key": "t_address",
        "label": "mapping(address => mapping(address => uint256))",
        "numberOfBytes": "32",
        "value": "t_mapping(t_address,t_uint256)"
      },
      "t_mapping(t_address,t_uint256)": {
        "encoding": "mapping",
        "key": "t_address",
        "label": "mapping(address => uint256)",
        "numberOfBytes": "32",
        "value": "t_uint256"
      },
      "t_mapping(t_uint256,t_uint256)": {
        "encoding": "mapping",
        "key": "t_uint256",
        "label": "mapping(uint256 => uint256)",
        "numberOfBytes": "32",
        "value": "t_uint256"
      },
      "t_string_storage": {
        "encoding": "bytes",
        "label": "string",
        "numberOfBytes": "32"
      },
      "t_uint256": {
        "encoding": "inplace",
        "label": "uint256",
        "numberOfBytes": "32"
      }
    }
  }
}