{
  "address": "0x6F247d57eE5ccB7d44d3C8C90f4eC88A15153cc9",
  "abi": [
    {
      "inputs": [],
      "stateMutability": "nonpayable",
      "type": "constructor"
    },
    {
      "inputs": [],
      "name": "calculateProbabilityRange",
      "outputs": [
        {
          "internalType": "uint256",
          "name": "",
          "type": "uint256"
        }
      ],
      "stateMutability": "view",
      "type": "function"
    }
  ],
  "transactionHash": "0x8743d688860e380346a25a5ea97316506695903e2c23d15dac6f9d4c6331b483",
  "args": [],
  "numDeployments": 1,
  "solcInputHash": "11ba170c5ec9d5de606b441d32c896b5",
  "bytecode": "0x608060405234801561001057600080fd5b5061015b806100206000396000f3fe608060405234801561001057600080fd5b506004361061002b5760003560e01c8063088eead014610030575b600080fd5b61003861004a565b60405190815260200160405180910390f35b60405163ea75fe3b60e01b8152690405fdf7e5af85e0000060048201526905150ae84a8cdf000000602482015269043c33c193756480000060448201526107d0606482015262278d0060848201526213c68060a482015260009081907355FCbbE20022B0b654d302cC7b96Ba9D66C9fb599063ea75fe3b9060c401602060405180830381865af41580156100e2573d6000803e3d6000fd5b505050506040513d601f19601f82011682018060405250810190610106919061010c565b92915050565b60006020828403121561011e57600080fd5b505191905056fea26469706673582212201a550051584e62073bd3d0a880aa0af1f5e3a146bc1054bd74d9a7e134a5c3e664736f6c63430008110033",
  "deployedBytecode": "0x608060405234801561001057600080fd5b506004361061002b5760003560e01c8063088eead014610030575b600080fd5b61003861004a565b60405190815260200160405180910390f35b60405163ea75fe3b60e01b8152690405fdf7e5af85e0000060048201526905150ae84a8cdf000000602482015269043c33c193756480000060448201526107d0606482015262278d0060848201526213c68060a4820152600090819073__$7ac33160e126b1ac4f1e7b569b9216a78d$__9063ea75fe3b9060c401602060405180830381865af41580156100e2573d6000803e3d6000fd5b505050506040513d601f19601f82011682018060405250810190610106919061010c565b92915050565b60006020828403121561011e57600080fd5b505191905056fea26469706673582212201a550051584e62073bd3d0a880aa0af1f5e3a146bc1054bd74d9a7e134a5c3e664736f6c63430008110033",
  "libraries": {
    "MathLibraryDefibets": "0x55FCbbE20022B0b654d302cC7b96Ba9D66C9fb59"
  },
  "devdoc": {
    "kind": "dev",
    "methods": {},
    "version": 1
  },
  "userdoc": {
    "kind": "user",
    "methods": {},
    "version": 1
  },
  "storageLayout": {
    "storage": [],
    "types": null
  }
}